:020000040040BA
:1000000018CC4020D1204000CF204000CF2040001D
:10001000CF204000CF204000CF2040000000000053
:1000200000000000000000000000000095024000F9
:10003000CF20400000000000110340006103400099
:10004000CF204000CF204000CF204000CF204000F4
:10005000CF204000CF204000CF204000CF204000E4
:10006000CF20400000000000B91D4000CD1D400021
:10007000E11D400091174000CF204000CF204000FC
:10008000F51D4000091E4000CF204000CF20400059
:10009000CF204000CF204000CF204000CF204000A4
:1000A000CF204000CF204000CF204000CF20400094
:1000B000CF204000CF204000CF204000CF20400084
:1000C000CF204000CF204000CF204000CF20400074
:1000D00000000000CF20400000000000CF204000C2
:1000E000CF204000CF204000CF204000CF20400054
:1000F000CF204000CF204000CF204000CF20400044
:10010000CF204000CF204000CF204000CF20400033
:10011000CF204000000000000000000000000000B0
:10012000CF204000CF204000CF204000CF20400013
:10013000CF20400000000000CF204000CF20400032
:1001400010B5054C237833B9044B13B10448AFF311
:1001500000800123237010BDD00940200000000062
:10016000505940000C4B43B10C480D4910B5AFF34A
:1001700000800C48036823B910BD0A48036833B9EE
:100180007047094B002BF7D0BDE810401847064BCD
:10019000002BF5D0184700BF000000005059400068
:1001A000D4094020505940000000000000F108032D
:1001B00043604FF0FF328260C3600361002303603D
:1001C000704700230361704743685A684A60426879
:1001D0008A605A6891605960416008610368013320
:1001E0000360704710B40C68B4F1FF3F16D000F103
:1001F0000803C2681268944204D35B685A681268A4
:100200009442FAD25A684A6091608B6059600861E2
:100210000368013303605DF8044B70470369F1E73D
:10022000436882689A60836842685A6003695A68C2
:10023000904206D0002202611A68013A1A601868DA
:10024000704782685A60F5E703480068006880F3E9
:10025000088862B600DF00BF08ED00E0DFF80C00A0
:10026000016841F4700101607047000088ED00E012
:100270004FF0807340F8043C40F8081C002340F81D
:100280000C3C40F8202C6FF0020340F8243C44382A
:1002900070470000054B19680868B0E8F04F80F31C
:1002A00009884FF0000080F311887047F8A94020BA
:1002B0004FF08052014B1A60704700BF04ED00E020
:1002C000EFF311804FF0A00181F3118870470020F7
:1002D00008B5034B9847034A13680133136008BD00
:1002E000C10240000C00402080F3118870470000DC
:1002F00008B5054A1368013B136003B108BD00202F
:10030000024B9847FAE700BF0C004020E90240008A
:10031000EFF30980114B1A681EF0100F08BF20ED93
:10032000108A20E9F04F10602DE908404FF0A0003E
:1003300080F3118800F0B6FE4FF0000080F31188C2
:10034000BDE8084019680868B0E8F04F1EF0100FCB
:1003500008BFB0EC108A80F309887047F8A94020E4
:1003600008B54FF08052054B1A60054B9847054B76
:1003700098470020044B984708BD00BF04ED00E0FB
:10038000C1024000AD0D4000E9024000034A044BA9
:100390001A600722043B1A60704700BFDF93040015
:1003A00014E000E010B50C4B1A6842F470021A60B9
:1003B0001A6842F070421A60084B98470024084BB4
:1003C0001C60084B9847084A136843F04043136089
:1003D000064B9847204610BD20ED00E08D034000FD
:1003E0000C0040205D02400034EF00E04902400074
:1003F00010B4134A00E01A4613688342FBD35168D5
:100400005418A0420AD041684418A3420BD003609C
:10041000904218BF10605DF8044B7047406801447B
:1004200051601046EFE7074C2468A34206D05B6892
:100430001944416013681B680360E9E70360E7E75C
:10044000F0A94020EC09402038B504462C4B9847D1
:100450002C4B1B688BB1002C4BD004F1100212F016
:10046000070F02D022F007020832511E49F6FE7330
:1004700099423BD824490C6816E0234A234B136069
:100480000021516049F6F07298181E4D286049F617
:10049000F475595199505A6018601D4A1368103B01
:1004A0001360D8E721461C4663689A4202D9236844
:1004B000002BF7D1134B1B689C4217D00D681035E9
:1004C00023680B6063689B1A202B09D8104A1368B5
:1004D00061685B1A13600F4B984765B1284638BDB9
:1004E000A018436062600C4B9847EFE7094B9847B0
:1004F00001E0084B9847094B98470025EEE700BFFD
:100500007D0D4000EC094020F0A94020F00940207A
:1005100010004020D10E4000F1034000F5254000BE
:1005200080B110B50446084B9847084A54F80C3C73
:1005300011680B441360A4F11000054B9847054B5C
:10054000984710BD704700BF7D0D4000100040204F
:10055000F1034000D10E400010B50446036C5BB9B6
:1005600003681BB1A36B0133A36310BD4068124B3A
:10057000984700236360F5E76AB91A4680680F4B15
:100580009847A368226C1344A36062689342E9D33E
:100590002368A360E6E71A46C068084B9847226CB8
:1005A0005242E3681344E36021688B42DAD2636805
:1005B0001A44E260D6E700BFD11340004D27400047
:1005C00038B50346006858B11A6CDC681444DC6026
:1005D0005D68AC4228BFD8600846D968014B98478F
:1005E00038BD00BF4D274000F8B504461F4B984763
:1005F000A36C002B14DD636A93B104F124061C4D37
:100600001C4F07E0A36C013BA364A36C002B07DD28
:10061000636A2BB13046A8470028F3D0B847F1E70A
:100620004FF0FF33A364144B9847104B9847636C0B
:10063000002B14DD236993B104F110060C4D0D4F0E
:1006400007E0636C013B6364636C002B07DD236987
:100650002BB13046A8470028F3D0B847F1E74FF058
:10066000FF336364044B9847F8BD00BFD1024000DC
:10067000E911400019134000F102400038B508B3F9
:100680000D460446174B98472268216CE36B03FB29
:1006900001F3D01860600020A063A2605B1A1344CD
:1006A000E3604FF0FF336364A36495B923692BB112
:1006B00004F110000C4B9847012807D00B4B9847CA
:1006C000012038BD0A4B984700BFFDE7094B98470A
:1006D000F4E704F11000084DA84704F12400A847EE
:1006E000ECE700BFD1024000E9114000F1024000F8
:1006F000C1024000B1024000AD014000F8B5D8B1E0
:100700000D461746064650200D4B9847044698B1B3
:1007100005FB06F001300A4B9847206048B1E663BC
:10072000256401212046074B984784F84D702046E8
:10073000F8BD2046044B9847044B984700BFFDE79F
:10074000490440007D06400021054000C1024000F0
:100750002DE9F04F85B0019248B18846994604468C
:1007600049B10027394EDFF810A1394D34E0394B3B
:10077000984700BFFDE7036C1BB1364B984700BF9D
:10078000FDE70027EEE74A4641462046324B9847B0
:10079000636A2BB92E4B9847012005B0BDE8F08F56
:1007A00004F124002D4B98470128F3D12C4B984796
:1007B000F0E7274B98470020EFE702A8D04715E065
:1007C000002363641AE00023A3641BE02046254B4A
:1007D0009847254B98470127B047A26BE36B9A4295
:1007E000D1D3019B002BE4D0002FE6D0A8471F4BAC
:1007F0009847B047636CB3F1FF3FE1D0A36CB3F10E
:10080000FF3FE0D0A84701A902A8194B9847A8B913
:10081000B047D4F838B0E76BA847BB45D6D10199AB
:1008200004F11000134B984720460E4B98470E4B8F
:1008300098470028CFD10A4B9847CCE72046094B70
:100840009847094B98470020A7E700BFD102400016
:10085000F1024000C102400059054000E91140008A
:10086000B1024000E9054000D10E40007D0D40007E
:1008700095124000451140006D1240002DE9F041F5
:1008800090B10E4615469846044689B11A4B9847D2
:100890000746A26BE36B9A4211D300243846174BEC
:1008A00098472046BDE8F081134B984700BFFDE70D
:1008B000036C002BEAD0104B984700BFFDE742467F
:1008C000314620460E4B9847A36CB3F1FF3F0AD147
:1008D000636A6BB104F124000A4B984755B148B1E3
:1008E00001242C60DAE7A36C0133A3640124D5E76B
:1008F0000124D3E70124D1E7C1024000E90240000E
:1009000059054000E91140002DE9F04784B00192FB
:1009100048B188469946044649B10027474EDFF85A
:1009200050A1474D51E0474B984700BFFDE7036C8E
:100930001BB1444B984700BFFDE70027EEE7E56891
:1009400041462046404B9847B9F1000F17D1A36BA1
:10095000013BA363236813B93C4B9847606023694C
:100960003BB104F110003A4B9847012801D1394BB3
:100970009847334B9847012004B0BDE8F087E56005
:10098000636A002BF5D004F12400314B984700280E
:10099000EFD0304B9847ECE7294B98470020EBE726
:1009A00002A8D0471AE0002363641FE00023A36479
:1009B00020E0B0476068284B9847A84728E02046C9
:1009C000264B9847264B98470127B047A36B002B2F
:1009D000B5D1019B002BDFD0002FE1D0A847214BE0
:1009E0009847B047636CB3F1FF3FDCD0A36CB3F121
:1009F000FF3FDBD0A84701A902A81B4B9847B0B91D
:100A0000B047A76BA847002FD9D12368002BD0D0BF
:100A1000019904F12400154B984720460F4B984745
:100A20000F4B98470028CFD10A4B9847CCE7204678
:100A30000A4B98470A4B984700209DE7D102400097
:100A4000F1024000C1024000C105400025134000F2
:100A5000E9114000B102400051134000E905400097
:100A6000D10E40007D0D4000951240004511400020
:100A70006D12400038B504460D460F4B9847636C25
:100A8000B3F1FF3F0BD0A36CB3F1FF3F0AD00B4B88
:100A90009847A36B4BB12046094B984738BD0023BC
:100AA0006364F0E70023A364F1E7294604F124001E
:100AB000044B9847EFE700BFD1024000F10240002D
:100AC000E9054000A511400010B50F4B1B685860A8
:100AD0000E4B1B6898420ED304460D4B18680A4B08
:100AE000196804310B4B98470B4B1B689C4201D291
:100AF000094B1C6010BD094B1868034B1968043181
:100B0000044B984710BD00BFF8A94020F4AA40202C
:100B1000FCA94020E50140001400402000AA40202C
:100B20002DE9F84F0A9E0B9F0C9D48B188469346CD
:100B30009A468146042E07D95C4B984700BFFDE7D3
:100B40005A4B984700BFFDE74C20594B9847044645
:100B5000002851D0002D44D005634FEA8B02A52117
:100B60002846544B98476FF040455D44236B03EB98
:100B7000850323F007050A22414604F134004E4B59
:100B80009847002384F83D30E662A66404F1040827
:100B90004046DFF878B1D84704F11800D8472461FF
:100BA000C6F10503A3616462524649462846434B99
:100BB0009847206007B13C60414B9847414A136811
:100BC00001331360404B1B68D3B1404B1B68002BB3
:100BD0003DD13D4B1B68DB6A9E4238D33A4B1C60CB
:100BE00035E04FEA8B00324B9847054620630028DA
:100BF000B3D12046364B98474FF0FF30BDE8F88F11
:100C0000314B1C601368012B21D1324F3846324DD5
:100C1000A84707F11400A84707F12800A84707F1E3
:100C20003C00A84707F15000A847DFF8E490484689
:100C3000A8472A4F3846A8472948A8472948A8471F
:100C40002948A847294BC3F80090294B1F60E06A48
:100C5000284B1B68984201D9264B1860264A136816
:100C6000236401331360254B1B68984201D9234B41
:100C7000186000EB80004146164B03EB8000204BD0
:100C80009847204B9847114B1B684BB10E4B1B6884
:100C9000DB6A9E4207D91C4B98470120BDE8F88FBC
:100CA0000120BDE8F88F0120BDE8F88FC1024000A7
:100CB00049044000812840009D2B40007102400003
:100CC000D102400068AA4020F8A94020C8AA4020CC
:100CD0002105400004AA4020AD01400098AA402010
:100CE000B4AA4020E0AA4020CCAA4020FCA9402081
:100CF00000AA402080AA402074AA40207CAA40205C
:100D0000C9014000F1024000B1024000C3014000AF
:100D100084AA402010B584B000230393029301936A
:100D2000009382220D490E480E4CA047012802D0A4
:100D300080B104B010BD0C4B98470128F8D10B4B83
:100D4000984701220A4B1A6000220A4B1A600A4B8C
:100D50009847EEE7054B984700BFFDE7A4564000D3
:100D60001D104000210B4000C9144000C10240008A
:100D7000C8AA4020F4AA4020A5034000024A1368F4
:100D800001331360704700BF70AA402010B5044BB8
:100D90009847044B1C68044B9847204610BD00BF81
:100DA000D1024000F4AA4020F10240003C4B1B68F5
:100DB000002B6ED12DE9F0413A4B1A6801321A60CE
:100DC0001B68ABB9384B1B681B68002B28D1364B0E
:100DD0001968364A10681860116035490A6801328E
:100DE0000A601B681B68FBB94FF0FF32314B1A6079
:100DF0002C4B1A682F4B1B689A424FD32A4B1B6807
:100E00001B68CBB1284B1B68DB68DC686368254A2C
:100E10001268934216D8284E284FDFF8B0802AE097
:100E2000274B984700BFFDE71F4B1B68DB68DB685B
:100E30005A68204B1A60DBE74FF0FF321D4B1A60F7
:100E4000BDE8F0811B4A1360BDE8F08100EB800033
:100E5000294608EB80001B4B9847134B1B681B6807
:100E6000002BE9D0104B1B68DB68DC6863680D4A17
:100E700012689342E6D8251D2846B047A36A13B1ED
:100E800004F11800B047E06A3B689842DED9386048
:100E9000DCE70D4A1368013313607047BDE8F08149
:100EA00070AA4020F4AA4020FCA9402000AA4020BB
:100EB000B0AA402014004020210240007CAA40201B
:100EC000C1024000C90140006CAA402004AA402091
:100ED0002DE9F8432F4B1B681BB92F4B984700BFD8
:100EE000FDE72E4B98472B4B1A68013A1A601B6896
:100EF000002B4DD12A4B1B682BB10024DFF8CC808E
:100F0000284F294E14E00024284B98472046BDE87E
:100F1000F88300EB80004946254B03EB8000254B0E
:100F20009847254B1B68EA6ADB6A9A4228BF01246E
:100F3000D8F800307BB1D8F80C30DD6805F1180026
:100F4000B84705F104094846B847E86A336898424B
:100F5000DFD93060DDE7194B1B6893B1174B1B6875
:100F600043B1174D154CA8472368013B2360236804
:100F7000002BF8D10022134B1A60134B9847012421
:100F8000C2E7012CF6D00F4B1B68012BBCD1F1E757
:100F90000024B9E770AA4020C1024000D1024000FD
:100FA00068AA4020210240007CAA4020F1024000B3
:100FB00004AA4020C9014000F8A940206CAA4020A2
:100FC000AD0D4000ACAA4020B1024000B4AA4020C0
:100FD00010B510B90A4B984710BD0446094B984705
:100FE000094B1B681C44094B18680430084B984790
:100FF0002046084B9847084B98470028ECD1E9E772
:10100000B10240007D0D4000F4AA4020F8A9402024
:1010100021024000C90A4000D10E400080B5164DA3
:10102000DFF87880154E24E0154B1B68012B1ED885
:101030002B68002BF8D0C0473468B847002CF7D095
:10104000104B9847F368DC68201D0F4B98470F4AF8
:101050001368013B13602B68013B2B600C4B9847D6
:10106000206BDFF83C90C8472046C847E0E7094BB3
:101070009847094FDCE700BF78AA4020E0AA40204B
:1010800004AA4020D10240002102400068AA40206A
:10109000F1024000B1024000D10E40007D0D400041
:1010A00021054000214B1B68EBB910B5204B1B6894
:1010B00003EB83039B001F4AD358C3B91C4B1B6827
:1010C0006BB11B4A1B491368013B1360136803EBA8
:1010D000830351F8233053B91368002BF3D1164B17
:1010E000984700BFFDE70122144B1A607047104B70
:1010F0001B68104A9900C81802EB800044686468B5
:101100004460194402460832944209D003EB830339
:10111000084A02EB83035B68DA68094B1A6010BD6A
:101120006068044A02EB81025060EFE770AA402039
:101130007CAA402004AA4020C1024000ACAA402062
:10114000F8A9402038B590B10C460E4D29681831E9
:101150000D4B9847286804300C4B9847B4F1FF3F7B
:1011600009D00B4B186820440A4B984738BD0A4BEE
:10117000984700BFFDE7296804310848084B9847A5
:1011800038BD00BFF8A94020E50140002102400021
:10119000F4AA4020C90A4000C1024000CCAA402065
:1011A000C901400038B578B10D46094C21681831A5
:1011B000084B984720680430074B9847074B18683E
:1011C0002844074B984738BD064B984700BFFDE7BA
:1011D000F8A94020C901400021024000F4AA4020A3
:1011E000C90A4000C102400038B5C368DC681CB3BE
:1011F00004F118052846154B9847154B1B68FBB999
:10120000251D2846114B9847E06A124B1B689842EF
:1012100001D9104B186000EB800029460E4B03EB00
:1012200080000E4B98470E4B1B68E06ADB6A9842C1
:1012300034BF0020012038BD0A4B984700BFFDE7AE
:1012400029460948054B9847EDE700BF21024000B9
:1012500070AA40207CAA402004AA4020C901400076
:10126000F8A94020C1024000B4AA402008B530B11E
:10127000054A12680260054A1268426008BD044BC4
:10128000984700BFFDE700BFB0AA4020F4AA402065
:10129000C102400038B5E8B10D460446F1B1184B23
:1012A00098472B68B3F1FF3F26D0164A1268216891
:1012B000914204D0144A1268616891421ED9124AC0
:1012C00012686168521A93420CD801240F4B984758
:1012D000204638BD0E4B984700BFFDE70C4B9847A2
:1012E00000BFFDE7084A1268521A9B1A2B6020467D
:1012F000084B98470024E9E70024E7E70124E5E7E5
:10130000D1024000B0AA4020F4AA4020F1024000DF
:10131000C10240006D1240000122014B1A6070476B
:10132000ACAA4020014B1868704700BFF8A94020C4
:10133000054B1B6833B1054B1B68002B0CBF01200C
:101340000220704700207047C8AA402070AA4020A1
:10135000002831D038B50546C36A18490968C96AFA
:101360008B4211D215490968C96AC1F10501816131
:1013700003EB8303124901EB83034169994204D0D3
:101380000E4B1B68DB6AC36238BD041D20460D4B43
:1013900098470A4B1B68D86AE8620B4B1B68984257
:1013A00001D9094B186000EB80002146044B03EB88
:1013B0008000064B984738BD704700BFF8A9402011
:1013C00004AA4020210240007CAA4020C90140001C
:1013D000E8B138B50446C16A826C914216D0051D49
:1013E00028460B4B9847A06CE062C0F10503A3614F
:1013F000084B1B68984201D9064B186000EB80002F
:101400002946054B03EB8000044B984738BD7047D5
:10141000210240007CAA402004AA4020C9014000CB
:1014200008B54160006191420CD8D21A83699A4292
:1014300001D3012008BD011D094B1868094B9847CD
:10144000002008BD9A4203D2994201D3012008BD71
:10145000011D054B1868034B9847002008BD00BFCD
:10146000FCAA4020E5014000F8AA402070B50D4BD1
:1014700098470D4B1B6813B10C4B984770BD0C4D32
:1014800028460C4EB0470C4C2046B0470B4B1D6015
:101490000B4B1C6000220C2105200A4B9847024B85
:1014A0001860E9E7D10240002CAB4020F102400077
:1014B00000AB4020AD01400014AB4020F8AA402012
:1014C000FCAA4020FD06400010B584B00B4B9847A5
:1014D0000B4B1B6873B10023039302930193042207
:1014E00000924FF4827207490748084CA04708B1A0
:1014F00004B010BD064B984700BFFDE76D144000D7
:101500002CAB4020AC56400019164000210B400087
:10151000C102400030B585B00F4C2568D5B11C46DE
:101520000191029203903BB10023224601A9284673
:101530000A4CA04705B030BD094B984701284FF031
:1015400000030CBF089A1A4601A903480068054C1D
:10155000A047EFE70020EDE72CAB40207D084000DE
:1015600031134000510740002DE9F04782B0814619
:10157000214B98478046214B1B68984215D3002386
:10158000C9F800301D4BC3F80080404602B0BDE8EA
:10159000F087002100910B4652462046184CA04788
:1015A00028B9184B984700BFFDE7174E174F33680F
:1015B0001A68C2B1DA68D2F800A0DB68DC68251DC1
:1015C0002846B847636A20469847E369012BEED165
:1015D000A36953449A45DCD263602461294630688C
:1015E0000B4B9847E3E70B4A106807490860136004
:1015F0000123C9F80030C5E78D0D400028AB40201D
:1016000015154000C1024000F8AA40202102400008
:10161000E5014000FCAA40202DE9F04186B0DFF84A
:101620006C814E4B1B681A68002A00F08A80DB68C8
:101630001D684B4B984703A84A4B98470646039BA7
:10164000002B40F08780A8422AD3474B9847434B52
:101650001B68DB68DC68201DC047E369012B08D0EC
:10166000636A2046984702A83E4B984707463F4E7C
:1016700033E0A1692B463246294420463C4EB04710
:101680000128EDD1002100910B462A462046394D14
:10169000A8470028E4D1384B984700BFFDE7002554
:1016A000A91B324B1868354B98472F4B9847002899
:1016B000D9D1334B9847D6E70499A16131B13B4664
:1016C0003A46394420462A4CA04706E02A4B984720
:1016D00000BFFDE720462B4B98472B4D00231A46B1
:1016E00003A93068A84700289BD0059C1CB16369FA
:1016F0000BB1201DC047039B022BDDD0032BE9D08B
:10170000002BEBD10499A0690B463A4601442046D0
:10171000174DA8470128E0D1636A20469847E3693E
:10172000012BDAD1A269002100910B4604980244F2
:101730002046104CA0470028CFD10F4B984700BF40
:10174000FDE7074B984703A8064B98470646039BBF
:10175000002BA4D0044B984785E700BFF8AA40208F
:101760007D0D400069154000D10E40002CAB40209B
:101770002114400015154000C1024000750A4000C8
:10178000B10240002105400009094000210240004B
:1017900070B582B00E480F4B984710F0010F01D181
:1017A00002B070BD02AC002344F8083D084E0A4D5B
:1017B00021463046A8470028FAD102A9009B01F82B
:1017C000013D064B186800231A46054CA047E7E781
:1017D000004002409D204000B7204000DCAB40208C
:1017E0007D084000F0B58BB0002201214020204B45
:1017F0009847204B18601B6833B11F4B9847002453
:101800001C4F1E4E1E4D19E01E481F4B9847F4E713
:101810001E481D4CA04702A91D48A04720220021B8
:1018200002A81C4B98470024EB6B13F4807F1AD05E
:101830004FF480736B630A20174B98473868002376
:101840004FF0FF320DF10701B0470028ECD09DF8B2
:1018500007300AAA224402F8203C0134092CD7D0D0
:10186000002BE1D1D4E74FF480732B63E3E700BF93
:10187000FD064000DCAB40209D18400009094000F7
:1018800000120E40B456400025274000CC564000C0
:10189000E056400081284000D10F40002DE9F04380
:1018A00087B00D201F4CA0470B20A0474FF4E13319
:1018B0000093C02301934FF4006302930025039526
:1018C00004950D20A047184C184A69462046184B2D
:1018D00098472046174FB8472046174EB047DFF8C5
:1018E00064902B4601224FF0C0514846DFF85880E3
:1018F000C0472B4602224FF0C0514846C047204601
:10190000B8472046B047012120460C4B98470C4B66
:10191000802283F80D234FF400521A6007B0BDE80F
:10192000F08300BF3D1F40000040024080D1F0081E
:10193000392040008D204000932040009920400035
:1019400000E100E000100E40D11C400010B510482E
:10195000104B98473E2100200F4B98470F4CA04753
:101960000028FCD00E4B98470E4A0F4B9A620F4C42
:10197000A0470028FCD002200D4B984700200D4BBB
:1019800098470D4B98470248024B984710BD00BF3F
:1019900000A3E111A5224000B91E40000D1F400028
:1019A0001D1F4000013F182000060E402D1F400063
:1019B0001D1E4000551E4000992140002DE9F041B8
:1019C00080B90C469046002A0FDD8F18084E094D4D
:1019D000306821462B6898470134BC42F8D1404614
:1019E000BDE8F0814FF0FF38F9E78046F7E700BF28
:1019F000ECAB4020E4AB40200138022815D82DE99B
:101A0000F0410E4614469AB10D46DFF838800C4F6F
:101A1000D8F8000015F8011B3B68984700280ADB3E
:101A2000A81B013CF4D1BDE8F0814FF0FF307047B6
:101A30001046BDE8F0814FF0FF30BDE8F08100BFF7
:101A4000E8AB4020ECAB4020F8B54FF400425C4BD3
:101A50005A60BFF34F8FBFF36F8F5A4B0022C3F80A
:101A600050225A6942F400325A61BFF34F8FBFF3DC
:101A70006F8FD3F88070C7F34E3607F0070004303D
:101A8000C7F3C907B7FA87FE0EF01F0EBFF34F8FDB
:101A90004FF0FF3404FA00FC06FA00F004FA0EF4EA
:101AA00007FA0EFE1D463A46734640EA0301C5F8A2
:101AB0006012013A2344B2F1FF3FF6D1013E604487
:101AC000B6F1FF3FEFD1BFF34F8F3E4B5A6942F45F
:101AD00080325A61BFF34F8FBFF36F8F3A4A3B4951
:101AE0005160A1F580715160BFF34F8FBFF36F8FCD
:101AF000D3F8902222F00102C3F89022D3F8942266
:101B000022F00102C3F89422BFF34F8FBFF36F8F0F
:101B10000A202F4CA0470B20A0470C20A0471020E4
:101B2000A0471120A0472B4B4FF480721A61C3F8D5
:101B3000A0201A63A3F580634FF400625A61C3F8D2
:101B4000A0205A66C3F890205A651A62C3F8842010
:101B5000196F21F400611967596F21F40061596709
:101B6000C3F8C020C3F8D420C3F8B0204FF400124B
:101B70001A66C3F890205A655A62C3F88020196F1C
:101B800021F400111967596F21F4001159675A6047
:101B9000114AD2F8143143F01003C2F814310F4B3C
:101BA00010221A66C3F890205A655A62C3F8802042
:101BB000196F11431967596F114359675A60F8BD7E
:101BC00050180E4000ED00E0000C0E400C08005ACA
:101BD0003D1F400000120E400080084000100E40E3
:101BE0004264B1F1C05F3AD013D8B1F1006F25D093
:101BF000B1F1805F0AD1036F13430367436F416FF5
:101C00000B4023EA02034367426070470029FBD17F
:101C10007047B1F1205F21D009D8B1F1005FF3D155
:101C2000036F13430367436F13434367ECE7B1F15B
:101C3000405F13D0B1F1605F10D0E5E710B4016FE1
:101C4000046FD34321401C4619400167436F416F25
:101C50000B402340436742605DF8044B7047036FBD
:101C6000016F0B4023EA02030367436F134343678B
:101C7000CAE7416412F0010F0DD1016612F00A0F9C
:101C80000BD0016212F0020F09D112F0080F08D038
:101C9000C0F8841005E04166F0E74162F2E7C0F861
:101CA000801041610160704710B4019C41644CB9DF
:101CB00001664BB101654AB94163016101605DF89C
:101CC000044B70474166F4E74165F4E70163F4E7CC
:101CD00070B582B0054616461C46B1F1005F14D0BF
:101CE0000AD9B1F1405F24D0B1F1605F21D0B1F1E8
:101CF000205F17D000201AE0B1F1805F05D0B1F16C
:101D0000C05F02D0B1F1006FF4D132462846114BCA
:101D1000984714F0010F02D12E66012007E06E668D
:101D2000012004E01A4631460B4B9847012002B0CF
:101D300070BD04F001030093C4F38003B1F1605F50
:101D400014BF0022012231462846044CA04701203E
:101D5000EDE700BFE11B4000731C4000A91C4000E0
:101D6000C06C7047806C70472DE9F041044688468E
:101D70000E4B9847054620460D4B9847054013D01B
:101D80000C4C04F1600603E0B4420DD010345DB198
:101D900020684045F8D161682942F5D0E36898474A
:101DA000636825EA0305EFE7BDE8F081611D4000A7
:101DB000651D400030AB402008B50A210148024BA8
:101DC000984708BD000E0E40691D400008B50B2164
:101DD0000148024B984708BD00100E40691D4000A5
:101DE00008B50C210148024B984708BD00120E406F
:101DF000691D400008B510210148024B984708BDF5
:101E000000140E40691D400008B511210148024B25
:101E1000984708BD00160E40691D4000032811D0E8
:101E2000042812D002280CBF4FF480710021084A08
:101E3000136B23F440730B431363936E13F0080F7B
:101E4000FBD070474FF44071F1E74FF40071EEE7BB
:101E500000060E40174A136B23F0700318431063FB
:101E6000936E13F0080F0AD14FF4805311498A6E14
:101E700012F0080F03D1013BF9D1012070470D4A40
:101E8000136B23F0030343F002031363936E13F009
:101E9000080F0AD14FF4805306498A6E12F0080FDA
:101EA00005D1013BF9D10120704700207047002087
:101EB000704700BF00060E40A0B90E48036A090231
:101EC00089B20D4A1A400D4B134319430162024671
:101ED000936E13F0010FFBD0064A116A084B0B43B7
:101EE0001362704703490B6A064A1A40064B1343B4
:101EF0000B62704700060E40FCFFC8FF0100370070
:101F000000003701FCFFC8FE02003701024B986E4B
:101F100000F48030704700BF00060E404FF00052C2
:101F2000014B9A62704700BF00060E40024B986E4C
:101F300000F00200704700BF00060E403F281ED888
:101F40001F280CD8114B9A6901238340934318D062
:101F5000012303FA00F00D4B186100207047203870
:101F60000A4BD3F808210123834093430BD001236C
:101F700003FA00F0054BC3F8000100207047012070
:101F80007047002070470020704700BF00060E40D9
:101F9000436913F0020F02D0C16100207047012095
:101FA0007047436913F0010F03D083690B70002061
:101FB00070470120704710B40B01934214D9C90037
:101FC0004B0803EBC202B2FBF1F2D3085C1E4FF6E2
:101FD000FE718C4201D9012017E0416841F40021D3
:101FE00041600CE0012010E0590801EBC202B2FB95
:101FF000F3F2D3085C1E4FF6FE718C42F2D8120445
:1020000002F4E0221A43026200205DF8044B70479C
:10201000084BC0F8E43000234360436283628823A6
:102020000360242303604FF4807303604FF40023A4
:10203000036070470041535570B505460C4616467F
:102040000F4B984700220F4B1A60A4B1324621680B
:1020500028460D4B9847024678B96368A1680B4340
:1020600021690B43E1680B4306490B6069680B4328
:102070006B60104670BD0122FBE70122F9E700BF4B
:1020800011204000A0AB4020B71F40004023036058
:102090007047102303607047816070474069704744
:1020A000436913F0020F04D0C1F30801C16100209D
:1020B000704701207047436913F0010F05D0836911
:1020C000C3F308030B600020704701207047FEE750
:1020D00000B583B0254B264A9A4210D0254B234A9F
:1020E0009A420CD2013B9B1A23F00303043313449E
:1020F0001F4951F8040B42F8040B9A42F9D11E4BC8
:102100001E4A9A420AD2013B9B1A23F0030304336E
:102110001344002142F8041B9342FBD1184A194B87
:1021200023F07F039360EFF31083B3FA83F35B092B
:10213000019372B6BFF35F8F0022134B1A7001999F
:10214000124A136843F470031360BFF34F8FBFF359
:102150006F8F29B101220C4B1A70BFF35F8F62B6EB
:102160000B4B98470B4B9847FEE700BF0000402001
:1021700050594000D009402018AC4020D0094020E0
:1021800000ED00E0000040001800402088ED00E075
:10219000D5264000052640003B4B1B6B03F0030394
:1021A000012B1DD083B1022B36D0374B1B6B03F0B4
:1021B0007003702B5FD0344B1A6B3449C2F3021298
:1021C0000B68D3400B607047314B5B6913F0800F95
:1021D00014BF4FF400424FF4FA422C4B1A60E4E76C
:1021E000294B1B6A13F0807F03D02A4A274B1A60C1
:1021F000DBE7294A254B1A60234B1B6A03F0700367
:10220000102B05D0202BD0D1224A204B1A60CCE7CE
:10221000224A1E4B1A60C8E71B4B1B6A13F0807FD3
:1022200016D01C4A194B1A60174B1B6B03F00303A3
:10223000022BBAD1144A916A926A1448C1F30A4136
:10224000036801FB0333D2B2B3FBF2F30360ACE7E4
:10225000114A0E4B1A600C4B1B6A03F07003102BD3
:1022600005D0202BE0D10B4A084B1A60DCE70B4A63
:10227000064B1A60D8E7054A13680949A1FB031306
:102280005B081360704700BF00060E401C00402032
:1022900010180E40001BB70000093D0000127A0024
:1022A000ABAAAAAA124B984211D9124B984213D941
:1022B000114B984214D9114B984215D9104B9842A2
:1022C00094BF4FF004220F4A0F4B1A6070474FF033
:1022D00080620D4B1A6070470C4A0B4B1A607047B6
:1022E0000B4A094B1A6070470A4A074B1A6070473D
:1022F000FF2C3101FF596202FF869303FFB3C40430
:10230000FFE0F50500050004000C0E40000100048C
:1023100000020004000300040A4B1B6853B1094B80
:102320001B681A180849914208DB1046054A1060DC
:1023300018467047054A034B1A60F0E74FF0FF302C
:10234000704700BFA4AB4020FCFF452018CE4020C2
:102350004FF0FF3070474FF400534B600020704740
:102360000120704700207047F0B583B005460C4649
:10237000002301932A4B984213D02A4B984218D03D
:10238000294B98421DD0294B9D4222D0284B9D427B
:1023900027D0284B9D422ED0274B9D4235D003B0ED
:1023A000F0BD1F46254E21463846B0470028FAD1D9
:1023B000E9E71F46214E21463846B0470028FAD1AA
:1023C000E4E71F461D4E21463846B0470028FAD1A3
:1023D000DFE71F46194E21463846B0470028FAD19C
:1023E000DAE71E46164D01A93046A8470028FAD163
:1023F000019B2370D3E71E46114D01A93046A84723
:102400000028FAD1019B2370C9E71E460C4D01A993
:102410003046A8470028FAD1019B2370BFE700BFD0
:1024200000080E40000A0E40001A0E40001C0E402C
:10243000004002400080024000C00240A31F400054
:10244000B720400070B50C462A4B984213D02A4B57
:10245000984219D0294B98421FD0294B984225D039
:10246000284B98422BD0284B984231D0274B98428A
:1024700037D0002070BD1E46254D21463046A84766
:102480000028FAD1012070BD1E46214D214630465C
:10249000A8470028FAD1012070BD1E461C4D2146D8
:1024A0003046A8470028FAD1012070BD1E46184DBD
:1024B00021463046A8470028FAD1012070BD1E46AB
:1024C000144D21463046A8470028FAD1012070BD9E
:1024D0001E46104D21463046A8470028FAD101205B
:1024E00070BD1E460B4D21463046A8470028FAD144
:1024F000012070BD00080E40000A0E40001A0E4078
:10250000001C0E40004002400080024000C002401B
:10251000911F4000A120400008B5074C4FF4807681
:10252000064D03E0266342F21070A847E36B13F4F4
:10253000807FF7D06663F6E700120E40D10F4000AF
:1025400038B540F6B830044B984742F21075024C4B
:102550002846A047FCE700BFD10F400070B586B009
:102560000E20174EB047174D174B1D60174A184BDA
:102570001A60184A184B1A604FF4E1330093C023D5
:1025800001934FF4006302930024039404940E20FB
:10259000B047124A69462846114B98472846114BC6
:1025A00098472846104B9847104E33682146986844
:1025B0000F4DA847336821465868A84706B070BD3C
:1025C0003D1F400000800240ECAB4020452440000D
:1025D000E8AB402069234000E4AB402080D1F00804
:1025E000392040008D2040009320400020004020F2
:1025F0001D29400008B5024B984700BFFDE700BF0A
:10260000C102400010B584B0204B9847204B98473A
:10261000204B98472048214B98472148214B984709
:10262000002303930293019300934FF400721E4919
:102630001E481F4CA047012802D01E48174B984740
:10264000002303930293019300934FF400721A49FD
:102650001A48174CA047012802D019480F4B984739
:10266000002303930293019300934FF400721549E2
:1026700015480F4CA047012802D01448074B984733
:10268000134B9847002004B010BD00BF4D19400007
:10269000491A40005D254000F056400025274000C3
:1026A000156D120F01004020545740004125400095
:1026B000210B40005C5740007C574000E51740006C
:1026C000805740009C57400019254000A05740000B
:1026D000150D400070B50F4E0F4D761BB61018BF8C
:1026E000002405D0013455F8043B9847A642F9D19F
:1026F0000A4E0B4D761B03F015F9B61018BF0024D7
:1027000006D0013455F8043B9847A642F9D170BD74
:1027100070BD00BF3059400030594000385940006A
:10272000305940000FB400B5074983B004AB0868C6
:1027300053F8042B8168019300F0A2FA03B05DF80E
:1027400004EB04B0704700BF20004020844641EAFB
:10275000000313F003036DD1403A41D351F8043B19
:1027600040F8043B51F8043B40F8043B51F8043B6B
:1027700040F8043B51F8043B40F8043B51F8043B5B
:1027800040F8043B51F8043B40F8043B51F8043B4B
:1027900040F8043B51F8043B40F8043B51F8043B3B
:1027A00040F8043B51F8043B40F8043B51F8043B2B
:1027B00040F8043B51F8043B40F8043B51F8043B1B
:1027C00040F8043B51F8043B40F8043B51F8043B0B
:1027D00040F8043B51F8043B40F8043B403ABDD27A
:1027E000303211D351F8043B40F8043B51F8043B1C
:1027F00040F8043B51F8043B40F8043B51F8043BDB
:1028000040F8043B103AEDD20C3205D351F8043BAA
:1028100040F8043B043AF9D2043208D0D2071CBF76
:1028200011F8013B00F8013B01D30B88038060469F
:10283000704700BF082A13D38B078DD010F0030315
:102840008AD0C3F10403D21ADB071CBF11F8013B85
:1028500000F8013B80D331F8023B20F8023B7BE7D4
:10286000043AD9D3013A11F8013B00F8013BF9D2FF
:102870000B7803704B7843708B7883706046704799
:1028800070B4860746D0541E002A41D0CAB203460F
:1028900002E014F1FF343BD303F8012B9D07F8D17C
:1028A000032C2ED9CDB245EA05250F2C45EA054566
:1028B00019D903F110022646103E0F2E42F8105C83
:1028C00042F80C5C42F8085C42F8045C02F1100229
:1028D000F2D8A4F1100222F00F0204F00F0410321B
:1028E000032C13440DD91E462246043A032A46F807
:1028F000045BFAD8221F22F003020432134404F0CE
:1029000003042CB1C9B21C4403F8011B9C42FBD147
:1029100070BC704714460346C2E700BF00290CBFD5
:10292000022200224FF4806300F000B82DE9F0434A
:10293000614C256883B004460F4690461E4615B18B
:10294000AB6B002B64D0B8F1020F06D0B8F1010FC9
:1029500000F29F80002EC0F29C80636ED80734D5B1
:102960002146284601F02AF9216B41B104F14003C8
:10297000994202D0284601F09FFA00232363B4F95C
:102980000C300022A26162601A063AD423F44A6332
:1029900023F00303B8F1020FA3811DD001AB6A46F7
:1029A0002146284601F026FDA3891843A081002E68
:1029B00032D1009E304601F095FD074600286BD0CD
:1029C000A38943F08003A38128E0A3899905C7D494
:1029D000A06D01F00BFDC3E70025616E002604F138
:1029E000430243F002030120A660CE07A3812260C8
:1029F0002261606101D498053ED5284603B0BDE848
:102A0000F0832169284601F057FAB4F90C30BDE78C
:102A1000284601F02BF996E7002FCBD0AB6B002BAB
:102A200033D0009BB4F90C2027609E421CBF42F4B7
:102A30000062A281B8F1010F04BF42F00102A2813D
:102A400092B212F00803276166610ED0D1071AD541
:102A5000656E7642002315F00105A661A36009D0DA
:102A60000025284603B0BDE8F083A360656E15F02D
:102A70000105F5D19305C0D4A06D01F0B9FC28463D
:102A800003B0BDE8F083A660F0E7284601F0EEF859
:102A9000C7E74FF0FF35B0E7DDF80090B14504D04F
:102AA000484601F01FFD074620B9B4F90C304FF03D
:102AB000FF3592E74E4683E72000402000000000EB
:102AC00090F800F06DE9024520F007016FF0000C6E
:102AD00010F0070491F820F040F049804FF0000416
:102AE0006FF00700D1E9002391F840F000F10800F1
:102AF00082FA4CF2A4FA8CF283FA4CF3A2FA8CF329
:102B00004BBBD1E9022382FA4CF200F10800A4FA8F
:102B10008CF283FA4CF3A2FA8CF3E3B9D1E90423E3
:102B200082FA4CF200F10800A4FA8CF283FA4CF31A
:102B3000A2FA8CF37BB9D1E9062301F1200182FAD4
:102B40004CF200F10800A4FA8CF283FA4CF3A2FADA
:102B50008CF3002BC6D0002A04BF04301A4612BAE8
:102B6000B2FA82F2FDE8024500EBD2007047D1E9EB
:102B7000002304F00305C4F100004FEAC50514F07A
:102B8000040F91F840F00CFA05F562EA05021CBF4B
:102B900063EA050362464FF00004A9E740EA010337
:102BA00013F0030F70B4034624D0A2B10C781C704C
:102BB000013A013301313CB16AB111F8014B03F81C
:102BC000014B013A002CF7D12AB11A44002103F835
:102BD000011B9A42FBD170BC70470E4651F8045B52
:102BE000A5F1013424EA050414F0803F05D143F82F
:102BF000045B043A032AF0D8D7E73146D6E700BF92
:102C00002DE9F84F4B6E9C0493462FD593681268BC
:102C100053B30E46074602F1080919E920045FEA9A
:102C20009A0817D0043D002401E0A04510D0324698
:102C300055F8041F384601F0BBF8431C04F10104A9
:102C4000F3D10023CBF80830CBF80430BDE8F88F7F
:102C5000DBF808302AF0030AA3EB0A03CBF80830AC
:102C600009F10809002BD8D10020EAE701F00AFA9F
:102C70000023CBF80830CBF80430BDE8F88F00BF54
:102C80002DE9F04FADB01D468B4690460793069058
:102C900018B1836B002B00F0F380DBF86430BBF9D4
:102CA0000C00DF0781B202D48E0540F1FC808C0459
:102CB0000AD4DBF8643040F4005123F40053ABF83D
:102CC0000C10CBF8643089B2080740F1B380DBF810
:102CD0001030002B00F0AE8001F01A030A2B00F038
:102CE000B58000230DF170090B931193109303939A
:102CF000CDF83C90CA46CDF810B098F80030444664
:102D0000FBB1252B02D11CE0252B03D014F8013F89
:102D1000002BF9D1A4EB08059DB1109B119ACAF8BC
:102D2000008001332A44072BCAF8045011921093F3
:102D30007ADD002A40F0B084039B10922B44CA46EF
:102D400003932378002B00F0E08300204FF0000372
:102D50008DF8373004F101086278054606460346CF
:102D60004FF0FF3408F10108A2F12001582900F2C8
:102D7000DE82DFE811F02102DC02DC022902DC0243
:102D8000DC02DC02DC02DC02DC0289029502DC02ED
:102D9000A200BD02DC029F01A401A401A401A401C0
:102DA000A401A401A401A401A401DC02DC02DC0250
:102DB000DC02DC02DC02DC02DC02DC02DC02B2014E
:102DC000DC02DC02DC02DC02DC02DC02DC02DC0213
:102DD000DC02DC029701DC02DC02DC02DC02DC0249
:102DE0009B01DC02DC025302DC02DC02DC02DC02BE
:102DF000DC02DC02DC02DC02DC02DC025A021B0226
:102E0000DC02DC02DC026E021B02DC02DC0273026A
:102E1000DC02F50182010902D702DC029A02DC021F
:102E2000A700DC02DC022E020AF1080A039B2B44F5
:102E3000039386E75946069800F0ACFD18BBBBF833
:102E40000C1001F01A030A2B7FF44BAFBBF90E30C4
:102E5000002BFFF646AFDBF86430DB0705D48F05A7
:102E600003D4DBF8580001F0C3FA2B46424659461A
:102E7000069800F04DFD039003982DB0BDE8F08F4B
:102E800000F0F4FE09E7DBF86430D90704D4BBF89E
:102E90000C309A0540F1AA844FF0FF330393039856
:102EA0002DB0BDE8F08FDBF8580001F09FFABBF9B8
:102EB0000C0081B2FBE67642079243F0040398F8D7
:102EC00000204FE708969E0600F150840799DD0622
:102ED0000A4600F1EF83580640F1EC830E88043176
:102EE0000027012207914FF000018DF837100025CF
:102EF000611C00F0168123F08001029156EA07015F
:102F000040F01481002C40F05C83002A40F0B7832D
:102F100013F00103059300F057840DF1B00B30233B
:102F20000BF8413D059BA342B8BF234601930DB169
:102F300001330193029B13F00203099302D0019B1A
:102F400002330193029B13F084030A9340F017822B
:102F5000089B019A9D1A002D40F31182102D40F319
:102F60009084109B119AC44ED6461027A24619464B
:102F7000069C07E001F1020C0EF1080E0146103D1F
:102F8000102D11DD481C1032072811928EE8C00068
:102F90001090EFDD002A40F0E481103D102D114625
:102FA0004FF0010CCE46EDDC54466146F2462A4411
:102FB00007291192CAF80060CAF80450109100F372
:102FC000EC829DF837500AF1080A481C002D40F0A9
:102FD000DE81099B002B00F0F88102320EA902234A
:102FE0000728119210908AE80A0040F3EA81002A2B
:102FF00040F08C830A9B802B4FF001001146CA469B
:1030000040F0E781089B019D5E1B002E40F3E181AB
:10301000102E9A4D40F35084D4461027A246069CA9
:1030200007E001F1020E0CF1080C0146103E102ED3
:1030300011DD481C1032072811928CE8A000109076
:10304000EFDD002A40F09D82103E102E4FF0010E61
:103050001146CC46EDDC5446E2463244BEF1070F41
:1030600011928AE86000CDF840E000F369830AF12C
:10307000080A0EF101007146ABE1089613F0200238
:1030800040F08C8313F0100140F01A8313F04002DB
:1030900000F0168307980A46014604310688079116
:1030A000002720E7089643F01003E7E7089643F06F
:1030B000100308E743F0800398F8002052E6A2F1DD
:1030C0003001002618F8012B06EB860601EB4606B8
:1030D000A2F130010929F5D946E60896002840F00A
:1030E000088443F010039E0600F14C83DD0600F1D6
:1030F000F382580640F1F082079DB5F900602A4638
:10310000F7170432304639460792002871F1000261
:10311000C0F25D83611C9DF837504FF001027FF4CF
:10312000EAAE56EA070100F04D820293012A00F050
:103130008C82022A40F05C820B98CB46330906F061
:103140000F0143EA07733A091E461746435C0BF822
:10315000013D56EA0703F1D1A9EB0B030593E1E624
:10316000002840F0C083990600F16783DA0600F179
:10317000F1805B0640F1EE80079A136804320792F3
:10318000BDF80C201A80B8E507983D4A08960B92C6
:1031900006687822302104308DF8392043F002038C
:1031A000079000278DF8381002229CE60896002828
:1031B00099D08DF8375096E798F80020002D7FF4CD
:1031C000D1AD01202025CDE543F0010398F8002082
:1031D000C8E50896002840F0938329490B919F0683
:1031E00000F1E8820798DE06014600F170825D0674
:1031F00040F16D820431068807910027D80740F11D
:10320000228256EA070100F01E8230218DF8392013
:1032100043F002038DF83810022264E60896002875
:1032200040F06B8317490B91D9E7079908960A6814
:103230008DF848204FF000000A468DF83700043220
:1032400001200190079205900DF1480B0293002494
:1032500070E643F0400398F8002083E598F80020DA
:103260006C2A03BF98F8012043F0200308F10108FD
:1032700043F0100376E500BFF057400000584000CF
:10328000D4574000C057400007990E680A46002EE8
:1032900002F10402FFF60FAE079298F8002061E5F4
:1032A00098F8002001202B255CE507990896D1F8B5
:1032B00000B04FF000028DF837200E1DBBF1000F5B
:1032C00000F0E582671C00F0C482224600215846C7
:1032D000019301F0D5FB019B002800F0E582A0EBF3
:1032E0000B020592079602939DF83750002419E6C9
:1032F00098F800202A2A08F1010700F0E982A2F1DB
:1033000030010929B8464FF000043FF62DAD18F8FA
:10331000012B04EB840401EB4404A2F130010929E0
:10332000F5D921E543F0200398F800201AE5089626
:10333000002840F0DB82002A00F0E78001218DF8B0
:1033400048204FF0000201918DF8372005910DF1D2
:10335000480B7BE7079A136804320792039A1A60B6
:10336000CBE40FAA04992046FFF74AFC002840F05E
:1033700039811099119A01F1010CCE46FFE510999F
:10338000119A481C9DF83750002D3FF422AE0132AF
:103390000DF137050121072811921090CAF800504D
:1033A000CAF8041040F30881002A40F0BC81099B50
:1033B000002B3FF41FAE0EAB022208461C931D9259
:1033C000CA4601460AF1080A01300A9B802B3FF4E5
:1033D00019AE059BE41A002C2EDD102CB34D1EDD1A
:1033E000D6461026069FDDF810A006E0881C0EF1D8
:1033F000080E1946103C102C10DD4B1C1032072B08
:1034000011928EE860001093F0DD002A65D1103C27
:10341000102C4FF001001146CE46EEDCF24622445D
:1034200007281192CAF80050CAF80440109000F31F
:1034300085800AF1080A01300599CAF800B00A44EB
:1034400007281192CAF80410109040F38280002AD5
:1034500040F01881029B1092580735D5089B0199BE
:103460005C1A002C40F3E780CA46102C40F3188207
:1034700010998F4E069FDDF810B0102506E0881CCD
:103480000AF1080A1946103C102C11DD4B1C1032B1
:10349000072B1192CAF80060CAF804501093EEDDB1
:1034A00042BB103C102C4FF001001146CA46EDDC27
:1034B000224407281192CAF80060CAF8044010900C
:1034C00051DD002A40F09B81039B089A01998A42B2
:1034D000ACBF9B185B1803934EE00FAA51463846C9
:1034E000FFF78EFB002840F03F811099119A481C8D
:1034F000CE467FE70FAA59463846FFF781FB60B9F1
:103500001099119A481CCA46BDE7119BDDF810B00E
:10351000002B40F0D48100231093DBF8643013F0CB
:10352000010FBBF80C3002D19A0540F1DE805B063A
:103530003FF5B2AC03982DB0BDE8F08F002A40F003
:103540000681059A1D9201231192CDF870B0109357
:10355000CA460AF1080A029B590704D5089B01993B
:103560005C1A002C81DC039B089901988142ACBF56
:103570005B181B18039372BB00231093CA46FFF716
:10358000BCBB0FAA04992046FFF73AFB50BB109929
:10359000119A01F1010ECC4648E5002A40F0408125
:1035A0009DF83710002900F01B8101220DF1370131
:1035B00010461D921C91CA4601460AF1080A0130C4
:1035C00007E5029B012A00F09880022A0DD10293A0
:1035D00000260027B0E50FAA04990698FFF710FB14
:1035E0000028C9D0DDF810B097E702930026002725
:1035F000494600E05946F20842EA4772F80806F0E8
:10360000070307461646303356EA070201F8013C25
:1036100001F1FF3BEED1029AD6077FF59DAD302B2D
:103620003FF49AAD023930230BF8013CA9EB0103BA
:1036300005938B4676E4039B089A8A42ACBF9B189D
:103640005B18039398E702224DE4002F08BF0A2E6F
:1036500052D3CB46304639460A22002301F09AFE67
:1036600030320BF8012D3046394600230A2201F092
:1036700091FE06460F4656EA0703EBD16CE505942A
:10368000CB464FE40FAA04990698FFF7B9FA002831
:10369000A8D1119ACA465EE70FAA04990698FFF7C7
:1036A000AFFA00289ED1CA46FFF7C0BB00584000C1
:1036B000F05740000431166807910122002712E4F8
:1036C0000798014604310668079100270BE40E684D
:1036D00004310791002791E507990E680A46F7170C
:1036E00004320792304639460FE5DBF8580000F007
:1036F0007FFEBBF80C301AE7029B02930DF1B00B72
:10370000303601230BF8416D05930BE40FAA0499A1
:103710000698FFF775FA00287FF464AF1099119AA4
:10372000481CCA4651E60FAA04990698FFF768FAA2
:1037300000287FF457AF1099119A481CCA4648E4F4
:10374000002A40F0918001201146CA4641E60FAAA6
:1037500004990698FFF754FA00287FF443AF1098B5
:10376000119A0130CA4667E6D346D6E6079E073669
:1037700026F0070202F10801D2E900670791012251
:10378000FFF7B1BB079E073626F00706D6E9000112
:1037900006F10802079206460F46B6E4079E073672
:1037A00026F0070202F10801D2E900670791002222
:1037B000FFF799BB079E073626F0070101F10800C5
:1037C0000790D1E9006719E5CB46FFF7ABBB2D2584
:1037D000764267EB47078DF837500122FFF788BB29
:1037E000099BB3B911460120CA46F2E5DBF858003F
:1037F00000F0FEFD4FF0FF330393FFF750BB0FAA1D
:1038000004990698FFF7FCF900287FF4EBAE119AB3
:10381000A9E60EAB02221C931D920120CA46D0E5F8
:103820000FAA04990698FFF7EBF900287FF4DAAEA7
:103830001099119A481CCA46A4E5079A039913687F
:10384000CD170846043229460792C3E90001FFF765
:1038500054BA584607960293FFF732F900240590B0
:103860009DF83750FFF75EBB0FAA04990698FFF743
:10387000C7F900287FF4B6AE1099119A481CCA46C1
:10388000A7E51099119A204E0131FFF790BB062C45
:1038900028BF0624059407960194DFF870B0D5E49C
:1038A0001098194E013003E605949DF8375007969D
:1038B00002930446FFF736BB8646FFF7CEBB069859
:1038C0000FAA5946FFF79CF900283FF424AE24E6DE
:1038D000079998F801200C68043144EAE474B8466A
:1038E0000791FFF73FBA8DF837503CE48DF8375019
:1038F00021E58DF83750FFF7F4BB8DF8375091E490
:103900008DF8375069E400BFF0574000E857400099
:103910002DE9F0410C46ADF58D6D8989666EE5891E
:10392000199621F002010646E069ADF80C10174621
:103930004FF48061626AADF80E5098461AAD0023CC
:10394000079016A809920693009504950291059197
:1039500000F048FD43463A4669463046FFF790F985
:10396000051E07DB3046694600F028F9002818BF1D
:103970004FF0FF35BDF80C305B0603D5A38943F04B
:103980004003A381169800F02FFD28460DF58D6D9C
:10399000BDE8F08138B5304B1B6805460C4613B1C5
:1039A0009A6B002A38D0B4F90C2093B218070CD5C2
:1039B0002069A8B113F001021ED0636900225B42A6
:1039C000A361A260F0B1002038BDD9063CD55807EC
:1039D00026D4206942F00803A3819BB20028E9D1D4
:1039E00003F42072B2F5007FE4D02846214600F0AF
:1039F0002FFDA3892069DDE7990758BF6269A2609E
:103A00000028E0D1B4F90C301A06DDD543F04003AC
:103A1000A3814FF0FF3038BD184600F027F9C2E708
:103A2000216B51B104F14003994204D0284600F0C3
:103A300043FAB4F90C200023236300232069636058
:103A400022F024022060C5E742F0400209232B60E7
:103A50004FF0FF30A28138BD20004020024B13B14F
:103A6000024800F005B8704700000000DD3C40004F
:103A7000002301461A46184601F064BBB1F90C3028
:103A80009AB22DE9F0410D46110780463AD46A6892
:103A900043F40063002AAB816FDDAC6A002C49D08F
:103AA00000229BB2D8F80060C8F8002013F48052BE
:103AB00067D02A6D5F0705D569682B6B521A0BB169
:103AC000EB6BD21A0023E9694046A047441C3CD066
:103AD000B5F90C302A692A6023F400630022AB8117
:103AE000DB046A6047D4296BC8F8006011B305F1A4
:103AF0004003994202D0404600F0DEF900202863DE
:103B0000BDE8F0812E69AEB12C682E6091070CBF24
:103B10006B690023A41BAB600AE0234632466F6A40
:103B2000E9694046B8470028A4EB0004064404DDD8
:103B3000002CF2DC0020BDE8F081AB8943F04003AB
:103B4000AB814FF0FF30BDE8F081D8F800401D2C6C
:103B5000F3D8194BE340DB4313F00103EDD1B5F982
:103B60000C206B6022F400632969AB81DA042960C0
:103B7000B9D5002CB7D12865B5E7EA6B002A8CDCF3
:103B8000D8E70123E9694046A047431C024602D01A
:103B9000AB89AC6A8EE7D8F80030002BF8D01D2B2B
:103BA00001D0162B02D1C8F80060C3E7AB8943F0FF
:103BB0004003AB81BDE8F0810100402038B50D46DF
:103BC000044608B1836BBBB1B5F90C0088B16B6ECC
:103BD000DB0701D4810517D520462946FFF74EFFA4
:103BE0006B6EDA07044602D4AB899B0507D52046E5
:103BF00038BD0446204638BD00F038F8E4E7A86D2B
:103C000000F0F6FB204638BDA86D00F0EFFBE3E7BF
:103C1000014900F0AFBB00BF2D52400010B500239A
:103C200004468181C281036043608360436603610F
:103C300043618361194608225C30FEF721FE074884
:103C40000749084A084B2062E4616162A262E362AC
:103C500004F15800BDE8104000F0C4BB714F4000B3
:103C6000954F4000D14F4000F14F400010B5044641
:103C7000124800F0BBFBA26BD2B904F53B731048AD
:103C8000C4F8E8320321C4F8E022E063C4F8E41287
:103C900060680421FFF7C2FF01220921A068FFF735
:103CA000BDFF02221221E068FFF7B8FF0123A363E2
:103CB0000248BDE8104000F09BBB00BFFCAB4020B9
:103CC000113C4000014800F091BB00BF10AC402007
:103CD000014800F08DBB00BF10AC402038B50A4C45
:103CE0000A4D641BA4100AD004F18043013B05EB8C
:103CF0008305013C55F804399847002CF9D1BDE8FB
:103D0000384001F019BE00BF4859400044594000F6
:103D10002DE9F04782B080468946144600F054FBF6
:103D2000012836D04A4604F15C0301A9404601F05F
:103D3000BBF9421C064625D0A8B39DF804E0002537
:103D40000DF1040A09E023685A1C226083F800E0A0
:103D50000135B54227D215F80AE0A368013B002BD4
:103D6000A360F0DAA769BB4271462246404602DBF7
:103D7000BEF10A0FE7D101F03FF9431CE8D102B0D0
:103D8000BDE8F087A38943F04003A38102B0BDE8FA
:103D9000F08709F1FF33FE2BC4D85FFA89FE06468F
:103DA0008DF804E0CBE7484602B0BDE8F08700BFDD
:103DB00030B5536E13F0010FB2F90C30144683B0D6
:103DC00005469AB201D190051CD5900406D4626EC6
:103DD00043F4005342F40052A3816266284622460F
:103DE000FFF796FF636EDA07054602D4A3899B05A9
:103DF00002D5284603B030BDA06D00F0F9FA284680
:103E000003B030BDA06D019100F0F0FAB4F90C30B0
:103E100001999AB2D9E700BFF8B5244F0C4606467F
:103E200000F0E2FEBB685D68C4F57E610F3125F0ED
:103E30000305294421F47F6121F00F01A1F580548D
:103E4000B4F5805F07DB0021304601F07FF8BB68E6
:103E50002B44984204D0304600F0CCFE0020F8BD40
:103E60006142304601F072F801300DD0104BBA6853
:103E700019682D1B45F001053046091B5560196076
:103E800000F0B8FE0120F8BD0021304601F05EF8D8
:103E9000BA68831A0F2BDEDD064C0549246843F00F
:103EA0000103001B53600860D5E700BFC005402038
:103EB000A8AB4020C8094020002944D02DE9F0419A
:103EC0000D46804600F090FE55F8047C694927F0C5
:103ED0000103A5F10804E2188E685068B24220F090
:103EE00003005ED0FE0750600BD455F8087CE41B3D
:103EF00001F1080EA56875453B446DD0E768EF6099
:103F0000BD6015186D68ED073ED543F00102626093
:103F1000E350B3F5007F17D2DB08581C9A104D68A8
:103F200051F83070A7600123934001EBC0022B438E
:103F3000083AE2604B6041F83040FC604046BDE822
:103F4000F04100F057BE70475A0A042A52D89A0925
:103F500002F13907FF0002F13805C819CA590838BB
:103F600090424FD0516821F003018B4232D29268C7
:103F70009042F7D1C368A060E3609C60C460404693
:103F8000BDE8F04100F036BE95683B4FBD420344AA
:103F900040D0D068E86043F0010285606260E35081
:103FA000B7E7FF07034407D455F8082CA41A1344B5
:103FB000A068E268C2609060304A126843F0010075
:103FC000934260608C60B9D32D4B40461968FFF76F
:103FD00023FFB3E71046CDE711184968C90744D459
:103FE0009168D268CA60034443F001009160606048
:103FF000E350A3E7142A16D802F15C07FF0002F190
:104000005B05AAE7AA1001234D6893402B434B6040
:104010000346B0E743F001024C610C61E560A56026
:104020006260E3508AE7542A06D81A0B02F16F0740
:10403000FF0002F16E0590E7B2F5AA7F06D8DA0B11
:1040400002F17807FF0002F1770586E740F254504D
:10405000824206D89A0C02F17D07FF0002F17C052E
:104060007BE74FF47E777E2577E743F001016160BF
:10407000136063E7C0054020C8054020CC094020FC
:10408000D8AB40209368002B73D02DE9F04F8B897B
:1040900083B00C4619070090164626D5226922B334
:1040A00013F0020035682CD04FF00009B04FC8461D
:1040B000B246B84543464A4628BF3B460098B8F149
:1040C000000F50D0E169666AB047002858DDDAF881
:1040D00008301B1A8144A8EB0008CAF80830002BEE
:1040E000E7D1002003B0BDE8F08F21460098FFF72C
:1040F00051FC002840F03381A389356813F0020099
:10410000D2D113F0010945D14F46019637B39A0534
:10411000D4F8088040F183804745C346C0F0AB80A7
:1041200013F4906F40F0AC802068BA465A46494676
:1041300000F0F6FCA2682368A2EB08025B44A260D0
:104140002360019A9368A3EB0A03D144A7EB0A0703
:104150009360002BC5D0A389002FD8D1D5F800904B
:104160006F680835D2E7D5F80090D5F80480083597
:104170009FE70020704721460098FFF71FFD70B3AE
:10418000B4F90C3043F040034FF0FF30A38103B08B
:10419000BDE8F08F814633464E46A8469A464D46C6
:1041A0004EB380B3206823696269B145CB4628BF0E
:1041B000B34698425F4604D9A36813449B4500F375
:1041C000A68093454BDB1346676AE16900982A464F
:1041D000B847071ED4DDB9EB0709CCD00120DAF8C7
:1041E0000830DB1B3D44F61BCAF80830002B3FF4B7
:1041F00078AF002ED5D108F1080313E96000984686
:104200000833002EF9D032460A21284600F038FC47
:10421000002800F0A1800130A0EB0509C2E720686A
:104220002369984202D863699F425DD2B84528BF8E
:10423000B8464246494600F073FCA3682268A3EBE7
:1042400008034244A36022600BB1C24679E72146CD
:104250000098FFF7B3FC002892D1C24671E75A4696
:10426000294600F05DFCA2682368A2EB0B025B44C8
:10427000A2602360AFE72068B846BA46BB4655E760
:1042800062692068216902EB4208A0EB010A08EB91
:10429000D8780AF101004FEA6808384440454246A0
:1042A00084BF804642465B0544D51146009800F025
:1042B00021F98346002855D052462169FEF746FA77
:1042C000A38923F4906343F08003A3810BEB0A00DE
:1042D000A8EB0A03C4F810B0C4F814802060A360EF
:1042E000B846BA46BB4621E76FF00041B94228BF45
:1042F00039464A4691FBF3F10098666A03FB01F3E5
:10430000E169B047B0F1000A3FF71BAF38E71A4642
:104310002946019300F004FC2268019B00981A448E
:1043200022602146FFF74AFC019B00287FF428AF5A
:104330001F4650E7009800F063FC83460028C5D173
:10434000009D21692846FFF7B7FDB4F90C300C2217
:1043500023F080032A6015E706F1010922E74FF0F8
:10436000FF30BFE6009A0C231360B4F90C3009E764
:1043700000FCFF7F2DE9F84310F538771FD0884601
:1043800006464FF000097D68BC68013D11D4A38941
:10439000012B05F1FF3508D9B4F90E300133214660
:1043A000304602D0C04749EA00096B1C04F168049A
:1043B000EDD13F68002FE6D14846BDE8F883B94605
:1043C0004846BDE8F88300BF044B054A1B685B6B99
:1043D000002B08BF134693F82801704720004020A7
:1043E00054044020704700BF704700BF704700BFB3
:1043F000704700BF70B50C46B1F90E10002990B09F
:1044000015461E4614DB01AA00F072FF00280FDBE0
:10441000029A02F47042A2F50052B2FA82F25209F4
:104420004FF480634FF4006032602B6010B070BDB9
:10443000A289002312F08000336004D04022184685
:104440002A6010B070BD4FF480632B6010B070BD57
:104450008A8992070B4606D501F1430201211A60B1
:104460001A6159617047F0B583B001AB6A460C46DA
:104470000646FFF7BFFF00990546304600F03AF8C0
:10448000B4F90C30D8B1019A154F0099F76343F095
:104490008003A3812060206161611AB92B43A3814D
:1044A00003B0F0BD3046B4F90E1000F035FFA0B1F6
:1044B000A38923F0030343F001031BB2EEE79A053F
:1044C000EED423F0030304F1430243F0020301217D
:1044D000A381226022616161E2E7B4F90C30DDE77B
:1044E000113C4000024B0146186800F003B800BFC1
:1044F000200040202DE9F04F01F10B06162E83B06D
:10450000054640F29E8036F0070600F1BD80B142BC
:1045100000F2BA8000F068FBB6F5FC7FC0F0938231
:10452000730A00F0B880042B00F27981B30903F11B
:10453000390003F1380EC300BF4F3B44A3F108011B
:104540005C68A14206D10CE0002A80F2AA80E468EF
:10455000A14206D0636823F003039A1B0F2AF3DD00
:1045600070463C69DFF8E4E2744500F0AB816368B3
:1045700023F003039A1B0F2A00F39081002AC7F847
:1045800014E0C7F810E080F29D80B3F5007F80F062
:104590006181DB0803F1010C99107A6857F83C80BF
:1045A000C4F8088001238B4007EBCC011343083982
:1045B000E1607B6047F83C40C8F80C408210012461
:1045C00094409C4200F28B801C4206D120F00300F4
:1045D00064001C4200F10400FAD007EBC009CC468D
:1045E0008046DCF80C309C4507D16DE1002A80F252
:1045F0007B81DB689C4500F06781596821F00301ED
:104600008A1B0F2AF2DDD3F80CC0D3F80880009380
:104610009C19284646F0010642F001055E60C8F884
:104620000CC0CCF808807C613C61C4F80CE0C4F894
:1046300008E065605A5000F0DDFA009B03F10804C1
:104640001EE0102920D800F0CFFA102618230220EF
:10465000794F3B44A3F108025C68944200F03D812D
:104660006368E168A66823F00303234428465A6878
:10467000F16042F001028E605A6000F0BBFA08342B
:10468000204603B0BDE8F08F00240C2320462B60A9
:1046900003B0BDE8F08F40204FF400734FF03F0EA1
:1046A0004AE72344E1685A68A66842F00102F160D3
:1046B00028468E605A6000F09DFA0834204603B008
:1046C000BDE8F08F234428465A6842F001025A6040
:1046D00000F090FA0834204603B0BDE8F08FBC68C3
:1046E000636823F00308B04504D3A8EB06030F2B3F
:1046F00000F38580DFF85891504BD9F800201B68F3
:104700000132334404EB080A00F0558103F580536D
:104710000F3323F47F6B2BF00F0B5946284600F024
:1047200015FC411C024600F0FC80824500F2F78037
:10473000434B19685944196000F04D81D9F80000C5
:1047400001301BBFA2EB0A0A5144C9F800201960CE
:1047500012F0070100F01581C1F10800C1F5805188
:104760000244083102EB0B09C9F30B09A1EB09095B
:10477000494628460193009200F0E8FB431C9DE85F
:104780000C0000F04381801A484440F00100196891
:10479000BA604944BC425060196017D0B8F10F0F9D
:1047A00040F2FB806068A8F10C0222F0070204EBE3
:1047B000020E00F001004FF0050C10430F2A60605C
:1047C000CEF804C0CEF808C000F217811D4BBC68BB
:1047D0001A68914288BF19601B4B1A68914262683F
:1047E00088BF196022F003029642A2EB060301D8AB
:1047F0000F2B04DC284600F0FDF9002440E7A21945
:1048000043F0010346F0010666602846BA60536033
:1048100000F0F0F90834204603B0BDE8F08F142B07
:1048200071D9542B00F2A380330B03F16F0003F115
:104830006E0EC30080E600BFC0054020D8AB40200C
:10484000A8AB4020D0AB4020D4AB4020C8054020CE
:10485000C80940205A0A042A5BD9142A00F2AE8003
:1048600002F15C01C9005B3207EB010C7958ACF135
:10487000080C8C4500F088804A6822F003029342BD
:1048800073D289688C45F7D1DCF80C207B68E26034
:10489000C4F808C09460CCF80C408FE6A11946F02B
:1048A000010C42F00106C4F804C028467961396160
:1048B000C1F80CE0C1F808E04E60E25000F09AF94F
:1048C0000834DDE67B6879E608F1010818F0030F8B
:1048D0000CF1080C7FF485AE2DE0DC68A34208BF24
:1048E00002303FF43EAEBBE619441C464A68DB6822
:1048F00054F8086F42F001024A602846F3609E6057
:1049000000F078F9BCE603F15C0003F15B0EC30034
:1049100012E69A0902F13901C9003832A4E7BC4213
:1049200054D0BC68626822F003025DE759F8083988
:10493000994540F0868010F0030F00F1FF30F5D16B
:104940007B6823EA04037B6064009C423FF6C7AEA9
:10495000002C3FF4C4AE1C4240467FF43EAE6400DF
:104960001C4200F10400FAD037E68C468CE7B3F520
:10497000AA7F15D8F30B03F1780003F1770EC3007B
:10498000DAE54FF48051EDE67B689210012101FADF
:1049900002F213437B60624679E70123536029E703
:1049A00040F25452934222D8B30C03F17D0003F13C
:1049B0007C0EC300C0E503F1100BAEE6542A29D8E3
:1049C0001A0B02F16F01C9006E324DE7204B1968D6
:1049D00059441960B2E6CAF30B0000287FF4AEAE6A
:1049E00008EB0B03BA6843F001035360EEE67F2047
:1049F0004FF47E734FF07E0E9EE504F108012846C9
:104A00000093FFF759FA009B1968DFE601204FF089
:104A10000009BCE6B2F5AA7F05D8DA0B02F17801ED
:104A2000C900773220E740F254518A4205D89A0CE7
:104A300002F17D01C9007C3216E74FF47E717E22BF
:104A400012E77B6880E7F00806F1080300E600BF84
:104A5000A8AB402082B049B15AB16BB113780B605A
:104A60001278101C18BF012002B0704701A9002A5B
:104A7000F3D1104602B070476FF00100F4E700BFB9
:104A800001F0FF01102A2BDB10F0070F08D010F8FF
:104A9000013B013A8B422DD010F0070F42B3F6D103
:104AA000F0B441EA012141EA014122F007047FF01C
:104AB00000070023F0E80256083C85EA010586EA73
:104AC000010685FA47F5A3FA87F586FA47F6A5FAAF
:104AD00087F68EB9EED1F0BC01F0FF0102F00702BB
:104AE00032B110F8013B013A83EA010313B1F8D166
:104AF0000020704701387047002D06BF3546033847
:104B0000073815F0010F07D1013015F4807F02BF7F
:104B1000013015F4C03F0130F0BC0138704700BFD0
:104B20008842F0B50DD98B1898420AD28418002A11
:104B300051D0224613F8014D02F8014D9942F9D1A6
:104B4000F0BD0F2A48D941EA00039B0746D100F186
:104B5000100401F11003154653F8106C44F8106C62
:104B600053F80C6C44F80C6C53F8086C44F8086C5F
:104B7000103D53F8046C44F8046C0F2D03F110033E
:104B800004F11004E8D8A2F1100323F00F0302F09F
:104B90000F0E1033BEF1030F1944034421D91E1F19
:104BA0000D467446043C55F8047B46F8047F032CFC
:104BB000F8D8AEF1040424F003040434214423445F
:104BC00002F0030262B1013B0A4411F8014B03F801
:104BD000014F8A42F9D1F0BD0346F3E70346F2E7FD
:104BE000F0BD7246EEE700BF0148FFF7FFBB00BF14
:104BF00000AC40200148FFF7FBBB00BF00AC4020E9
:104C0000002900F095802DE9F04F0D46164683B03F
:104C1000804606F10B07FFF7E7FF55F804EC162F67
:104C20002EF00304A5F108093CD810221746BE4215
:104C30003DD8944243DAC44B996809EB040088429A
:104C400000F0B480436823F0010101444968C907BA
:104C50004CD51EF0010F00F09B8031464046FFF717
:104C600049FC064600283AD055F8043C23F00103DD
:104C70004B44A0F108029A4200F02181221F242A0D
:104C800000F20781132A00F2DB8003462A461168EE
:104C900019605168596092689A6029464046FFF74A
:104CA0000BF91CE027F00707002F3A46BFDA002671
:104CB0000C233046C8F8003003B0BDE8F08F2E4614
:104CC000E31B0F2B1ED8D9F8043003F00103234354
:104CD0004C44C9F80430636843F001036360404604
:104CE000FFF788FF304603B0BDE8F08F23F00303E1
:104CF000E11891421FDBC36882682E46D3600C46E0
:104D00009A60DDE7D9F8042009EB070102F00102FF
:104D10004C4443F001031743C9F804704B606368C7
:104D200043F00103083163604046FFF7C5F8D6E75A
:104D30001146FFF7DFBB1EF0010F8ED155F8081C9E
:104D4000A9EB010ADAF8041021F003010B44234413
:104D5000934225DBC26881685646CA609160DAF8E2
:104D60000C1056F8080F221F242AC160886000F238
:104D70009480132A6FD92968CAF808106968CAF89C
:104D80000C101B2A00F2A28008350AF1100263E021
:104D900055F8083CA9EB030ADAF8041021F00301E6
:104DA00063189342FFF659AF5646D8E7416821F0A1
:104DB000030BA34407F11000834556DA1EF0010FE0
:104DC0007FF44BAF55F8081CA9EB010ADAF8041080
:104DD00021F003018B445845E2DC5646DAF80C100A
:104DE00056F8080F221F242AC160886000F28F80C5
:104DF000132A40F28A802968CAF808106968CAF83C
:104E00000C101B2A00F28A8008350AF1100229686A
:104E1000116069685160A96891600AEB0701ABEB0A
:104E2000070242F0010299604A60DAF8043003F0A8
:104E300001031F434046CAF80470FFF7DBFE51E749
:104E40002B6803606B6843601B2A2DD800F10803B0
:104E500005F108021BE73246296811606968516054
:104E6000A96891601C46D1462AE709EB0701ABEB24
:104E7000070B4BF0010299604A6055F8043C03F0BF
:104E800001031F43404645F8047CFFF7B3FE2E465E
:104E900028E72946FFF744FEFFE6294630461C4630
:104EA000D146FFF73DFE0BE7AB688360EB68C3605C
:104EB000242A17D000F1100305F11002E7E650F89C
:104EC000043C23F003031C442E46F9E6A968CAF803
:104ED0001010E968CAF81410242A0CD010350AF111
:104EE0001802B9E72B6903616B69436105F1180288
:104EF00000F11803CBE62A69CAF818206A69CAF8D3
:104F00001C2018350AF12002A6E732467FE7294621
:104F100030460193FFF704FE019B7EE7A968CAF8BB
:104F20001010E968CAF81410242A03D010350AF1C9
:104F300018026CE72A69CAF818206A69CAF81C20A6
:104F400018350AF1200262E7C005402038B5074C49
:104F50000023054608462360FDF7DEF9431C00D018
:104F600038BD2368002BFBD02B6038BD14AC40202B
:104F700010B50C46B1F90E1000F0F6F9002803DB6D
:104F8000236D0344236510BDA38923F48053A381BB
:104F900010BD00BF2DE9F0411646B1F90C201F46A7
:104FA000D3050C46054607D500220223B1F90E10A1
:104FB00000F0C4F9B4F90C20B4F90E1022F48052B8
:104FC000A2813B4632462846BDE8F04100F0A4B835
:104FD00010B50C46B1F90E1000F0B0F9A389421CCF
:104FE0000EBF23F4805343F480532065A38110BD8A
:104FF000B1F90E1000F008B9F8B50D461446064692
:1050000010B1836B002B4BD0B4F90C20A369A360C3
:1050100091B2080739D52369002B36D0EDB2890447
:105020002F4615D522686169D31A8B421CDA0133E9
:10503000A168501C0139A1602060157062699A4214
:105040001AD0A389DB0701D50A2D15D03846F8BD43
:10505000616E42F4005221F40051A281226861661F
:105060006169D31A8B42E2DB21463046FEF7A6FD8A
:1050700040B922680123DBE721463046FEF79EFD5A
:105080000028E3D04FF0FF37E0E721463046FEF737
:1050900081FC0028F6D1B4F90C20236991B2BDE758
:1050A000FEF7E4FDB0E700BFF0B5064685B01F4649
:1050B00089B1104C104D2468646B002C08BF2C463D
:1050C000D4F8E040A047431C03D100228A233A6071
:1050D000336005B0F0BD0C460649074A0968496BC4
:1050E000002908BF11462246D1F8E04001A9A04797
:1050F000E9E700BF200040205404402021B1FF2AEE
:1051000004D80A7001207047084670478A2303605C
:105110004FF0FF30704700BF70B50D46084C114688
:1051200006461A46284600232360FCF765FC431C0C
:1051300000D070BD2368002BFBD0336070BD00BF72
:1051400014AC40202DE9F8432C4D064628689846BB
:105150000F469146FFF74AF9294B1C68D4F84831AD
:10516000002B3ED05A681F2A1CDC02F1010E76B1DA
:1051700003EB82010124C1F88890D3F888019440A0
:105180002043022EC3F88801C1F8088123D00232DF
:10519000C3F804E0286843F82270FFF729F90020DB
:1051A000BDE8F883174B0BB34FF4C870FFF79AF9BB
:1051B0000346D8B1D4F848210260002141600A4674
:1051C000C4F848014FF0010EC0F88811C0F88C11E6
:1051D000002EDCD0CCE7D3F88C110C43C3F88C4103
:1051E000D5E704F5A673C4F84831BBE72868FFF794
:1051F000FFF84FF0FF30BDE8F88300BF50044020B7
:10520000BC574000E544400038B5074C0023054634
:1052100008462360FDF79CF8431C00D038BD236886
:10522000002BFBD02B6038BD14AC402070B559B1B9
:1052300005460C4610B1836B002B3CD0636ED8073B
:1052400005D5B4F90C302BB90026304670BDA389C2
:1052500099053CD521462846FEF710FCE36A064630
:1052600033B1E169284698470028B8BF4FF0FF36B0
:10527000A3891A0622D4216B41B104F1400399425B
:1052800002D02846FEF718FE00232363616C21B18B
:105290002846FEF711FE00236364FEF713FD636EDC
:1052A0000022DB07A2810ED5A06DFFF79DF8FEF767
:1052B0000FFD304670BDFEF7D9FCBFE721692846D7
:1052C000FEF7FAFDD7E7A06DFFF792F8ECE7A06DC7
:1052D000FFF78CF8B4F90C30002BBBD1666E16F0DA
:1052E0000106B1D1A06DFFF783F8304670BD00BF55
:1052F00038B50B46074C0546114618460023236077
:10530000FDF729F8431C00D038BD2368002BFBD0E3
:105310002B6038BD14AC402038B5074C002305463F
:1053200008462360FDF71CF8431C00D038BD2368F5
:10533000002BFBD02B6038BD14AC402070B50D465F
:10534000084C114606461A46284600232360FDF7FE
:1053500009F8431C00D070BD2368002BFBD03360DC
:1053600070BD00BF14AC402070B50D46084C11460E
:1053700006461A46284600232360FCF71FFB431C01
:1053800000D070BD2368002BFBD0336070BD00BF20
:1053900014AC402053B94AB9002908BF00281CBFEB
:1053A0004FF0FF314FF0FF3000F07AB9ADF1080C4B
:1053B0006DE904CE00F006F8DDF804E0DDE9022333
:1053C00004B070472DE9F0478C460D460446089E10
:1053D000002B51D18A4217466DD9B2FA82FEBEF136
:1053E000000F0BD0CEF1200C01FA0EF520FA0CFCC8
:1053F00002FA0EF74CEA050C00FA0EF44FEA174ACF
:10540000250CBCFBFAF81FFA87F90AFB18CC45EA11
:105410000C4508FB09F3AB420AD9ED1908F1FF323C
:1054200080F02381AB4240F22081A8F102083D4484
:10543000ED1AA4B2B5FBFAF00AFB105544EA054494
:1054400000FB09F9A14509D9E41900F1FF3380F007
:105450000A81A14540F2078102383C44A4EB0904CB
:1054600040EA08400021002E61D024FA0EF4002307
:1054700034607360BDE8F0878B4207D9002E54D0AA
:10548000002186E821000846BDE8F087B3FA83F1E1
:10549000002940F08E80AB4202D3824200F2FA80B3
:1054A000841A65EB03050120AC46002E3FD086E848
:1054B0001010BDE8F08712B90127B7FBF2F7B7FA71
:1054C00087FEBEF1000F34D1EB1B3A0C1FFA87FCAC
:1054D0000121B3FBF2F8250C02FB183345EA034522
:1054E0000CFB08F3AB4207D9ED1908F1FF3002D2EB
:1054F000AB4200F2D1808046ED1AA3B2B5FBF2F0C8
:1055000002FB105543EA05440CFB00FCA44507D9F7
:10551000E41900F1FF3302D2A44500F2B880184626
:10552000A4EB0C0440EA08409DE731463046BDE854
:10553000F087CEF1200405FA0EF307FA0EF720FAF1
:1055400004F83A0C25FA04F448EA0308B4FBF2F133
:105550004FEA184502FB11441FFA87FC45EA04454F
:1055600001FB0CF3AB4200FA0EF409D9ED1901F17D
:10557000FF3080F08A80AB4240F2878002393D44A0
:10558000EB1A1FFA88F5B3FBF2F002FB103345EA81
:10559000034500FB0CF3AB4207D9ED1900F1FF38CE
:1055A0006FD2AB426DD902383D44EB1A40EA01415B
:1055B0008FE7C1F1200722FA07F88B4005FA01F4C2
:1055C00048EA030320FA07FE4FEA134CFD404EEA77
:1055D000040EB5FBFCF94FEA1E440CFB19551FFAEB
:1055E00083F844EA054509FB08F4AC4202FA01F2EB
:1055F00000FA01FA08D9ED1809F1FF3043D2AC42A4
:1056000041D9A9F102091D442D1B1FFA8EFEB5FBDD
:10561000FCF00CFB10554EEA054400FB08F8A045D1
:1056200007D9E41800F1FF3529D2A04527D902385F
:105630001C4440EA0940A4EB0804A0FB02894C4545
:10564000C6464D4615D312D056B1BAEB0E0364EBE5
:10565000050404FA07F7CB401F43CC403760746061
:105660000021BDE8F0871846F8E69046E0E6C2451E
:10567000EAD2B8EB020E69EB03050138E4E72846ED
:10568000D7E7404691E78146BEE7014678E7023812
:105690003C4445E7084608E7A8F102083D442BE7EB
:1056A000704700BF49444C4500000000546D722013
:1056B0005376630046616C686120656D2063726992
:1056C000617220612066696C610A00005B4E46438E
:1056D0005D20454F5320726561636865640A000070
:1056E0005B4E46435D2049442069732025730A00C0
:1056F0002D2D2057494E4331353030207765617468
:1057000068657220636C69656E74206578616D7080
:105710006C65202D2D0D0A2D2D2053414D45373020
:105720002D58504C44202D2D0D0A2D2D20436F6DEA
:1057300070696C65643A204D6179203237203230CF
:1057400031382030343A35313A3438202D2D0D0A95
:10575000000000004D41494E000000004661696CA8
:10576000656420746F20637265617465204D6169A2
:105770006E207461736B0D0A000000004E464300FA
:105780004661696C656420746F206372656174653D
:10579000204E4643207461736B0D0A004C45440053
:1057A0004661696C656420746F206372656174651D
:1057B000204C4544207461736B0D0A002800402082
:1057C0003031323334353637383941424344454637
:1057D00000000000303132333435363738396162F9
:1057E0006364656600000000286E756C6C2900001B
:1057F00020202020202020202020202020202020A9
:105800003030303030303030303030303030303098
:1058100043000000504F5349580000002E00000084
:105820000020202020202020202028282828282070
:105830002020202020202020202020202020202068
:1058400020881010101010101010101010101010D0
:1058500010040404040404040404041010101010C0
:10586000101041414141414101010101010101018A
:1058700001010101010101010101010110101010DC
:10588000101042424242424202020202020202025C
:1058900002020202020202020202020210101010B0
:1058A00020000000000000000000000000000000D8
:1058B00000000000000000000000000000000000E8
:1058C00000000000000000000000000000000000D8
:1058D00000000000000000000000000000000000C8
:1058E00000000000000000000000000000000000B8
:1058F00000000000000000000000000000000000A8
:105900000000000000000000000000000000000097
:105910000000000000000000000000000000000087
:1059200000000000F8B500BFF8BC08BC9E467047F8
:105930005D3A400065014000F8B500BFF8BC08BC06
:085940009E4670474101400042
:085948007CFAFF7F0100000062
:10595000BFF35F8F0138FBD170470000AAAAAAAA43
:1059600000A00000FFFFFFFF0100000000093D0054
:105970002800402000000000000000001403402028
:105980007C034020E40340200000000000000000F1
:105990000000000000000000000000000000000007
:1059A00000000000000000000000000000000000F7
:1059B00000000000000000000000000000000000E7
:1059C00000000000000000000000000000000000D7
:1059D00000000000000000000000000000000000C7
:1059E00000000000000000000000000000000000B7
:1059F00000000000000000000000000000000000A7
:105A00000000000000000000000000000000000096
:105A10000000000000000000000000000000000086
:105A200001000000000000000E33CDAB34126DE623
:105A3000ECDE05000B00000000000000000000008C
:105A40000000000000000000000000000000000056
:105A50000000000000000000000000000000000046
:105A60000000000000000000000000000000000036
:105A70000000000000000000000000000000000026
:105DA000F0AB4020430000000000000000000000B5
:105DB00000000000000000000000000000000000E3
:105DC0000000000043000000000000000000000090
:105DD00000000000000000000000000000000000C3
:105DE0000000000043000000000000000000000070
