:020000040040BA
:1000000058D34020216140001D6140001D61400027
:100010001D6140001D6140001D61400000000000A6
:10002000000000000000000000000000F902400095
:100030001D6140000000000075034000C503400042
:100040001D6140001D614000DD6640001D614000F3
:100050001D6140001D6140001D6140001D614000A8
:100060001D61400000000000F55B4000095C40009D
:100070001D5C40001D6140001D614000A51B40004B
:10008000315C4000455C40001D6140001D61400046
:100090001D6140001D6140001D6140001D61400068
:1000A0001D6140001D6140001D6140001D61400058
:1000B0001D6140001D6140001D6140001D61400048
:1000C0001D6140001D6140001D6140001D61400038
:1000D000000000001D614000000000001D614000A4
:1000E0001D6140001D6140001D6140001D61400018
:1000F0001D6140001D6140001D6140001D61400008
:100100001D6140001D6140001D6140001D614000F7
:100110001D61400000000000000000000000000021
:100120001D6140001D6140001D6140001D614000D7
:100130001D614000000000001D6140001D61400085
:1001400010B5054C237833B9044B13B10448AFF311
:1001500000800123237010BDE8094020000000004A
:100160002CE940000C4B43B10C480D4910B5AFF3DE
:1001700000800C48036823B910BD0A48036833B9EE
:100180007047094B002BF7D0BDE810401847064BCD
:10019000002BF5D0184700BF000000002CE94000FC
:1001A000EC0940202CE940000000000030B48568D4
:1001B0008468A54203D085688468AC42FBD161B1F4
:1001C000C4F3015000EB8005C4F3034000EB45008D
:1001D00014F4800F18BF0C30086042B1C4F3023130
:1001E00001EB8101C4F3032000EB4101116043B135
:1001F000C4F3021202EB820204F00F0404EB420487
:100200001C6030BC704780697047C161704700F165
:10021000080343604FF0FF328260C3600361002334
:100220000360704700230361704743685A684A605F
:1002300042688A605A689160596041600861036849
:1002400001330360704710B40C68B4F1FF3F16D05F
:1002500000F10803C2681268944204D35B685A68CC
:1002600012689442FAD25A684A6091608B60596071
:1002700008610368013303605DF8044B704703694C
:10028000F1E7436882689A60836842685A6003694C
:100290005A68904206D0002202611A68013A1A6038
:1002A0001868704782685A60F5E7000003480068E4
:1002B000006880F3088862B600DF00BF08ED00E048
:1002C000DFF80C00016841F4700101607047000024
:1002D00088ED00E04FF0807340F8043C40F8081CC3
:1002E000002340F80C3C40F8202C6FF0020340F84B
:1002F000243C443870470000054B19680868B0E892
:10030000F04F80F309884FF0000080F311887047A8
:1003100010AA40204FF08052014B1A60704700BF76
:1003200004ED00E0EFF311804FF0A00181F311889C
:100330007047002008B5034B9847034A1368013300
:10034000136008BD250340000C00402080F3118895
:100350007047000008B5054A1368013B136003B1FC
:1003600008BD0020024B9847FAE700BF0C00402070
:100370004D034000EFF30980114B1A681EF0100F77
:1003800008BF20ED108A20E9F04F10602DE90840E9
:100390004FF0A00080F3118800F0B6FE4FF000008F
:1003A00080F31188BDE8084019680868B0E8F04F8C
:1003B0001EF0100F08BFB0EC108A80F30988704758
:1003C00010AA402008B54FF08052054B1A60054B2B
:1003D0009847054B98470020044B984708BD00BF3D
:1003E00004ED00E025034000110E40004D034000E5
:1003F000034A044B1A600722043B1A60704700BF8F
:10040000DF93040014E000E010B50C4B1A6842F4CE
:1004100070021A601A6842F070421A60084B9847DE
:100420000024084B1C60084B9847084A136843F0A7
:1004300040431360064B9847204610BD20ED00E076
:10044000F10340000C004020C102400034EF00E006
:10045000AD02400010B4134A00E01A46136883420C
:10046000FBD351685418A0420AD041684418A342F3
:100470000BD00360904218BF10605DF8044B7047CA
:100480004068014451601046EFE7074C2468A342DE
:1004900006D05B681944416013681B680360E9E794
:1004A0000360E7E708AA4020040A402038B5044664
:1004B0002C4B98472C4B1B688BB1002C4BD004F174
:1004C000100212F0070F02D022F007020832511E6C
:1004D00049F6FE7399423BD824490C6816E0234A3A
:1004E000234B13600021516049F6F07298181E4D9D
:1004F000286049F6F475595199505A6018601D4AA0
:100500001368103B1360D8E721461C4663689A4283
:1005100002D92368002BF7D1134B1B689C4217D0DC
:100520000D68103523680B6063689B1A202B09D86F
:10053000104A136861685B1A13600F4B984765B1E6
:10054000284638BDA018436062600C4B9847EFE71F
:10055000094B984701E0084B9847094B98470025FD
:10056000EEE700BFE10D4000040A402008AA402049
:10057000080A402010004020350F4000550440007C
:10058000CD66400080B110B50446084B9847084A34
:1005900054F80C3C11680B441360A4F11000054B97
:1005A0009847054B984710BD704700BFE10D4000CC
:1005B0001000402055044000350F400010B504469F
:1005C000036C5BB903681BB1A36B0133A36310BD5C
:1005D0004068124B984700236360F5E76AB91A46F2
:1005E00080680F4B9847A368226C1344A36062682D
:1005F0009342E9D32368A360E6E71A46C068084B34
:100600009847226C5242E3681344E36021688B42AE
:10061000DAD263681A44E260D6E700BF35144000BE
:100620003569400038B50346006858B11A6CDC687B
:100630001444DC605D68AC4228BFD8600846D968C5
:10064000014B984738BD00BF35694000F8B50446F6
:100650001F4B9847A36C002B14DD636A93B104F120
:1006600024061C4D1C4F07E0A36C013BA364A36C44
:10067000002B07DD636A2BB13046A8470028F3D072
:10068000B847F1E74FF0FF33A364144B9847104B82
:100690009847636C002B14DD236993B104F11006B5
:1006A0000C4D0D4F07E0636C013B6364636C002BE2
:1006B00007DD23692BB13046A8470028F3D0B8479F
:1006C000F1E74FF0FF336364044B9847F8BD00BF78
:1006D000350340004D1240007D134000550340009B
:1006E00038B508B30D460446174B98472268216C6D
:1006F000E36B03FB01F3D01860600020A063A260ED
:100700005B1A1344E3604FF0FF336364A36495B94D
:1007100023692BB104F110000C4B9847012807D036
:100720000B4B9847012038BD0A4B984700BFFDE7A7
:10073000094B9847F4E704F11000084DA84704F16D
:100740002400A847ECE700BF350340004D124000ED
:100750005503400025034000150340000F024000F0
:10076000F8B5D8B10D461746064650200D4B9847B0
:10077000044698B105FB06F001300A4B984720600B
:1007800048B1E663256401212046074B984784F869
:100790004D702046F8BD2046044B9847044B9847BF
:1007A00000BFFDE7AD044000E106400085054000C4
:1007B000250340002DE9F04F85B0019248B18846ED
:1007C0009946044649B10027394EDFF810A1394D4A
:1007D00034E0394B984700BFFDE7036C1BB1364B43
:1007E000984700BFFDE70027EEE74A46414620460E
:1007F000324B9847636A2BB92E4B9847012005B0BE
:10080000BDE8F08F04F124002D4B98470128F3D167
:100810002C4B9847F0E7274B98470020EFE702A8BA
:10082000D04715E0002363641AE00023A3641BE0B3
:100830002046254B9847254B98470127B047A26B88
:10084000E36B9A42D1D3019B002BE4D0002FE6D07A
:10085000A8471F4B9847B047636CB3F1FF3FE1D007
:10086000A36CB3F1FF3FE0D0A84701A902A8194B40
:100870009847A8B9B047D4F838B0E76BA847BB454C
:10088000D6D1019904F11000134B984720460E4B26
:1008900098470E4B98470028CFD10A4B9847CCE792
:1008A0002046094B9847094B98470020A7E700BF0F
:1008B000350340005503400025034000BD054000BE
:1008C0004D124000150340004D064000350F40001A
:1008D000E10D4000F9124000A9114000D112400082
:1008E0002DE9F04190B10E4615469846044689B16F
:1008F0001A4B98470746A26BE36B9A4211D3002428
:100900003846174B98472046BDE8F081134B98476F
:1009100000BFFDE7036C002BEAD0104B984700BFE7
:10092000FDE74246314620460E4B9847A36CB3F193
:10093000FF3F0AD1636A6BB104F124000A4B984768
:1009400055B148B101242C60DAE7A36C0133A364EC
:100950000124D5E70124D3E70124D1E72503400092
:100960004D034000BD0540004D1240002DE9F04709
:1009700084B0019248B188469946044649B100279F
:10098000474EDFF850A1474D51E0474B984700BF15
:10099000FDE7036C1BB1444B984700BFFDE7002700
:1009A000EEE7E56841462046404B9847B9F1000F15
:1009B00017D1A36B013BA363236813B93C4B984742
:1009C000606023693BB104F110003A4B984701285D
:1009D00001D1394B9847334B9847012004B0BDE80B
:1009E000F087E560636A002BF5D004F12400314BF9
:1009F00098470028EFD0304B9847ECE7294B9847B1
:100A00000020EBE702A8D0471AE0002363641FE050
:100A10000023A36420E0B0476068284B9847A847AC
:100A200028E02046264B9847264B98470127B04799
:100A3000A36B002BB5D1019B002BDFD0002FE1D0A1
:100A4000A847214B9847B047636CB3F1FF3FDCD018
:100A5000A36CB3F1FF3FDBD0A84701A902A81B4B51
:100A60009847B0B9B047A76BA847002FD9D12368E2
:100A7000002BD0D0019904F12400154B9847204653
:100A80000F4B98470F4B98470028CFD10A4B9847F8
:100A9000CCE720460A4B98470A4B984700209DE731
:100AA0003503400055034000250340002506400063
:100AB000891340004D12400015034000B51340005B
:100AC0004D064000350F4000E10D4000F912400096
:100AD000A9114000D112400038B504460D460F4B15
:100AE0009847636CB3F1FF3F0BD0A36CB3F1FF3FAA
:100AF0000AD00B4B9847A36B4BB12046094B984744
:100B000038BD00236364F0E70023A364F1E72946BE
:100B100004F12400044B9847EFE700BF3503400081
:100B2000550340004D0640000912400010B50F4B20
:100B30001B6858600E4B1B6898420ED304460D4B41
:100B400018680A4B196804310B4B98470B4B1B680C
:100B50009C4201D2094B1C6010BD094B1868034B25
:100B600019680431044B984710BD00BF10AA4020FB
:100B70000CAB402014AA4020470240001400402043
:100B800018AA40202DE9F84F0A9E0B9F0C9D48B1F2
:100B9000884693469A468146042E07D95C4B98476F
:100BA00000BFFDE75A4B984700BFFDE74C20594B6B
:100BB00098470446002851D0002D44D005634FEAE1
:100BC0008B02A5212846544B98476FF040455D4461
:100BD000236B03EB850323F007050A22414604F14A
:100BE00034004E4B9847002384F83D30E662A664FB
:100BF00004F104084046DFF878B1D84704F1180042
:100C0000D8472461C6F10503A36164625246494690
:100C10002846434B9847206007B13C60414B9847BA
:100C2000414A136801331360404B1B68D3B1404BFA
:100C30001B68002B3DD13D4B1B68DB6A9E4238D3BD
:100C40003A4B1C6035E04FEA8B00324B9847054623
:100C500020630028B3D12046364B98474FF0FF3031
:100C6000BDE8F88F314B1C601368012B21D1324F46
:100C70003846324DA84707F11400A84707F128006D
:100C8000A84707F13C00A84707F15000A847DFF844
:100C9000E4904846A8472A4F3846A8472948A8471D
:100CA0002948A8472948A847294BC3F80090294B51
:100CB0001F60E06A284B1B68984201D9264B1860D8
:100CC000264A1368236401331360254B1B6898423E
:100CD00001D9234B186000EB80004146164B03EB13
:100CE0008000204B9847204B9847114B1B684BB115
:100CF0000E4B1B68DB6A9E4207D91C4B98470120AC
:100D0000BDE8F88F0120BDE8F88F0120BDE8F88F1D
:100D100025034000AD044000696A4000DD6D4000DD
:100D2000D50240003503400080AA402010AA402090
:100D3000E0AA4020850540001CAA40200F02400088
:100D4000B0AA4020CCAA4020F8AA4020E4AA402023
:100D500014AA402018AA402098AA40208CAA40201B
:100D600094AA40202B024000550340001503400088
:100D7000250240009CAA402010B584B000230393B4
:100D800002930193009382220D490E480E4CA04716
:100D9000012802D080B104B010BD0C4B9847012847
:100DA000F8D10B4B984701220A4B1A6000220A4BDC
:100DB0001A600A4B9847EEE7054B984700BFFDE7DE
:100DC000FCD2400081104000850B40002D154000F2
:100DD00025034000E0AA40200CAB4020090440005D
:100DE000024A136801331360704700BF88AA40208D
:100DF00010B5044B9847044B1C68044B9847204699
:100E000010BD00BF350340000CAB4020550340002F
:100E10003C4B1B68002B6ED12DE9F0413A4B1A6810
:100E200001321A601B68ABB9384B1B681B68002B7A
:100E300028D1364B1968364A106818601160354958
:100E40000A6801320A601B681B68FBB94FF0FF3269
:100E5000314B1A602C4B1A682F4B1B689A424FD3A8
:100E60002A4B1B681B68CBB1284B1B68DB68DC680E
:100E70006368254A1268934216D8284E284FDFF837
:100E8000B0802AE0274B984700BFFDE71F4B1B6847
:100E9000DB68DB685A68204B1A60DBE74FF0FF32F3
:100EA0001D4B1A60BDE8F0811B4A1360BDE8F0815C
:100EB00000EB8000294608EB80001B4B9847134B42
:100EC0001B681B68002BE9D0104B1B68DB68DC68D3
:100ED00063680D4A12689342E6D8251D2846B0473C
:100EE000A36A13B104F11800B047E06A3B68984266
:100EF000DED93860DCE70D4A1368013313607047B0
:100F0000BDE8F08188AA40200CAB402014AA402004
:100F100018AA4020C8AA40201400402083024000A4
:100F200094AA4020250340002B02400084AA4020C0
:100F30001CAA40202DE9F8432F4B1B681BB92F4BEF
:100F4000984700BFFDE72E4B98472B4B1A68013A94
:100F50001A601B68002B4DD12A4B1B682BB1002453
:100F6000DFF8CC80284F294E14E00024284B984706
:100F70002046BDE8F88300EB80004946254B03EB93
:100F80008000254B9847254B1B68EA6ADB6A9A422A
:100F900028BF0124D8F800307BB1D8F80C30DD68C8
:100FA00005F11800B84705F104094846B847E86A52
:100FB00033689842DFD93060DDE7194B1B6893B185
:100FC000174B1B6843B1174D154CA8472368013BCD
:100FD00023602368002BF8D10022134B1A60134BB7
:100FE00098470124C2E7012CF6D00F4B1B68012B58
:100FF000BCD1F1E70024B9E788AA402025034000CE
:101000003503400080AA40208302400094AA40207B
:10101000550340001CAA40202B02400010AA40208B
:1010200084AA4020110E4000C4AA402015034000AD
:10103000CCAA402010B510B90A4B984710BD044601
:10104000094B9847094B1B681C44094B186804302E
:10105000084B98472046084B9847084B984700286C
:10106000ECD1E9E715034000E10D40000CAB402056
:1010700010AA4020830240002D0B4000350F400095
:1010800080B5164DDFF87880154E24E0154B1B68AF
:10109000012B1ED82B68002BF8D0C0473468B84706
:1010A000002CF7D0104B9847F368DC68201D0F4BDD
:1010B00098470F4A1368013B13602B68013B2B6074
:1010C0000C4B9847206BDFF83C90C8472046C84738
:1010D000E0E7094B9847094FDCE700BF90AA4020A2
:1010E000F8AA40201CAA402035034000830240009B
:1010F00080AA40205503400015034000350F4000F2
:10110000E10D400085054000214B1B68EBB910B58F
:10111000204B1B6803EB83039B001F4AD358C3B9C2
:101120001C4B1B686BB11B4A1B491368013B1360C6
:10113000136803EB830351F8233053B91368002B72
:10114000F3D1164B984700BFFDE70122144B1A60FC
:101150007047104B1B68104A9900C81802EB8000BA
:10116000446864684460194402460832944209D0D5
:1011700003EB8303084A02EB83035B68DA68094BDD
:101180001A6010BD6068044A02EB81025060EFE70C
:1011900088AA402094AA40201CAA40202503400091
:1011A000C4AA402010AA402038B590B10C460E4D7C
:1011B000296818310D4B9847286804300C4B984724
:1011C000B4F1FF3F09D00B4B186820440A4B9847F5
:1011D00038BD0A4B984700BFFDE72968043108482D
:1011E000084B984738BD00BF10AA40204702400076
:1011F000830240000CAB40202D0B40002503400033
:10120000E4AA40202B02400038B578B10D46094CC5
:1012100021681831084B984720680430074B9847DD
:10122000074B18682844074B984738BD064B98472A
:1012300000BFFDE710AA40202B02400083024000BF
:101240000CAB40202D0B40002503400038B5C3688F
:10125000DC681CB304F118052846154B9847154B5C
:101260001B68FBB9251D2846114B9847E06A124BB5
:101270001B68984201D9104B186000EB800029468A
:101280000E4B03EB80000E4B98470E4B1B68E06A39
:10129000DB6A984234BF0020012038BD0A4B9847D2
:1012A00000BFFDE729460948054B9847EDE700BF19
:1012B0008302400088AA402094AA40201CAA402013
:1012C0002B02400010AA402025034000CCAA402059
:1012D00008B530B1054A12680260054A12684260DA
:1012E00008BD044B984700BFFDE700BFC8AA4020D7
:1012F0000CAB40202503400038B5E8B10D4604464C
:10130000F1B1184B98472B68B3F1FF3F26D0164A2E
:1013100012682168914204D0144A126861689142AF
:101320001ED9124A12686168521A93420CD80124DD
:101330000F4B9847204638BD0E4B984700BFFDE73E
:101340000C4B984700BFFDE7084A1268521A9B1AD7
:101350002B602046084B98470024E9E70024E7E784
:101360000124E5E735034000C8AA40200CAB40202B
:101370005503400025034000D11240000122014BDB
:101380001A607047C4AA4020014B1868704700BF1C
:1013900010AA4020054B1B6833B1054B1B68002B7E
:1013A0000CBF01200220704700207047E0AA4020B7
:1013B00088AA4020002831D038B50546C36A1849AC
:1013C0000968C96A8B4211D215490968C96AC1F115
:1013D0000501816103EB8303124901EB830341693A
:1013E000994204D00E4B1B68DB6AC36238BD041DF2
:1013F00020460D4B98470A4B1B68D86AE8620B4B96
:101400001B68984201D9094B186000EB8000214607
:10141000044B03EB8000064B984738BD704700BF74
:1014200010AA40201CAA40208302400094AA402019
:101430002B024000E8B138B50446C16A826C914283
:1014400016D0051D28460B4B9847A06CE062C0F1F2
:101450000503A361084B1B68984201D9064B18602D
:1014600000EB80002946054B03EB8000044B9847B6
:1014700038BD70478302400094AA40201CAA402037
:101480002B02400008B54160006191420CD8D21A8D
:1014900083699A4201D3012008BD011D094B1868D8
:1014A000094B9847002008BD9A4203D2994201D3C4
:1014B000012008BD011D054B1868034B984700200B
:1014C00008BD00BF14AB40204702400010AB4020D5
:1014D00070B50D4B98470D4B1B6813B10C4B9847DB
:1014E00070BD0C4D28460C4EB0470C4C2046B04702
:1014F0000B4B1D600B4B1C6000220C2105200A4B7E
:101500009847024B1860E9E73503400044AB4020A0
:101510005503400018AB40200F0240002CAB402088
:1015200010AB402014AB40206107400010B584B0E0
:101530000B4B98470B4B1B6873B10023039302932B
:101540000193042200924FF4827207490748084C25
:10155000A04708B104B010BD064B984700BFFDE797
:10156000D114400044AB402004D34000CD164000CD
:10157000850B4000250340002DE9F04119B90E4BC1
:10158000984700BFFDE7804616461D460F462820B7
:101590000A4B9847044658B1094B9847C4F8008055
:1015A000A761E6612562069B6362201D054B984793
:1015B0002046BDE8F08100BF25034000AD04400097
:1015C000D11440002502400030B585B00F4C25688D
:1015D000D5B11C460191029203903BB100232246F3
:1015E00001A928460A4CA04705B030BD094B9847D1
:1015F00001284FF000030CBF089A1A4601A90348BE
:101600000068054CA047EFE70020EDE744AB402021
:10161000E108400095134000B50740002DE9F04770
:1016200082B08146214B98478046214B1B689842E7
:1016300015D30023C9F800301D4BC3F80080404685
:1016400002B0BDE8F087002100910B4652462046CB
:10165000184CA04728B9184B984700BFFDE7174E14
:10166000174F33681A68C2B1DA68D2F800A0DB6895
:10167000DC68251D2846B847636A20469847E36919
:10168000012BEED1A36953449A45DCD263602461F7
:10169000294630680B4B9847E3E70B4A1068074927
:1016A000086013600123C9F80030C5E7F10D400060
:1016B00040AB4020C91540002503400010AB40203E
:1016C000830240004702400014AB40202DE9F04166
:1016D00086B0DFF86C814E4B1B681A68002A00F058
:1016E0008A80DB681D684B4B984703A84A4B984794
:1016F0000646039B002B40F08780A8422AD3474B25
:101700009847434B1B68DB68DC68201DC047E369D2
:10171000012B08D0636A2046984702A83E4B9847A1
:1017200007463F4E33E0A1692B4632462944204606
:101730003C4EB0470128EDD1002100910B462A46CE
:101740002046394DA8470028E4D1384B984700BFC0
:10175000FDE70025A91B324B1868354B98472F4BE6
:1017600098470028D9D1334B9847D6E70499A1610F
:1017700031B13B463A46394420462A4CA04706E060
:101780002A4B984700BFFDE720462B4B98472B4D2F
:1017900000231A4603A93068A84700289BD0059C5F
:1017A0001CB163690BB1201DC047039B022BDDD028
:1017B000032BE9D0002BEBD10499A0690B463A46E4
:1017C00001442046174DA8470128E0D1636A20460E
:1017D0009847E369012BDAD1A269002100910B46F9
:1017E000049802442046104CA0470028CFD10F4B4C
:1017F000984700BFFDE7074B984703A8064B98475B
:101800000646039B002BA4D0044B984785E700BFF6
:1018100010AB4020E10D40001D164000350F400088
:1018200044AB402085144000C9154000250340000A
:10183000D90A400015034000850540006D094000AD
:10184000830240003C22054B1A70054A054B1A6082
:101850000023054A1370054A13707047C2B1402037
:10186000ECB14020DCB14020C4B14020B8B14020F0
:1018700008B5014B984708BD411B4000F8B501224F
:10188000274B1A700023274A1370274A13702748E2
:10189000274B9847274E284C284D31782068A84779
:1018A000012836DD226813789B0003F00C03527880
:1018B00003EB9213042B0BD0002B2DD11A460221DF
:1018C0001F48204FB8470028E7D16FF00100F8BD4E
:1018D0001D48174B9847184802681C4913789B0805
:1018E0000B70537803F03F03194C23709B000133B6
:1018F000137002680B78803B537000231A46022154
:101900000068104CA04700280CBF6FF001000120B8
:10191000F8BD4FF0FF30F8BD6FF00200F8BD00BF1A
:10192000C6B14020C4B14020B8B140200CD3400023
:10193000A51D4000C2B14020DCB140207D1B40000D
:1019400048AB4020711B400024D34000C3B140206D
:101950002CB24020F0B583B004460D4616461F4613
:10196000354B1B78002B4ED1344B1A78EB1C9A4226
:1019700059DB6B1E5BB2002B08DB3148E15C02686F
:101980001A44D170013B5BB2002BF7DA2C48026895
:101990002C4B1B789B000333137003682A4A127880
:1019A0005A700268294B1978294B1B7803EB0113F5
:1019B0009370E91C3B463246C9B20068254CA047EB
:1019C0000346002830D0214A1378013313701B4E90
:1019D0001B4C214D31782068A847012827DD22685B
:1019E00013789B0003F00C03527803EB92130D2B3A
:1019F00011D0F3B91A4602211848164FB8470346CA
:101A00000028E7D110E0032101A8134B98470228D2
:101A1000AAD0002308E000231A4602210F480D4CEB
:101A2000A047034600E00023184603B0F0BD0023A2
:101A3000FAE70023F8E700BFC6B14020C2B140205A
:101A4000DCB140202CB24020C3B14020C4B14020C2
:101A5000B8B14020711B40007D1B400048AB4020C6
:101A60002DE9F04104460E462E4DDFF8D0802E4F72
:101A700031462046A84783B2012B46D921786278A7
:101A80008B0003F00C0303EB92130C2B0BD0002BF9
:101A90003FD11A4602214046B8470028E8D16FF0EE
:101AA0000100BDE8F081C5B2EE1EF6B21F4F8908F5
:101AB000397002F03F021E4B1A701E4803689200F4
:101AC00003321A7002683B78403353700268A3787F
:101AD0001B090133937000231A4603210068124F3B
:101AE000B847D0B156B1631EA21C281F54FA80F427
:101AF00012F8011F03F8011FA342F9D10E4A13780F
:101B00000133137030B2BDE8F0814FF0FF30BDE813
:101B1000F0816FF00200BDE8F0816FF00100BDE8D8
:101B2000F08100BF7D1B4000711B4000C3B140200D
:101B30002CB24020DCB14020B8B1402048AB40205E
:101B400010B50446054B9847054B98470548064B8A
:101B500098472046054B984710BD00BFCD1F400059
:101B6000ED24400064D34000AD6840008523400070
:101B700010B5014CA04710BD5124400008B5014BE1
:101B8000984708BDE923400008B50348034B984730
:101B90000122034B1A6008BD80D34000AD684000AD
:101BA0004CAB402070B582B00E480F4B984710F0F8
:101BB000010F01D102B070BD02AC002344F8083D12
:101BC000084E0A4D21463046A8470028FAD102A9FE
:101BD000009B01F8013D064B186800231A46054C8E
:101BE000A047E7E700C00240B5604000F160400058
:101BF00038B24020E108400030B589B004460D46B7
:101C0000202200216846124B984795B1224661195F
:101C1000002501E08A420DD012F8014BA4F13003F7
:101C2000DBB2092BF6D808AB2B4403F8204C013566
:101C3000F0E7002508AB1D44002305F8203C054AC9
:101C400010684FF0FF326946034CA04709B030BD21
:101C5000696A400034B24020B50740002DE9F041E8
:101C6000A2B0002201214FF48060314B9847314BE4
:101C700018601B6813B93048304B98470022202168
:101C800004202B4B98472E4B18601B6813B92A4829
:101C90002A4B98472B4B00930023012241F28831B5
:101CA00029482A4CA0472A4C20604FF47A70294BCF
:101CB00098470120284B9847284B98473C22284BAF
:101CC0001A70284A284B1A6028481C4B98472468E9
:101CD000274B9847002100910B4602462046254C91
:101CE000A047DFF86C80224F2646D8F80050B8474E
:101CF000002400942346024621462846B0471E4B46
:101D00001C602246802102A81C4B984704460028EC
:101D1000EBDDD8F80050B847002100910B46024691
:101D20002846B047214602A8154B9847DDE700BF7B
:101D30006107400038B2402094D34000AD684000B5
:101D400034B24020891B4000ACD3400079154000DC
:101D500030B24020351040000D1F400045184000B3
:101D6000C2B14020ECB14020DCB14020BCD34000E7
:101D7000F10D4000C91540004CAB4020412540000A
:101D8000F91B400038B505460C460846034B9847FA
:101D9000024621462846024B984738BD016D400057
:101DA000E955400070B50646054D06492846064CE3
:101DB000A04731462846A04704492846A04770BDA1
:101DC0000080024004D44000851D4000FCD6400045
:101DD00008B5C1B20148024B984708BD10D4400075
:101DE000AD68400008B501460148024B984708BD60
:101DF000B0DB4000AD6840002DE9F04385B080467F
:101E0000894600271B4B1F601B4B1D681B4B9847C7
:101E100000973B46024639462846194DA84708F127
:101E2000FF38144C174EB9451CDD23685BB9164DBD
:101E300000231A460DF10F013068A847012808D089
:101E40002268002AF4D000220A4B1A606FF00100C9
:101E50000DE09DF80F1008F8011F01370B480C4BDF
:101E60009847E0E7034B1B68002BECD178B205B034
:101E7000BDE8F0834CAB402030B24020F10D400073
:101E8000C915400038B240206D09400010D4400010
:101E9000AD68400000B585B0144B93E80300029094
:101EA000ADF80C101248134B98470A2206216846D9
:101EB000114B984700280CDD062202A968460F4BFB
:101EC000984760B90E480B4B9847002005B05DF865
:101ED00004FB0C48074B98476FF00100F6E70A48EF
:101EE000044B98474FF0FF30F0E700BFD0D34000DD
:101EF00030D44000AD684000F91D4000D568400076
:101F000068D4400038D4400050D440002DE9F0435C
:101F100087B00F20224CA0471020A0474FF4E13398
:101F20000093C02301934FF40063029300250395AF
:101F300004950F20A0471B4C1B4A694620461B4BAB
:101F4000984720461A4FB84720461A4EB047DFF848
:101F500074902B464FF400424FF080514846DFF812
:101F60006880C0472B464FF480324FF0805148467E
:101F7000C0474FF0FF3120460F4B98472046B847E7
:101F80002046B047012120460C4B98470C4B80223D
:101F900083F80F234FF400421A6007B0BDE8F083C6
:101FA000FD5D400000C0024080D1F0084D6040005F
:101FB000A1604000A7604000B1604000AD604000FB
:101FC00000E100E000140E403159400070B582B0CD
:101FD0002248234B984740BB204C55212046214D99
:101FE000A84755212046A84700212046A8470021A0
:101FF0002046A84700212046A847002120461A4D28
:10200000A84700212046A84700212046A8470021D4
:102010002046A84700212046A8472046134B984752
:1020200038B90E4C114D124E0FE01248124B984722
:10203000D2E71248124B9847F3E70DF1070120460B
:10204000B0479DF807000F4B98472046A847002847
:10205000F3D10D48084B984702B070BD00C0024054
:10206000B9604000DF604000C9604000C1604000CE
:102070000961400008D54000AD68400024D540000B
:10208000A51D4000D11D40003CD540002DE9F04F7A
:1020900083B080460F46924699465448544B984721
:1020A00020B9524DDFF848B1524E12E05248534B1E
:1020B0009847F6E702AC002344F8043D2146284641
:1020C000B0470028FAD1019B8DF8003000984C4BA6
:1020D00098472846D8470028ECD10021494B18687A
:1020E000494B984798F80020484B1A703F4D002103
:1020F0002846474EB04700212846B047FF212846D2
:10210000B04709F101043C44E4B221462846B047F7
:10211000E143C9B201312846B047D4212846B0472F
:102120003A46414628463B4B9847002F4AD008F193
:10213000FF32791E58FA81F1D42412F8013F1C4471
:10214000E4B28A42F9D14A4651462848314B984771
:10215000B9F1000F29D00AF1FF3A00231AF8012F34
:102160001444E4B20133DBB29945F7D861421F4D04
:10217000C9B22846264CA04700212846A047264839
:10218000264B984757B108F1FF3800241C4D18F82A
:10219000010FA8470134E4B2A742F8D8204B984772
:1021A00003B0BDE8F08FD424D5E761420F4DC9B22A
:1021B0002846174CA04700212846A0471648174B31
:1021C0009847E0E74A4651460848124B9847B9F10C
:1021D000000FE8D1054D2C2128460D4CA0470021C9
:1021E0002846A0470C480D4B9847D7E700C002404F
:1021F000C1604000F160400024D54000A51D4000B2
:10220000D11D400038B24020E1064000C5B1402059
:10221000DF604000E95540005CD54000AD684000FB
:10222000951E4000F0B583B006460C4615464B4857
:102230004B4B98472A46032101A84A4B9847002850
:102240005EDD9DF80430002B60D19DF80530002B39
:102250005CD19DF80630FF2B58D12A4602216846F2
:10226000404B9847002869DD9DF800309DF801201B
:102270001A4412F0FF0F4FD1023BDBB28DF8003051
:10228000A3425ED8384B1C78631CDFB22A46022179
:1022900001A8344B9847002856DD9DF80430D52B13
:1022A00040D19DF80530BB423CD12A469DF8001034
:1022B00030462C4B98479DF80010884247D12A3C65
:1022C000E4B249B1721E481E56FA80F012F8013F7E
:1022D0002344DCB28242F9D12A46022101A8214BD3
:1022E0009847002836DD9DF80430234413F0FF0F93
:1022F0001ED19DF80530DBB99DF8000003B0F0BD9C
:102300001A48174B98476FF00100F7E71848194B28
:1023100098476FF00200F1E71748164B98476FF0A7
:102320000200EBE71548134B98476FF00200E5E712
:102330001348104B98476FF00200DFE76FF0010081
:10234000DCE76FF00300D9E76FF00100D6E76FF02C
:102350000100D3E76FF00100D0E700BF84D4400054
:10236000AD684000F91D4000C5B140208CD440004C
:1023700098D44000A51D4000A8D44000B8D4400027
:10238000C8D4400070B58CB0064601AC124D0FCDDC
:102390000FC40FCD0FC495E8070084E807000023A1
:1023A0001A462C2101A80D4CA047002811DB32460B
:1023B00040210B480B4B984740B2002802DD01201A
:1023C0000CB070BD10F1020F0CBF00206FF00100C7
:1023D000F6E74FF0FF30F3E7D8D340008D20400000
:1023E000ECB140202522400070B504460E468623FD
:1023F000037000231A460121114DA847E0B940F6A9
:10240000B832314620460F4B9847002816DD013878
:1024100080B2237853B938B1E2185278E2540133CC
:10242000DBB29AB29042F7D800B270BD0648074BB3
:1024300098476FF0040070BD4FF0FF3070BD00BFD3
:102440008D20400025224000D8D44000A51D40002A
:10245000F8B53F291AD9003218BF01221E4CA042FC
:1024600014BF144642F0010454B91B4D8E232B7047
:102470000B46024601212846184DA847D0B103E07B
:102480001748184B984700242046F8BD4C1E64B2EC
:10249000002C07DB104F065D3D196E70013C64B2E5
:1024A000002CF8DA0C488E2404700131C9B20B4CB0
:1024B000A04768B940F6B832402107480A4B984710
:1024C000002807DB044B1C78B4FA84F46409DBE7CA
:1024D0000024D9E70024D7E7ECB140208D2040004C
:1024E000ECD44000A51D40002522400010B50F4C43
:1024F0001422227001236370A270E3700C480D4B0C
:10250000984700231A46042120460B4CA04708B1E7
:10251000002010BD4FF47A7240210448074B9847C1
:102520000028D4BF0020012010BD00BFECB1402026
:1025300014D44000AD6840008D20400025224000AA
:10254000F8B504460E4615463A483B4B9847284690
:102550003A4B9847002845DD3948374B984728467D
:10256000384B9847002843DD3748334B984731466E
:102570002046364B984780B2052858D92378102B2F
:102580003CD16378022B3FD1A378E5782D0405EB8D
:102590000365237905EB032563791D442E46871FC8
:1025A000BD4237D84DB100221346A1188979A154F4
:1025B0000133DBB21A469E42F7D8254B1A68102128
:1025C00011701A6881215170196800228A70196887
:1025D000CA70186802714271134606211D4CA0474B
:1025E00028B2F8BD1C48144B98474FF0FF30F8BD97
:1025F0001A48114B98476FF00100F8BD18480E4B70
:1026000098476FF00300F8BD1648174B98476FF0D6
:102610000300F8BD1548144CA0472846144DA847A0
:102620003846A8471348A0476FF00300F8BD6FF085
:102630000200F8BD68D54000AD6840007118400048
:10264000B4D540007D184000F8D54000611A400024
:10265000DCB140205519400084D54000D0D5400061
:1026600014D6400054D64000A51D40006CD6400052
:10267000E51D400018D8400010B582B0074B196026
:102680000B0E0193C1F307430093C1F30723CAB2B2
:1026900001460348034CA04702B010BDCCB0402017
:1026A0008CD64000AD684000424B93F90030834225
:1026B00000D0704770B582B01446052903D00629B2
:1026C00042D002B070BD3C483C4B98473C4B1B7815
:1026D000002BF6D03B4D4FF4AF62002128463A4B19
:1026E00098473A4A3A4928463A4B98470CB394F9E6
:1026F0000130002B1DDB3848304B98472C462846CC
:10270000364B98472B4D002382B2214695F90000A5
:10271000334EB0474FF4AF663246002120462A4B75
:10272000984700233246214695F900002D4CA047DA
:10273000C7E70022224B1A701E4C94F900002A4B66
:102740009847FF232370BCE7002A2BD0B2F904205E
:10275000002A27DD20682549254B984788B1817AD2
:10276000312914BF0021012102AC44F8041D214885
:10277000124B9847204B186800231A4621461F4CDD
:10278000A047104C4FF4AF652A46002120460E4B5F
:10279000984700232A462146064890F90000114C2C
:1027A000A0478EE71846104B9847FF22014B1A703E
:1027B00087E700BF27004020BCD64000AD6840003E
:1027C000C8B0402050AB4020696A400044B240206D
:1027D000D8D64000A56C400000D74000016D4000F5
:1027E000D952400075534000155440001CD740009A
:1027F000F170400024D740003CB24020E108400086
:1028000010B582B02C2803D0322813D002B010BDEE
:102810000B78012B08D0002BF8D10D480D4B9847B1
:1028200000220D4B1A70F1E70C480A4B98470C4BED
:102830009847EBE78B784A780878C9780091014689
:102840000848044CA0470122034B1A70DEE700BF82
:102850004CD84000AD684000D0B040202CD840009B
:10286000D53C40006CD84000F0B40138002422462A
:102870002546264611E0A3F13007092F14D802EBB4
:10288000820207EB420207E00135032D24DCFF2A18
:1028900024D842EA042432464BB110F8013F2E2BD3
:1028A000F2D0E8D8002BF2D00020F0BC7047022D07
:1028B00003DCC5F10303DB009C4089B1230E43EA2E
:1028C0000463220202F47F021A43230A03F47F43C3
:1028D00013430B600120E8E70020E6E70020E4E76F
:1028E0000120E2E7F0B58DB02024224600214B48BC
:1028F0004B4B98470022214601204A4B98474A4BB0
:1029000018601B68E3B1002204210120454B984761
:10291000464B1860444B1B68B3B1454B98470023A6
:102920000793089309930A930B93424B069306A8C7
:10293000414B9847014658B14048414B9847FEE704
:1029400040483F4B9847DEE73E483D4B9847E4E719
:102950003D4B98473D493E483E4B98473E4D2946A2
:102960003E48374CA047FF2300933D4B02220821ED
:1029700028463C4DA8470223ADF808304FF4A04349
:10298000ADF80A3003A93848384B984703993848BE
:10299000A047384D384C394E0FE03948284B9847FE
:1029A0000BE0384F97F90000374B9847FF233B70F7
:1029B0003648234B98473220B0470020A847237859
:1029C000012BF8D1184B186800231A461349304FD1
:1029D000B8470128EFD12B4B93F90030002BEADAEE
:1029E0002C48174B98470022012102202A4B984778
:1029F000244B18700028D0DB08492848104B984712
:102A0000102202A91F4B93F90000254B984700287C
:102A1000C7D10122234B1A70CDE700BF44B240203A
:102A2000696A40006107400040B240203CB240204B
:102A3000212B400001284000613940003CD7400074
:102A4000AD68400094D34000115140007926400009
:102A5000A92640005551400064D740006CD7400083
:102A600094D74000B93C400018004020692840003D
:102A7000A0D740005D3A4000D0B040203510400063
:102A8000D0D7400027004020155440001CD84000FB
:102A90006D094000B8D740006951400004D840009B
:102AA00049524000C8B04020102808D1B1F1805FE1
:102AB00005D108B5024B1B6803B1984708BD7047A4
:102AC000D4B0402050B170B5441E054E054D30467F
:102AD000A847013CB4F1FF3FF9D170BD704700BF7A
:102AE00035160300010040202DE9F041094F4FF455
:102AF0000038C7F83480084D08266E636420074C00
:102B0000A047C7F830806420A0472E636420A04708
:102B1000BDE8F08100120E4000100E40C52A4000B2
:102B200010B50022144B1A600A20144CA0470B2049
:102B3000A0470C20A0471020A0471120A047104B11
:102B400008221A61C3F8A0201A630E4A4FF400311C
:102B50001161C2F8A010116304221A61C3F8A02009
:102B60001A63094B1B6813F0010F01D0064B1B6859
:102B7000064B9847002010BDD4B04020FD5D4000BA
:102B800000100E4000120E4010E000E0E92A400064
:102B900030B583B0144B18601020144B98474FF099
:102BA00020517C20124B9847124C01224FF080514B
:102BB0002046114B9847114B009351234FF0805200
:102BC000102120460E4DA8474FF0805120460D4B56
:102BD00098474FF480320C4B1A6000221021204697
:102BE0000A4B984703B030BDD4B04020FD5D400093
:102BF000055A400000140E4035584000A92A4000F4
:102C0000855B4000F359400000E100E0595C400062
:102C100008B528B94FF080510448054B984708BDC6
:102C20004FF080510148034B984708BD00140E40F7
:102C3000F7594000F3594000F8B5394C4FF4801172
:102C40002166C4F8901061656162C4F88010236F3A
:102C50000B432367636F23F4801363674FF4001201
:102C60002266C4F8902062656262C4F88020236FF7
:102C700013432367636F23F4001363674FF48003E8
:102C80002366C4F8903063656362C4F88030206FB7
:102C900018432067606F20F48000606761606260A5
:102CA00063604FF0007666602660266126631D4DE6
:102CB00028461D4B984702232B6080232B606B68AE
:102CC00043F001036B606B6843F010036B600121FC
:102CD0002846164B9847002201212846144B984756
:102CE000012211462846134B98470022012128460D
:102CF000114B984711491248124B9847C2B2012113
:102D00002846114B984700231A46012128460F4FA9
:102D1000B84701232B6026630D4B98470020F8BD70
:102D200000140E4000800040515E40007D5E400077
:102D3000F75E4000155F4000335F400000A3E111E3
:102D4000006CDC02475F40005D5F4000855F400033
:102D5000E92A40002DE9F04F83B0032844D10E68E2
:102D60004D680C8900238DF80430ADF8063086B12B
:102D7000002D36D14FF00108994601AD4FF0007299
:102D8000204B5A632CB3204FDFF894B0DFF894A0A7
:102D900006E04FF000084FF0010901AEEEE7C4B1C4
:102DA00000231A4631783846D8470DF105020DF157
:102DB00006013846D047BDF806302B70013CA4B25E
:102DC000B8F1000F00D10135B9F1000FE7D101369C
:102DD000E5E74FF000720B4B1A63002003B0BDE82B
:102DE000F08F6FF00500F9E740F21F12074908481D
:102DF000084CA0470848A0470848A0474FF0FF30BC
:102E0000ECE700BF00140E400080004090D8400066
:102E1000A0D84000AD684000B4D84000CCD84000F5
:102E2000C35E4000935E400002220E4B1A6003F521
:102E3000592303F580634FF400125A61C3F8A020B0
:102E40004FF480125A61C3F8A0204FF480025A61F7
:102E5000C3F8A0204FF000725A61C3F8A0200020F0
:102E6000704700BF008000403AB10139821811F864
:102E7000013F00F8013B9042F9D1704722B182181E
:102E800000F8011B9042FBD17047037843B1002347
:102E900001339BB210F8012F002AF9D11846704770
:102EA0000023FBE7024A13780133DBB2137070474B
:102EB000DBB040207047000000B583B001200B4B11
:102EC000984701A941F27000094B9847034618B191
:102ED000184603B05DF804FB019941F0020101912D
:102EE00041F27000034B98470346F1E7112C400074
:102EF000A5414000B141400008B5124B1B784BB9C9
:102F0000114B1B78DBB2032B0CD00F4B1B78DBB2C1
:102F1000042B07D00B4A13780133DBB21370002364
:102F2000184608BD094B984703460028F8D145F2DA
:102F3000786141F27400064B984703460028E9D0B7
:102F4000EEE700BFD9B04020D8B04020153D40008A
:102F5000B14140001E4B1B7823B11D4A1378013B41
:102F6000DBB213701A4B1B78002B2ED1194B1B7838
:102F7000DBB2032B06D0174B1B78DBB2042B01D03E
:102F8000002323E000B583B00023019344F22131F4
:102F900041F27400104B9847034618B1184603B02D
:102FA0005DF804FB01A901200C4B9847034600285B
:102FB000F4D1019911F0020FF0D021F0020101913A
:102FC0000120054B98470346E8E700231846704761
:102FD000D9B04020D8B04020B1414000A5414000C8
:102FE0002DE9F04F87B00746884692469946109CD7
:102FF000BDF84460BDF8485001F07F038DF81530EE
:103000008DF814000823ADF81630002C00F09F80D6
:10301000BDF8163016FA83F32B449BB2ADF8163088
:103020005C4B98478346002840F0A280002303931E
:10303000ADF806300293029B1F430297029B43EABE
:1030400008230293BDF81620029B43EA0243029331
:10305000029941F28C00504B98478346002840F07B
:10306000918000230293029B43F002030293029992
:1030700041F27800484B98478346002840F0828010
:1030800000230393ADF80630BDF806309BB2B3F5CC
:103090007A7F16D241F27808404F02A94046B847DD
:1030A00078B9029B13F0020F59D0BDF806300133F6
:1030B0009BB2ADF80630BDF806309BB2B3F57A7F0F
:1030C000EBD3039B002B61D0039B0493BDF8163018
:1030D0009BB2ADF816300498082205A9304B9847EA
:1030E000834600284ED1049B08330493BAF1000FA5
:1030F0000AD004984A465146294B984783460028EF
:1031000040D1049B4B4404937CB1049BA5EB09057F
:103110001D440495049832462146214B9847834626
:1031200000282FD1049B1E440496039B9B0002930E
:10313000029B43F002030293029941F26C00164B8A
:1031400098478346F0B9174B984783461AE0BDF875
:10315000163019FA83F39BB2ADF8163060E703A975
:1031600011480E4B98470028ABD000230393A8E7E3
:1031700040F29F120D490E480E4CA0470E48A04742
:103180000E48A047584607B0BDE8F08F6FF0020B1D
:10319000F8E700BFF92E4000B1414000A5414000D2
:1031A00019424000552F400000041500D0D84000BF
:1031B000A0D84000AD68400024DB4000CCD84000DF
:1031C0002DE9F04387B0DFF8F892A24FA24EDFF866
:1031D000F482D5E0042204A90598A04B9847BDF8D5
:1031E00012309BB2ADF812300446002830D1BDF841
:1031F00012309BB29D4205D0BDF812309BB2EB1A43
:10320000042B33DC9DF81030DBB2012B47D09DF846
:103210001030DBB2022B5FD09DF81030DBB2042BF4
:1032200068D09DF81030DBB2062B71D09DF81030BD
:10323000DBB2072B7AD040F2022241463046884C5E
:10324000A0478848A0478848A0476FF0050496E04B
:103250004FF4EB7241463046814DA8478348A8475A
:103260008148A8470120824B984788E040F2DF124E
:10327000414630467A4CA047BDF812209DF81030E8
:103280009DF81110009192B229467A48A0477648DD
:10329000A0470120764B98476FF005046FE0764B0E
:1032A0001B6843B19DF81100BDF812100839059A4A
:1032B000083289B29847714B1B78002B5CD140F2E1
:1032C000092241463046664CA0476D48A0476648F3
:1032D000A0476C4B98474FE06B4B1B68002BEAD024
:1032E0009DF81100BDF812100839059A083289B20C
:1032F0009847E0E7654B1B68002BDCD09DF8110078
:10330000BDF812100839059A083289B29847D2E7F9
:103310005F4B1B68002BCED09DF81100BDF812103A
:103320000839059A083289B29847C4E7594B1B6897
:10333000002BC0D09DF81100BDF812100839059A75
:10334000083289B29847B6E740F21122414630462A
:10335000434CA0475048A0474348A0476FF00104A2
:103360002FE04FF40672414630463D4CA04703998A
:103370004A48A0473C48A047494B9847044604BBED
:1033800099F80030002B00F09F8099F80030013B45
:10339000DBB289F800301FE040F21E224146304681
:1033A0002F4DA8473F48A8472F48A84709E04FF4AA
:1033B0000972414630462A4DA8473B48A8472A484B
:1033C000A84740F2432239493046254DA8472146B7
:1033D0003748A8472448A847B84704460028E6D1FC
:1033E00003A941F27000334B984704460028D3D11B
:1033F000039B13F0010FB4D01D4B9847039921F0A4
:103400000101039141F270002B4B984704460028BC
:10341000D7D10022194B1A70039DC5F38B05002DDF
:1034200092D006A941F8042D41F28400214B98471F
:10343000044600283FF4CEAE4FF4E77241463046D2
:10344000074DA8471D48A8470748A8470120084B33
:10345000984794E7F92E4000A0D84000BD414000B5
:10346000AD68400090D94000CCD8400038D9400029
:10347000112C400050D94000F0B04020DAB040207C
:10348000A8D94000B92E4000E4B04020E8B0402068
:10349000DCB04020ECB04020CCD94000E0D9400066
:1034A000552F4000FCD9400020DA4000E4D840000D
:1034B00040DA4000A5414000B141400010D9400031
:1034C000DBB04020DCD84000002007B0BDE8F0832E
:1034D0002DE9F04383B01C46002A18BF002903D011
:1034E00005460F461646B8B94CB10122324B1A7048
:1034F000324B98470346184603B0BDE8F08340F2CC
:1035000069222F492F48304CA0473048A047304807
:10351000A0476FF00B03EEE7694641F270002D4BB8
:10352000984703460028E6D1DDF8008001A941F262
:103530008400284B984703460028DCD1C8F38B0849
:1035400046451CD8019B9D4228D305EB0609434400
:10355000994523D83246394628461F4B984703469B
:103560000028C8D1019A9044C84501D0002CC2D08F
:103570000122114B1A70114B98470346BBE740F2EA
:103580007A220F490F48104CA04742463146134853
:10359000A0470F48A0476FF00B03ACE74FF4207231
:1035A00007490848084CA0470D48A0470848A047CD
:1035B0006FF00B039FE700BFDAB04020B92E400048
:1035C000F4D84000A0D84000AD68400070DA400058
:1035D000CCD84000A5414000BD41400090DA4000F9
:1035E000D4DA400038B5431E062B1DD8DFE803F0BF
:1035F0000804100C1C141800134B1960002038BD6F
:10360000124B1960002038BD114B1960002038BDE5
:10361000104B1960002038BD0F4B1960002038BDD9
:103620000E4B1960002038BD044640F2B9220C4907
:103630000C480D4DA84721460C48A8470C48A84700
:103640006FF00B0038BD00BFE4B04020F0B0402068
:10365000E8B04020E0B04020DCB04020ECB040209A
:1036600000D94000A0D84000AD68400018DB400001
:10367000CCD8400010B50024094B1C60094B1C60DD
:10368000094B1C70094B1C70094B1C7009480A4BF4
:1036900098470A4903200A4B9847204610BD00BFAF
:1036A000F0B04020E4B04020D9B04020D8B0402055
:1036B000DBB04020A52E4000912B4000B52E4000ED
:1036C000E535400030B59FB015462C282ED0044675
:1036D0001B283BD0062849D00E2825D0322855D0AB
:1036E0002F2863D0342876D0112800F09380132837
:1036F00000F0A880042800F0B780652800F0C6809C
:10370000092800F0D5802A2800F0E480202800F065
:10371000F3804FF4957286498648874DA847214625
:103720008648A8478648A8471FB030BD002304221A
:1037300003A92846834CA0470028F5D1824B1B687B
:10374000002BF1D003A92C209847EDE70023082295
:1037500003A928467B4CA0470028E5D17A4B1B687B
:10376000002BE1D003A91B209847DDE7012330227D
:1037700003A92846734CA0470028D5D1724B1B687B
:10378000002BD1D003A906209847CDE700231022B3
:1037900003A928466B4CA0470028C5D16A4B1B687B
:1037A000002BC1D003A932209847BDE76422002135
:1037B00003A8664B98470023642203A92846614C5E
:1037C000A0470028B0D1604B1B68002BACD003A9E8
:1037D0002F209847A8E70023042203A92846594C24
:1037E000A0470028A0D15A48534CA0470399CBB218
:1037F0000093C1F30723C1F30742090E5548A047C0
:103800004F48A047504B1B68002B8DD0002134201F
:10381000984789E70023504A1370042203A92846D9
:10382000484CA04700287FF47FAF9DF80C204B4BFD
:103830001A70454B1B68002B3FF476AF03A911208B
:10384000984771E700232C2203A928463D4CA04746
:1038500000287FF469AF3C4B1B68002B3FF464AF3A
:1038600003A9132098475FE7002304221CA92846D8
:10387000344CA04700287FF457AF334B1B68002B14
:103880003FF452AF1CA9042098474DE700230422BF
:103890001CA928462B4CA04700287FF445AF2A4B93
:1038A0001B68002B3FF440AF1CA9652098473BE7FD
:1038B0000123642203A92846224CA04700287FF454
:1038C00033AF214B1B68002B3FF42EAF03A9092017
:1038D000984729E70123042203A92846194CA04749
:1038E00000287FF421AF184B1B68002B3FF41CAF5E
:1038F00003A92A20984717E70023082203A928468E
:10390000104CA04700287FF40FAF0123BDF8102012
:10391000039905F10800A04700287FF405AF0A4B82
:103920001B68002B3FF400AF03A920209847FBE65B
:1039300044DB4000A0D84000AD684000A0DB400060
:10394000CCD84000D1344000F4B040207D2E40005F
:1039500074DB400080DB4000F9B04020F8B040202C
:10396000F0B58BB001238DF80730002850D00268E5
:10397000294B1A600022294B1A700DF10700284BC1
:103980009847044610B120460BB0F0BD254B984730
:103990000446002838D124490120244B984702A826
:1039A000234B98470446234F3846234DA8479DF89C
:1039B0000E309DF80D209DF80C102048A847204E91
:1039C0003046A8473846A8479DF811309DF810208A
:1039D0009DF80F101B48A8473046A8473846A8470F
:1039E0000023032213211848A8473046A84714F1A2
:1039F0000D0FC8D140F2D51214491548A8471548F3
:103A0000A8473046A847BEE70020134B9847BAE7BF
:103A10006FF00B04B7E700BFF4B04020F9B04020CE
:103A20002543400075364000C5364000E53540006E
:103A30007542400074DB4000AD68400060DC40002F
:103A4000CCD840007CDC400098DC400050DB4000DB
:103A5000A0D84000B4DC4000F143400008B5014B61
:103A6000984708BDC13140002DE9F041A0B0804623
:103A70000D4614461E46BDF89870012A03D0002B4F
:103A800037D0022A42D06B1EDBB21F2B75D8FF2F16
:103A900001D00D2F7ED82A4641460DF15A00774BB2
:103AA000984720AB1D44002305F8263CADF858701C
:103AB0009DF89C30003318BF01238DF87B308DF8C2
:103AC0005540032C73D0022C00F0AA80042C00F087
:103AD000C180012C40F0C480002302930193009325
:103AE0006C2305AA28210120654CA04720B0BDE821
:103AF000F08140F2032263496348644CA047644864
:103B0000A0476448A0476FF00B00EFE71846624BF0
:103B100098474028B7D13378A3F13A02D2B2062AA7
:103B20001ED9A3F13002D2B2362A19D8473BDBB2F4
:103B3000192B15D9314606F13F0011F8013FA3F1C9
:103B40003A02D2B2062A0BD9A3F13002D2B2362AF7
:103B500006D8473BDBB2192B02D98842EDD192E758
:103B600040F20F2247494848484CA0474B48A047DD
:103B70004848A0476FF00B00B8E740F219224149CE
:103B80004148424CA0474648A0474248A0476FF0F2
:103B90000B00ABE740F222223A493B483B4CA0479E
:103BA0004048A0473B48A0476FF00B009EE73378A2
:103BB000013BDBB28DF81430032B13D87278531EFF
:103BC0008DF8153002F0EF030B2B1AD1B11C0DF15B
:103BD00016002A4B9847737820AA1344002203F852
:103BE0006A2C79E740F2392226492748274CA0471A
:103BF0009DF814102C48A0472648A0476FF00B00F2
:103C000074E74FF410721F491F48204CA0479DF8DD
:103C100015102648A0471F48A0476FF00B0065E726
:103C200030461D4B9847431E9BB23F2B05D8421C84
:103C3000314605A8114B98474EE740F24F221149F3
:103C40001148124CA0471A48A0471248A0476FF0ED
:103C50000B004BE73E22314605A8084B98473BE74F
:103C600040F25F2207490848084CA0471148A04786
:103C70000848A0476FF00B0038E700BF692E4000EE
:103C8000E12F400060DB4000A0D84000AD6840005C
:103C9000B4DB4000CCD840008B2E4000C8DB400095
:103CA000D8DB4000ECDB4000F8DB400014DC4000D7
:103CB00030DC40004CDC400010B582B000240194A0
:103CC000BDF810400094024CA04702B010BD00BFE8
:103CD000693A400000207047F0B583B004464FF4C5
:103CE000A5550A4E0A4F21462846B04754B102A9AD
:103CF000002341F8043D2846B8470028F3D1019B32
:103D00009C42F0D1002003B0F0BD00BFB1414000A3
:103D1000A54140002DE9F04F83B001203C4B98476E
:103D200001A901203B4B9847824638B900244FF047
:103D30000108DFF80891364D374F20E072223749ED
:103D40003748384CA0473848A0473848A04709E0D2
:103D5000962232493248334CA0473548A047334871
:103D6000A047B246504603B0BDE8F08F019941F03C
:103D700002014046C847009B13F0040FF2D101999D
:103D800041F002014046C8474046A8476946294BD2
:103D90001868204B984708B9009BBBB9254E0E23E5
:103DA00033604046A847694630681A4B984708B9BF
:103DB000009B5BB91F4E132333604046A8476946FA
:103DC0003068144B984706460028C1D1194E009B15
:103DD00013F0040FC6D10134A7FB04235B0803EBE7
:103DE00043039C42C2D10220A84769463068094B70
:103DF0009847009B13F0040FE9D1AA22074908480D
:103E0000DFF820B0D8470C48D8470848D847DEE745
:103E1000C52A4000A5414000ABAAAAAAD0DC4000B8
:103E2000A0D84000AD68400040DD4000CCD8400044
:103E300060DD40002C00402080DD4000B1414000AA
:103E400000B583B001A941F20840154B9847E8B985
:103E5000019941F48071019141F20840114B98475A
:103E6000B8B901A94FF4D0500D4B9847A0B90199AA
:103E700041F4803101914FF4D0500A4B984700280B
:103E800018BF6FF0050003B05DF804FB6FF005008C
:103E9000F9E76FF00500F6E76FF00500F3E700BF04
:103EA000A5414000B141400010B582B0254B1C68CF
:103EB00024B1244B1C68204602B010BD19464FF4B3
:103EC0008050214B984718B100221E4B1A60F2E730
:103ED00001A941F2F4301C4B984718B10022194B4C
:103EE0001A60E8E7174B1B68184A93420DD0184A2E
:103EF000934211D0174A934218D0124A136823F400
:103F0000702343F4A0231360D3E7019B012BF4D06B
:103F100001320C4B1A60F0E7019B032BEDD0042B10
:103F20000CBF01320C4A074B1A60E6E705494FF413
:103F30006C10054B98470028DFD00022014B1A6017
:103F4000B9E700BFFCB04020A5414000A00210002E
:103F5000B0021000F0001000B20210002DE9F04194
:103F6000074641F21405284C284E2846A047002851
:103F700002DB0120B047F8E72548234B984710F0B3
:103F8000010F10D1DFF884801F4E224D0120C04761
:103F90004FF00C10B04704462A4601461E481F4BFE
:103FA0009847AC42F2D1022F19D0032F22D0042F10
:103FB00014BF002480241A4B9847C0F30B00B0F5BF
:103FC000687F0CBF44F002002046164B9847164904
:103FD0004FF00C10154B98470020BDE8F0811449B4
:103FE0001448124CA0474FF4801141F28C00A047B6
:103FF0000024E0E70E490F480C4CA047002141F295
:104000008C00A0470024D6E799414000C52A400013
:10401000BC0702009ED0AD10A4DD4000AD6840009A
:10402000A93E4000D93C4000612F52EFB141400011
:104030007DD51C3CAC070200F0B583B041F28C0387
:104040000193184B00930238C0B2012811D94FF0E8
:10405000FF3400200227144E144D009B984212D0CA
:104060003846B0470198A847013CF6D16FF00400EC
:104070000EE00F4B0193A3F12253A3F51113A3F20A
:10408000E9530093E3E7009A064B9A4202D00020DE
:1040900003B0F0BD002141F28C00064B9847002090
:1040A000F6E700BF36265302C52A4000994140007A
:1040B000AC070200B1414000F0B583B002A9002373
:1040C00041F8043D4FF4A050244B984720BB019980
:1040D00021F4806101914FF4A050214B984705468F
:1040E00028BB0A241D4E1E4F01A94FF4A050B04713
:1040F000054638BB019911F4806F0AD021F4806124
:1041000001914FF4A050B8470546631E13F0FF0419
:10411000EAD1284603B0F0BD40F2312211491248DD
:10412000124CA0471248A0471248A047CFE740F2E0
:1041300037220C490C480D4CA0470F48A0470D48AA
:10414000A047E6E740F23E2206490748074CA04751
:104150000A48A0470748A047DBE700BFA541400049
:10416000B1414000E0DC4000A0D84000AD68400014
:10417000ECDC4000CCD8400008DD400024DD4000ED
:1041800008B5014B984708BD392C400008B5014BD4
:10419000984708BD292E400008B5014B984708BD37
:1041A000ED49400008B5014B984708BD054A40005D
:1041B00008B5014B984708BD1D4A40002DE9F0475E
:1041C000074689461546124BB3F80080A8F1080847
:1041D0001FFA88F8424519D944460026DFF834A072
:1041E000424609EB06013846D047034658B92D1B15
:1041F00026442744A542F3D8AAB209EB0601384663
:10420000044B984703461846BDE8F0870026F3E7BD
:1042100028004020494B40002DE9F04707468946D9
:104220001546124BB3F80080A8F108081FFA88F869
:10423000424519D944460026DFF834A0424609EB2E
:1042400006013846D047034658B92D1B264427445B
:10425000A542F3D8AAB209EB06013846044B9847A9
:1042600003461846BDE8F0870026F3E72800402003
:10427000114C400030B583B0044602A9002341F838
:10428000043D2448244B98470546019A234B9A4203
:1042900039D0019B1A0C91B2080AE071C1F30311E5
:1042A000217202F00F0262729AB2110A2171C2F3F6
:1042B0000312627103F00F03A371194B984720603A
:1042C0002279A37903F00F0343EA022362791201F2
:1042D000D2B21343E179627A02F00F0242EA01227C
:1042E000217A0901C9B20A4341F230318A4288BFBA
:1042F0006FF00C0541F22F3293428CBF28466FF0CD
:104300000C0003B030BD01A941F24800024B9847B0
:104310000546BEE7AC070200A5414000C3C15DD71A
:10432000A93E400038B5002837D00478631EDBB2C0
:10433000042B28BF012400201E4B98470546002867
:104340002DD11D481D4DA8471D4B984701461D48BE
:10435000A8471D48A8471D4B984720461C4B984727
:104360000546B0B920461B4B9847054688B9023C24
:10437000E4B2012C0FD9184B9847054658B14FF4B9
:10438000AE72164916480D4CA0471648A0470E4875
:10439000A047154B9847284638BD0124CBE74FF47A
:1043A00092720E490E48054CA0471048A047064897
:1043B000A047F0E78141400074DB4000AD68400059
:1043C000A93E40006CDE4000CCD84000354A400099
:1043D0005D3F400039404000413E4000B4DD4000B8
:1043E000A0D8400030DE40008D41400050DE40004B
:1043F00038B5194B984758B90020184B98470446D0
:1044000098B9174B98470446D0B9164B98470AE01D
:1044100004464FF4BA7214491448154DA84715487C
:10442000A8471548A847204638BD40F27B120E49E0
:104430000E480F4DA8471148A8470F48A847F2E774
:1044400040F2811208490948094DA8470C48A8477D
:104450000948A847E7E700BFB9404000955440002D
:104460008D414000E1494000C0DD4000A0D840003F
:10447000AD684000D0DD4000CCD84000F0DD400009
:1044800014DE400000B585B0002301930290ADF822
:104490000C1001A90320024B984705B05DF804FBFE
:1044A000552D40002DE9F04182B0054600F13B0357
:1044B000DBB2012B27D9CF2825D00B244FF00108E0
:1044C000234F41460DF10700B847064620BB9DF833
:1044D0000730AB422CD0631E13F0FF04F1D10B2444
:1044E00001271B4D39460DF10700A84710BB9DF869
:1044F000073053B3631E13F0FF04F3D10126304697
:1045000002B0BDE8F08101210DF10700104B984782
:104510000028D2D00026F2E740F227120D490E48BB
:104520000E4CA0470E48A0470E48A0470026E6E7DD
:104530000B24D5E740F2351206490748074CA0473F
:104540000748A0470748A047D9E70126D7E700BF9B
:104550008544400084DE4000A0D84000AD684000A3
:10456000C4E24000CCD840002DE9F04F85B083462E
:104570008A4617464FF00009374D27E040F25712A0
:1045800036493748374CA0473748A0473748A047F7
:1045900000230193019805B0BDE8F08F002C2EDDBB
:1045A00041460BEB0900A8470446002834D11FB947
:1045B0002F4B1B78002B3AD0C1440FFA89F9AAEB94
:1045C000080A1FFA8AFABAF1000F41D0D046BAF5AC
:1045D000005F28BF4FF400580A24012631460DF130
:1045E0000B00A84701900028C8D19DF80B301B098B
:1045F0000F2BD3D0013C24B2B4F1FF3FEED140F2F7
:10460000631216491648174CA0479DF80B1019481D
:10461000A0471648A047BDE74FF4B6720F491048AF
:10462000104CA0471448A0471048A047B2E7022109
:1046300003A8A8470028BFD040F2771207490848CE
:10464000084DA8470D48A8470848A8470194A1E786
:10465000012301939EE700BF8544400090DE4000A7
:10466000A0D84000AD684000F8E24000CCD840003F
:1046700000B140202CE340005CE3400090E34000A8
:1046800000B585B0019000230293ADF80C1001A98C
:104690000320024B984705B05DF804FB552D400000
:1046A00070B584B09DF820408DF80400C1380E2804
:1046B00000F2A280DFE800F0454566192A33545421
:1046C0007F08A0A0A0A03C000B0C8DF805300B0AC1
:1046D0008DF806308DF807100521554B1B78002BFF
:1046E00000F08C800139C9B29AE0C1F3072344B9C4
:1046F0008DF805308DF8061000238DF80730052160
:10470000EBE763F07F038DF80530F3E700238DF8C6
:1047100005308DF806308DF807300521DDE70023E0
:104720008DF805308DF806308DF807300521D4E777
:10473000FF238DF805308DF806308DF80730052100
:10474000CBE70A0C8DF805200A0A8DF806208DF8B3
:1047500007101A0A8DF808208DF809300721BCE7E8
:104760000A0C8DF805200A0A8DF806208DF807102E
:104770001A0C8DF808201A0A8DF809208DF80A30D5
:104780000821AAE7C1F3072384B98DF805308DF815
:104790000610130E8DF80730130C8DF80830130A2D
:1047A0008DF809308DF80A20082196E763F07F0321
:1047B0008DF80530EBE70B0C8DF805300B0A8DF802
:1047C00006308DF80710130E8DF80830130C8DF895
:1047D0000930130A8DF80A308DF80B2009217CE787
:1047E0004FF4847213491448144CA0471448A0474E
:1047F0001448A047002019E0002017E04E1E01AB2E
:104800009D197F201A46104C12F8013B83EA4003A1
:10481000E05C9542F8D104AB1E44430006F80C3C22
:1048200001A80A4B98470028DAD1012004B070BDD6
:1048300000B140207CDE4000A0D84000AD684000C0
:1048400098E24000CCD84000F8DE400081464000AD
:1048500070B582B00446312835BF01230023C3253B
:10486000C925009304230A4601462846154EB04741
:1048700001280DD040F2EB1213491448144DA847FB
:1048800021461448A8471448A847002002B070BD2C
:104890002846124B98470128F8D040F2F1120A49F5
:1048A0000A480B4DA84721460D48A8470A48A84783
:1048B00000240094234622462146CF20014DA847DC
:1048C0002046E3E7A1464000B0DE4000A0D840000B
:1048D000AD68400048E44000CCD84000A54440000A
:1048E00074E440002DE9F04184B004468846B0F5F8
:1048F000807F35BF01260026C425CA2500960423E3
:104900000022014628462C4FB84701280ED040F21D
:1049100045222A492A482B4DA84721462A48A8471C
:104920002A48A847002004B0BDE8F0812846284B5B
:104930009847012814D040F24B2220492048214DAD
:10494000A84721462348A8472048A84700240094A8
:10495000234622462146CF20174DA8472046E2E7AE
:104960003246042103A81C4B9847012810D19DF81A
:104970000D209DF80E301B0443EA02239DF80C2005
:1049800013439DF80F2043EA0263C8F80030CAE7DA
:1049900040F2532209490A480A4CA0470F48A04751
:1049A0000A48A04700240094234622462146CF20EF
:1049B000014DA8472046B6E7A1464000D0DE4000A2
:1049C000A0D84000AD684000C8E34000CCD840000B
:1049D000A5444000F4E340006945400028E440005D
:1049E0000020014B1870704700B1402000B583B023
:1049F00001A9034B9847019803B05DF804FB00BF81
:104A0000E548400008B5044B984701280CBF00203A
:104A10006FF0050008BD00BFE548400008B5044B35
:104A2000984701280CBF00206FF0050008BD00BFAB
:104A30005148400030B583B0002302A941F8083D39
:104A4000344A13704EF62400334B984748B3314B29
:104A50001B787BB9009921F07C0141F05001009155
:104A60004EF624002D4B98470446002839D00122E9
:104A7000284B1A7001A94FF48050274B9847002803
:104A80003AD04EF62400264B984720F0700141F0B2
:104A900050014EF62400234B98470024204603B0D3
:104AA00030BD01221B4B1A7040F2C5221E491F481F
:104AB0001F4CA0471F48A0471F48A04769464EF615
:104AC0002400154B984704460028C0D14FF4327299
:104AD00015491648164DA8471848A8471648A8472C
:104AE000DCE740F2D22210491048114DA847144883
:104AF000A8471148A847D1E74FF437720A490B4835
:104B00000B4CA0470F48A0470B48A0476FF0050487
:104B1000C4E700BF00B14020E548400051484000D4
:104B2000ED4940001D4A4000ECDE4000A0D84000A6
:104B3000AD684000F8DF4000CCD8400048E04000BD
:104B400078E04000ACE04000F0B583B004460F468A
:104B50001546002200922B460146C820224EB0473F
:104B600001280ED04FF41D7220492148214DA8473D
:104B700021462148A8472148A8476FF0050003B007
:104B8000F0BDC8201E4B9847012812D040F27A226F
:104B900016491748174DA84721461A48A8471748ED
:104BA000A847002100910B460A46CF200E4CA04793
:104BB000E3E7002229463846134B9847012811D0D5
:104BC0004FF4217209490A480A4CA0470F48A047F0
:104BD0000A48A047002100910B460A46CF20024C0C
:104BE000A047CAE70020CAE7A1464000E0DE400037
:104BF000A0D84000AD684000D4E04000CCD84000D0
:104C0000A544400004E14000694540003CE140000B
:104C10002DE9F04385B004468846154600220092EF
:104C20002B460146C7204D4EB04701280FD040F219
:104C30000F224B494B484C4DA84721464B48A847AB
:104C40004B48A8476FF0050005B0BDE8F083C720CA
:104C5000484B9847012812D040F21522404941485C
:104C6000414DA84721464448A8474148A84700214C
:104C700000910B460A46CF20384CA047E2E70024BB
:104C8000ADF80C403D4FDFF80C911DE0B5F5005F2D
:104C900094BF0323022363F00F038DF80B3001212F
:104CA0000DF10B00B847E8B9314608EB0400B847EE
:104CB000002835D199F80030002B3CD0344424B280
:104CC000AD1BADB2002D46D02E46B5F5005F28BF16
:104CD0004FF40056002CD9D1B5F5005F94BF0323E3
:104CE0000123D8E74FF4D47225491E481E4CA04733
:104CF0002448A0471E48A04740F2262218491948D8
:104D0000194CA0472048A0471948A0470024009408
:104D1000234622462146CF20104DA847204693E740
:104D200040F2B11216490F480F4CA0471748A04750
:104D30000F48A047E0E7022103A8B8470028BDD0EC
:104D400040F2BB120E490748074CA0471048A04745
:104D50000748A047D0E7002076E700BFA146400003
:104D6000C0DE4000A0D84000AD68400064E14000D3
:104D7000CCD84000A544400094E14000814640006A
:104D8000A0DE4000CCE1400070E2400004E24000C0
:104D900038E2400000B140202DE9F84FBDF828402E
:104DA00094B181460E469246984603012249CB585B
:104DB00053B101EB00139B889BB22BB101EB0013A5
:104DC0009B7ADBB2012B01D0BDE8F88FF48001EBB8
:104DD0000017DFF87CB006E0254601230BE0641BDA
:104DE000A4B2A844ECB1BB88E31A1BB2002BF3DDDC
:104DF000BD88ADB2002339682A464046D84790B9ED
:104E00003B683360B580F3885B1BF3800B4B1B68FA
:104E1000002BE4D0094B1B68324651464846984760
:104E2000DDE7BDE8F88F0648064DA847214606484D
:104E3000A8470648A847C7E768B2402018B34020F3
:104E400074DB4000AD684000ACE44000CCD84000CA
:104E5000D1344000F0B599B01446412849D00D46F0
:104E600042285FD0432875D0442800F0B0804B28FA
:104E700000F0AD804A2800F0CC80A0F14603DBB200
:104E8000072B00F2F480852222FA03F313F0010FBE
:104E900000F0ED80482814BF0627092700231022C0
:104EA00003A92046934EB047002840F0B0809DF9FA
:104EB0001800BDF81A10904A02EB00120023137379
:104EC000BDF914E0BDF81630BDF80E60ADF82660EF
:104ED000049E0A96D28892B2914200F0AC80102DC6
:104EE00040F295800123002211461046814CA047D4
:104EF0008DE00023042207A920467E4CA04700280D
:104F000040F085809DF81D308DF80C307B4B1B6880
:104F1000002B7CD0794B1B6803AA01219DF91C0052
:104F2000984774E00023042207A92046714CA0474B
:104F300000286CD19DF81D308DF80C306F4B1B682C
:104F4000002B64D06D4B1B6803AA02219DF91C0045
:104F500098475CE000230C220DEB02012046654CD3
:104F6000A047002853D19DF91530002B19DB624A68
:104F700002EB03120021D1720121917260490A886B
:104F8000013292B20A800A8892B21AB90A880132B2
:104F900092B20A805A4A118889B2574A02EB031228
:104FA000D1808DF81C300223ADF82030BDF80E30D2
:104FB000ADF82230049B0993504B1B683BB34F4B19
:104FC0001B6807AA04219DF9140098471FE00023DD
:104FD000042207A92046474CA047C0B99DF91C00F0
:104FE0008DF80C009DF91D308DF80D303BB9BDF8E2
:104FF0001E30083B9BB2404A02EB001213813F4B2C
:105000001B6823B13D4B1B6803AA0521984719B0C3
:10501000F0BD0023442207A92046364CA0470028B3
:10502000F5D1384B1B68002BF1D0364B1B68179914
:1050300007A89847EBE7BEF1000F01DDAE450DDB99
:10504000ADF820E0002307932C4B1B68002BDED02B
:105050002A4B1B6807AA39469847D8E71FFA8EF2F1
:10506000009223443A4607A9274CA047CFE700F017
:10507000FD03452B19D04C2817D05228C7D1012346
:10508000142207A920461B4CA0470028BFD11F4B64
:10509000089A1A601B68002BB9D01C4B1B689DF83E
:1050A0002C20099907989847B1E7472814BF07258E
:1050B00008250023082207A920460E4CA0470028F7
:1050C000A5D19DF91C00BDF82020BDF81E30ADF81B
:1050D0000C30094B03EB0013DB889BB29A4296D14C
:1050E000064B1B68002B92D0044B1B6803AA294671
:1050F00098478CE7D134400068B2402018B3402074
:1051000002B1402020B34020994D40001CB3402004
:1051100008B50A4B1B7803B108BDB022002108482E
:10512000084B984708490220084B98470122034B37
:105130001A700022064B1A80EEE700BF01B1402032
:1051400068B240207D2E4000554E4000E5354000BD
:1051500002B14020024B1860024B1960704700BF3B
:1051600018B3402020B34020F0B587B0022858D1B2
:10517000012959D0022916D10B26072425462E4B8A
:1051800003EB04139B7A002B51D0631CDBB22A4F34
:10519000DCB2B44240D21D4607EB0311897A581C99
:1051A00021B10346F4E74FF0FF3437E0224800EB2B
:1051B0000310164610220021204B98471E4B03EB8C
:1051C000051301229A721E4A138801339BB2138081
:1051D00013889BB21BB9138801339BB21380184B01
:1051E0001A8892B2144B03EB0513DA8064B216F0FE
:1051F000010F13D006AA02F8044D0F4B03EB05155F
:105200002123EB7200230293019300930423502186
:1052100002200C4DA84701E04FF0FF34204607B0B4
:10522000F0BD4FF0FF34F9E707260024A6E7024857
:1052300000EB0410BDE700BF68B240207D2E4000A7
:1052400002B14020E12F400030B589B0041E36DBAA
:10525000002934D01D4B03EB04139B7ADBB2002AE8
:1052600030D0012B2ED1194B03EB0413DB7A13F052
:10527000010F22D0154B03EB0413DB7A8DF81D30A0
:105280004B258DF81C40082205A8114B98470F4864
:1052900000EB0410C388ADF81E3000230293019385
:1052A00000930C2305AA294602200A4CA047002897
:1052B00018BF6FF0080009B030BD4425E1E76FF07A
:1052C0000500F8E76FF00500F5E700BF68B2402081
:1052D000692E4000E12F400030B589B00C46003106
:1052E00018BF0121B2F5AF6F88BF0021002937D068
:1052F000002835DB1D4B03EB00139B7ADBB2012B3F
:1053000031D18DF81000ADF81220184B03EB0013CB
:10531000DB88ADF81C300728B4BF50254425134B5B
:1053200003EB0013DB7A13F0010F17D00F4B03EBE5
:1053300000100589ADB24C21029501920094102312
:105340000DEB030241F080010220094CA047002828
:105350000CBF00206FF00D0009B030BD4521EBE718
:105360006FF00500F8E76FF00500F5E768B2402040
:10537000E12F4000002918BF002A44D070B586B044
:105380000E461546002836DB204A02EB0012927AC0
:10539000D2B2012A32D11D4C0101621866509580AB
:1053A000127B002A2DD104EB001201211173D27A55
:1053B0000A40002A0CBF46214D21D3B94FF0FF33DC
:1053C00004938DF81400114B03EB0010C388ADF863
:1053D00016300023029301930093082304AA0220AD
:1053E0000B4CA04700280CBF00206FF00D0006B04A
:1053F00070BD0493E5E76FF00500F8E76FF0050076
:10540000F5E70020F3E76FF00500704768B2402031
:10541000E12F400030B587B0041E2FDB1A4B03EBA1
:1054200004139B7ADBB2012B2BD18DF81440164B61
:1054300003EB0413DA88ADF8162000229A72DA80A2
:10544000DB7A03F0010393420292019200924FF043
:10545000040305AA0CBF49214E2102200B4DA84789
:10546000051E18BF6FF0080510220021064800EB4A
:105470000410074B9847284607B030BD6FF005056C
:10548000F9E76FF00505F6E768B24020E12F40002C
:105490007D2E400070B582B005462B4B9847C0F377
:1054A0000B00B0F5687F03D20024204602B070BD27
:1054B00001A941F21040254B984704460028F4D139
:1054C000234B019A134023491943019141F21040A3
:1054D000214B984705B3002120481F4DA847AB2119
:1054E0001F48A84701211F48A84700211E48A84778
:1054F00081211E48A8471E4E1E4D3046A847012850
:10550000FBD11349019B194041F48031019141F2D3
:105510001040114B9847C8E7002110480E4DA8478E
:10552000B9210F48A84701210E48A84700210E487D
:10553000A84781210D48A8470D4E0E4D3046A8477B
:105540000128FBD1DDE700BFA93E4000A541400096
:10555000FF8F88F800101101B141400008020100DE
:105560000C020100140201001C02010004020100EF
:10557000180201009941400010B51048104B98479F
:105580003E2100200F4B98470F4CA0470028FCD02D
:105590000E4B98470E4A0F4B9A620F4CA0470028BB
:1055A000FCD002200D4B984700200D4B98470D4B27
:1055B00098470248024B984710BD00BF00A3E11175
:1055C000F5624000795D4000CD5D4000DD5D40004A
:1055D000013F182000060E40ED5D4000DD5C4000FC
:1055E000155D4000E96140006AB1F8B506460C4619
:1055F00015460D44054F14F8011B3046B847A54227
:10560000F9D10020F8BD0020704700BFDF604000E6
:105610002DE9F04180B90C469046002A0FDD8F1825
:10562000084E094D306821462B6898470134BC422A
:10563000F8D14046BDE8F0814FF0FF38F9E78046E9
:10564000F7E700BF2CB3402024B3402001380228E4
:1056500015D82DE9F0410E4614469AB10D46DFF8F3
:1056600038800C4FD8F8000015F8011B3B689847AC
:1056700000280ADBA81B013CF4D1BDE8F0814FF003
:10568000FF3070471046BDE8F0814FF0FF30BDE8B5
:10569000F08100BF28B340202CB34020F8B54FF470
:1056A00000425C4B5A60BFF34F8FBFF36F8F5A4B72
:1056B0000022C3F850225A6942F400325A61BFF303
:1056C0004F8FBFF36F8FD3F88070C7F34E3607F05C
:1056D00007000430C7F3C907B7FA87FE0EF01F0EA4
:1056E000BFF34F8F4FF0FF3404FA00FC06FA00F0CE
:1056F00004FA0EF407FA0EFE1D463A46734640EAD7
:105700000301C5F86012013A2344B2F1FF3FF6D11C
:10571000013E6044B6F1FF3FEFD1BFF34F8F3E4BE8
:105720005A6942F480325A61BFF34F8FBFF36F8FD3
:105730003A4A3B495160A1F580715160BFF34F8FE8
:10574000BFF36F8FD3F8902222F00102C3F89022AA
:10575000D3F8942222F00102C3F89422BFF34F8FB2
:10576000BFF36F8F0A202F4CA0470B20A0470C20BF
:10577000A0471020A0471120A0472B4B4FF4807268
:105780001A61C3F8A0201A63A3F580634FF4006286
:105790005A61C3F8A0205A66C3F890205A651A626D
:1057A000C3F88420196F21F400611967596F21F43F
:1057B00000615967C3F8C020C3F8D420C3F8B020F3
:1057C0004FF400121A66C3F890205A655A62C3F863
:1057D0008020196F21F400111967596F21F400110D
:1057E00059675A60114AD2F8143143F01003C2F8D5
:1057F00014310F4B10221A66C3F890205A655A6272
:10580000C3F88020196F11431967596F1143596705
:105810005A60F8BD50180E4000ED00E0000C0E403C
:105820000C08005AFD5D400000120E400080084048
:1058300000100E400AB90166704741667047426425
:10584000B1F1C05F3AD013D8B1F1006F25D0B1F1FA
:10585000805F0AD1036F13430367436F416F0B40AF
:1058600023EA02034367426070470029FBD1704777
:10587000B1F1205F21D009D8B1F1005FF3D1036FFE
:1058800013430367436F13434367ECE7B1F1405F92
:1058900013D0B1F1605F10D0E5E710B4016F046F71
:1058A000D34321401C4619400167436F416F0B40B1
:1058B0002340436742605DF8044B7047036F016FFC
:1058C0000B4023EA02030367436F13434367CAE7AE
:1058D000416412F0010F0DD1016612F00A0F0BD0D6
:1058E000016212F0020F09D112F0080F08D0C0F8BF
:1058F000841005E04166F0E74162F2E7C0F88010ED
:1059000041610160704710B4019C41644CB901666B
:105910004BB101654AB94163016101605DF8044B17
:1059200070474166F4E74165F4E70163F4E700007E
:1059300070B582B0054616461C46B1F1005F14D022
:105940000AD9B1F1405F24D0B1F1605F21D0B1F14B
:10595000205F17D000201AE0B1F1805F05D0B1F1CF
:10596000C05F02D0B1F1006FF4D132462846114B2E
:10597000984714F0010F02D12E66012007E06E66F1
:10598000012004E01A4631460B4B9847012002B033
:1059900070BD04F001030093C4F38003B1F1605FB4
:1059A00014BF0022012231462846044CA0470120A2
:1059B000EDE700BF3F584000D15840000759400074
:1059C00012F0100F12D0C0F8B01012F0200F07D054
:1059D000C0F8D41012F0400F05D0C0F8C0107047C6
:1059E000C0F8D010F6E7C0F8C4107047C0F8B41083
:1059F00070470164704741647047C06C7047806CA9
:105A00007047000070B582B00D46464C04EB501450
:105A1000640201F0F043B3F1005F59D00AD8B3F14A
:105A2000805F2FD0B3F1C05F3FD0B3F1006F16D0CD
:105A3000002012E0B3F1405F5DD0B3F1605F5AD057
:105A4000B3F1205FF4D100F01F0101262A4606FAC7
:105A500001F12046344B9847304602B070BD00F04B
:105A60001F000126864032464FF0006120462F4B32
:105A7000984715F0010F02D126660120EDE7666612
:105A80000120EAE700F01F000126864032464FF071
:105A900080512046254B984715F0010F02D126660C
:105AA0000120DAE766660120D7E700F01F00012633
:105AB000864032464FF0C05120461C4B984715F0A7
:105AC000010F02D126660120C7E766660120C4E700
:105AD00000F01F000126864032464FF0005120465C
