S01B0000574946492D73696D706C654765742D455854312E73726563B4
S214400000F0D34020B5524000B3524000B3524000B7
S214400010B3524000B3524000B352400000000000CC
S21440002000000000000000000000000095024000B4
S214400030B35240000000000011034000610340003E
S214400040B3524000B3524000B3524000B352400057
S214400050B3524000B3524000B3524000B352400047
S214400060B352400000000000CD4D4000E14D40003E
S214400070F54D4000B3524000B3524000B3524000EA
S214400080094E40001D4E4000B3524000B35240005F
S214400090B3524000B3524000B3524000B352400007
S2144000A0B3524000B3524000B3524000B3524000F7
S2144000B0B3524000B3524000B3524000B3524000E7
S2144000C0B3524000B3524000B3524000B3524000D7
S2144000D000000000B352400000000000B352400051
S2144000E0B3524000B3524000B3524000B3524000B7
S2144000F0B3524000B3524000B3524000B3524000A7
S214400100B3524000B3524000B3524000B352400096
S214400110B352400000000000000000000000000055
S214400120B3524000B3524000B3524000B352400076
S214400130B352400000000000B3524000B3524000AB
S21440014010B5054C237833B9044B13B10448AFF3CC
S21440015000800123237010BDE80940200000000005
S21440016054D740000C4B43B10C480D4910B5AFF383
S21440017000800C48036823B910BD0A48036833B9A9
S2144001807047094B002BF7D0BDE810401847064B88
S214400190002BF5D0184700BF0000000054D74000A1
S2144001A0EC09402054D740000000000000F108034E
S2144001B043604FF0FF328260C360036100230360F8
S2144001C0704700230361704743685A684A60426834
S2144001D08A605A68916059604160086103680133DB
S2144001E00360704710B40C68B4F1FF3F16D000F1BE
S2144001F00803C2681268944204D35B685A6812685F
S2144002009442FAD25A684A6091608B60596008619D
S2144002100368013303605DF8044B70470369F1E7F8
S214400220436882689A60836842685A6003695A687D
S214400230904206D0002202611A68013A1A60186895
S214400240704782685A60F5E703480068006880F3A4
S214400250088862B600DF00BF08ED00E0DFF80C005B
S214400260016841F4700101607047000088ED00E0CD
S2144002704FF0807340F8043C40F8081C002340F8D8
S2144002800C3C40F8202C6FF0020340F8243C4438E5
S21440029070470000054B19680868B0E8F04F80F3D7
S2144002A009884FF0000080F31188704738AA402034
S2144002B04FF08052014B1A60704700BF04ED00E0DB
S2144002C0EFF311804FF0A00181F3118870470020B2
S2144002D008B5034B9847034A13680133136008BDBB
S2144002E0C10240000C00402080F311887047000097
S2144002F008B5054A1368013B136003B108BD0020EA
S214400300024B9847FAE700BF0C004020E902400045
S214400310EFF30980114B1A681EF0100F08BF20ED4E
S214400320108A20E9F04F10602DE908404FF0A000F9
S21440033080F3118800F074FF4FF0000080F31188BE
S214400340BDE8084019680868B0E8F04F1EF0100F86
S21440035008BFB0EC108A80F30988704738AA40205E
S21440036008B54FF08052054B1A60054B9847054B31
S21440037098470020044B984708BD00BF04ED00E0B6
S214400380C1024000490E4000E9024000034A044BC7
S2144003901A600722043B1A60704700BFDF930400D0
S2144003A014E000E010B50C4B1A6842F470021A6074
S2144003B01A6842F070421A60084B98470024084B6F
S2144003C01C60084B9847084A136843F04043136044
S2144003D0064B9847204610BD20ED00E08D034000B8
S2144003E00C0040205D02400034EF00E0490240002F
S2144003F010B4134A00E01A4613688342FBD3516890
S2144004005418A0420AD041684418A3420BD0036057
S214400410904218BF10605DF8044B70474068014436
S21440042051601046EFE7074C2468A34206D05B684D
S2144004301944416013681B680360E9E70360E7E717
S21440044008AA4020040A402038B504462C4B98475A
S2144004502C4B1B688BB1002C4BD004F1100212F0D1
S214400460070F02D022F007020832511E49F6FE73EB
S21440047099423BD824490C6816E0234A234B136024
S2144004800021516049F6F07298181E4D286049F6D2
S214400490F475595199505A6018601D4A1368103BBC
S2144004A01360D8E721461C4663689A4202D92368FF
S2144004B0002BF7D1134B1B689C4217D00D681035A4
S2144004C023680B6063689B1A202B09D8104A136870
S2144004D061685B1A13600F4B984765B1284638BD74
S2144004E0A018436062600C4B9847EFE7094B98476B
S2144004F001E0084B9847094B98470025EEE700BFB8
S214400500190E4000040A402008AA4020080A40204D
S214400510100040206D0F4000F10340004558400059
S21440052080B110B50446084B9847084A54F80C3C2E
S21440053011680B441360A4F11000054B9847054B17
S214400540984710BD704700BF190E4000100040206D
S214400550F10340006D0F400010B50446036C5BB9D4
S21440056003681BB1A36B0133A36310BD4068124BF5
S214400570984700236360F5E76AB91A4680680F4BD0
S2144005809847A368226C1344A36062689342E9D3F9
S2144005902368A360E6E71A46C068084B9847226C73
S2144005A05242E3681344E36021688B42DAD26368C0
S2144005B01A44E260D6E700BF4D1540009D59400002
S2144005C038B50346006858B11A6CDC681444DC60E1
S2144005D05D68AC4228BFD8600846D968014B98474A
S2144005E038BD00BF9D594000F8B504461F4B98479C
S2144005F0A36C002B14DD636A93B104F124061C4DF2
S2144006001C4F07E0A36C013BA364A36C002B07DDE3
S214400610636A2BB13046A8470028F3D0B847F1E7C5
S2144006204FF0FF33A364144B9847104B9847636CC6
S214400630002B14DD236993B104F110060C4D0D4FC9
S21440064007E0636C013B6364636C002B07DD236942
S2144006502BB13046A8470028F3D0B847F1E74FF013
S214400660FF336364044B9847F8BD00BFD102400097
S2144006706513400095144000F102400038B508B3B9
S2144006800D460446174B98472268216CE36B03FBE4
S21440069001F3D01860600020A063A2605B1A134488
S2144006A0E3604FF0FF336364A36495B923692BB1CD
S2144006B004F110000C4B9847012807D00B4B984785
S2144006C0012038BD0A4B984700BFFDE7094B9847C5
S2144006D0F4E704F11000084DA84704F12400A847A9
S2144006E0ECE700BFD102400065134000F102400035
S2144006F0C1024000B1024000AD014000F8B5D8B19B
S2144007000D461746064650200D4B9847044698B16E
S21440071005FB06F001300A4B9847206048B1E66377
S214400720256401212046074B984784F84D702046A3
S214400730F8BD2046044B9847044B984700BFFDE75A
S214400740490440007D06400021054000C1024000AB
S2144007502DE9F04F85B0019248B188469946044647
S21440076049B10027394EDFF810A1394D34E0394BF6
S214400770984700BFFDE7036C1BB1364B984700BF58
S214400780FDE70027EEE74A4641462046324B98476B
S214400790636A2BB92E4B9847012005B0BDE8F08F11
S2144007A004F124002D4B98470128F3D12C4B984751
S2144007B0F0E7274B98470020EFE702A8D04715E020
S2144007C0002363641AE00023A3641BE02046254B05
S2144007D09847254B98470127B047A26BE36B9A4250
S2144007E0D1D3019B002BE4D0002FE6D0A8471F4B67
S2144007F09847B047636CB3F1FF3FE1D0A36CB3F1C9
S214400800FF3FE0D0A84701A902A8194B9847A8B9CE
S214400810B047D4F838B0E76BA847BB45D6D1019966
S21440082004F11000134B984720460E4B98470E4B4A
S21440083098470028CFD10A4B9847CCE72046094B2B
S2144008409847094B98470020A7E700BFD1024000D1
S214400850F1024000C10240005905400065134000C7
S214400860B1024000E90540006D0F4000190E4000FF
S21440087011144000C1124000E91340002DE9F04138
S21440088090B10E4615469846044689B11A4B98478D
S2144008900746A26BE36B9A4211D300243846174BA7
S2144008A098472046BDE8F081134B984700BFFDE7C8
S2144008B0036C002BEAD0104B984700BFFDE742463A
S2144008C0314620460E4B9847A36CB3F1FF3F0AD102
S2144008D0636A6BB104F124000A4B984755B148B19E
S2144008E001242C60DAE7A36C0133A3640124D5E726
S2144008F00124D3E70124D1E7C1024000E9024000C9
S21440090059054000651340002DE9F04784B0019238
S21440091048B188469946044649B10027474EDFF815
S21440092050A1474D51E0474B984700BFFDE7036C49
S2144009301BB1444B984700BFFDE70027EEE7E5684C
S21440094041462046404B9847B9F1000F17D1A36B5C
S214400950013BA363236813B93C4B98476060236907
S2144009603BB104F110003A4B9847012801D1394B6E
S2144009709847334B9847012004B0BDE8F087E560C0
S214400980636A002BF5D004F12400314B98470028C9
S214400990EFD0304B9847ECE7294B98470020EBE7E1
S2144009A002A8D0471AE0002363641FE00023A36434
S2144009B020E0B0476068284B9847A84728E0204684
S2144009C0264B9847264B98470127B047A36B002BEA
S2144009D0B5D1019B002BDFD0002FE1D0A847214B9B
S2144009E09847B047636CB3F1FF3FDCD0A36CB3F1DC
S2144009F0FF3FDBD0A84701A902A81B4B9847B0B9D8
S214400A00B047A76BA847002FD9D12368002BD0D07A
S214400A10019904F12400154B984720460F4B984700
S214400A200F4B98470028CFD10A4B9847CCE7204633
S214400A300A4B98470A4B984700209DE7D102400052
S214400A40F1024000C1024000C1054000A114400030
S214400A5065134000B1024000CD144000E905400057
S214400A606D0F4000190E400011144000C1124000A6
S214400A70E913400038B504460D460F4B9847636C63
S214400A80B3F1FF3F0BD0A36CB3F1FF3F0AD00B4B43
S214400A909847A36B4BB12046094B984738BD002377
S214400AA06364F0E70023A364F1E7294604F12400D9
S214400AB0044B9847EFE700BFD1024000F1024000E8
S214400AC0E90540002113400010B50F4B1B685860E5
S214400AD00E4B1B6898420ED304460D4B18680A4BC3
S214400AE0196804310B4B98470B4B1B689C4201D24C
S214400AF0094B1C6010BD094B1868034B196804313C
S214400B00044B984710BD00BF38AA402034AB402065
S214400B103CAA4020E50140001400402040AA402066
S214400B202DE9F04F87B005900D4693464B685B68BD
S214400B304B6001F10807BB4208D06B68D3F80CA0A5
S214400B40DFF87090194EDFF8708021E0CB684B607C
S214400B50F3E76B68DC68226B1378A52B20D1002363
S214400B6001339BB212F8011FA529F9D0E26A216C25
S214400B7002919B08019300925B4604F13402494679
S214400B803046C04731460598094B9847A24509D09C
S214400B906B685B686B609F42DBD1EB686B60D8E745
S214400BA00023E3E707B0BDE8F08F00BF10AA40205F
S214400BB0595D4000DCC440000D5D40002DE9F84F13
S214400BC00A9E0B9F0C9D48B1884693469A4681469E
S214400BD0042E07D95C4B984700BFFDE75A4B984711
S214400BE000BFFDE74C20594B98470446002851D09B
S214400BF0002D44D005634FEA8B02A5212846544B6E
S214400C0098476FF040455D44236B03EB850323F024
S214400C1007050A22414604F134004E4B984700230C
S214400C2084F83D30E662A66404F104084046DFF8E6
S214400C3078B1D84704F11800D8472461C6F10503B7
S214400C40A3616462524649462846434B9847206013
S214400C5007B13C60414B9847414A136801331360E3
S214400C60404B1B68D3B1404B1B68002B3DD13D4BDE
S214400C701B68DB6A9E4238D33A4B1C6035E04FEA2D
S214400C808B00324B9847054620630028B3D1204658
S214400C90364B98474FF0FF30BDE8F88F314B1C601D
S214400CA01368012B21D1324F3846324DA84707F101
S214400CB01400A84707F12800A84707F13C00A847BA
S214400CC007F15000A847DFF8E4904846A8472A4F67
S214400CD03846A8472948A8472948A8472948A84742
S214400CE0294BC3F80090294B1F60E06A284B1B68CD
S214400CF0984201D9264B1860264A1368236401336C
S214400D001360254B1B68984201D9234B186000EBB3
S214400D1080004146164B03EB8000204B9847204B03
S214400D209847114B1B684BB10E4B1B68DB6A9E42C3
S214400D3007D91C4B98470120BDE8F88F0120BDE835
S214400D40F88F0120BDE8F88FC102400049044000FA
S214400D50D15A40005D5F400071024000D102400021
S214400D60A8AA402038AA402008AB402021054000D1
S214400D7044AA4020AD014000D8AA4020F4AA402012
S214400D8020AB40200CAB40203CAA402040AA40204C
S214400D90C0AA4020B4AA4020BCAA4020C9014000B6
S214400DA0F1024000B1024000C3014000C4AA402006
S214400DB010B584B0002303930293019300938222DC
S214400DC00D490E480E4CA047012802D080B104B011
S214400DD010BD0C4B98470128F8D10B4B9847012281
S214400DE00A4B1A6000220A4B1A600A4B9847EEE7F5
S214400DF0054B984700BFFDE7F0C44000B9104000DF
S214400E00BD0B400045164000C102400008AB4020E4
S214400E1034AB4020A5034000024A136801331360F8
S214400E20704700BFB0AA402010B5044B9847044B0B
S214400E301C68044B9847204610BD00BFD1024000B6
S214400E4034AB4020F10240003C4B1B68002B6ED177
S214400E502DE9F0413A4B1A6801321A601B68ABB96B
S214400E60384B1B681B68002B28D1364B1968364A0E
S214400E7010681860116035490A6801320A601B68BC
S214400E801B68FBB94FF0FF32314B1A602C4B1A6887
S214400E902F4B1B689A424FD32A4B1B681B68CBB11B
S214400EA0284B1B68DB68DC686368254A12689342F7
S214400EB016D8284E284FDFF8B0802AE0274B9847B0
S214400EC000BFFDE71F4B1B68DB68DB685A68204B9A
S214400ED01A60DBE74FF0FF321D4B1A60BDE8F08129
S214400EE01B4A1360BDE8F08100EB8000294608EB02
S214400EF080001B4B9847134B1B681B68002BE9D0A0
S214400F00104B1B68DB68DC6863680D4A12689342C6
S214400F10E6D8251D2846B047A36A13B104F1180049
S214400F20B047E06A3B689842DED93860DCE70D4A55
S214400F301368013313607047BDE8F081B0AA4020C3
S214400F4034AB40203CAA402040AA4020F0AA402093
S214400F501400402021024000BCAA4020C1024000AC
S214400F60C9014000ACAA402044AA40202DE9F843DD
S214400F702F4B1B681BB92F4B984700BFFDE72E4BE6
S214400F8098472B4B1A68013A1A601B68002B4DD1C4
S214400F902A4B1B682BB10024DFF8CC80284F294E03
S214400FA014E00024284B98472046BDE8F88300EB21
S214400FB080004946254B03EB8000254B9847254B40
S214400FC01B68EA6ADB6A9A4228BF0124D8F80030D8
S214400FD07BB1D8F80C30DD6805F11800B84705F14C
S214400FE004094846B847E86A33689842DFD9306013
S214400FF0DDE7194B1B6893B1174B1B6843B1174D80
S214401000154CA8472368013B23602368002BF8D182
S2144010100022134B1A60134B98470124C2E7012C59
S214401020F6D00F4B1B68012BBCD1F1E70024B9E783
S214401030B0AA4020C1024000D1024000A8AA4020E9
S21440104021024000BCAA4020F102400044AA4020B1
S214401050C901400038AA4020ACAA4020490E4000B2
S214401060ECAA4020B1024000F4AA402010B510B9C6
S2144010700A4B984710BD0446094B9847094B1B68D6
S2144010801C44094B18680430084B98472046084BC8
S2144010909847084B98470028ECD1E9E7B102400052
S2144010A0190E400034AB402038AA402021024000B0
S2144010B0C90A40006D0F400080B5164DDFF87880B5
S2144010C0154E24E0154B1B68012B1ED82B68002BB1
S2144010D0F8D0C0473468B847002CF7D0104B984734
S2144010E0F368DC68201D0F4B98470F4A1368013B96
S2144010F013602B68013B2B600C4B9847206BDFF846
S2144011003C90C8472046C847E0E7094B9847094FF8
S214401110DCE700BFB8AA402020AB402044AA4020CD
S214401120D102400021024000A8AA4020F10240001F
S214401130B10240006D0F4000190E400021054000EE
S2144011402DE9F84306462B4B98470023337030462C
S214401150294B98473218294B19889B7831529370FF
S214401160274B1C68013404EB8403264D05EB8305AE
S214401170143D244F4FF05209DFF8A08001E0143DA3
S2144011805CB1013C04EB840357F82330002BF6D0C7
S2144011904A4629463046C047F1E71B4B1B681B684A
S2144011A06BB91A4B1B681B6883B9194B1B68A3B9EC
S2144011B0184B1B68BBB9184B9847BDE8F883124BD1
S2144011C0196842223046154B9847EAE70F4B196894
S2144011D042223046114B9847E7E744220C493046B6
S2144011E00E4B9847E4E753220A4930460B4B984744
S2144011F0E1E700BF190E4000815E400070C5400028
S214401200C0AA402044AA40203CAA402040AA4020F1
S21440121020AB40200CAB40206D0F4000210B40001F
S214401220214B1B68EBB910B5204B1B6803EB8303BF
S2144012309B001F4AD358C3B91C4B1B686BB11B4A53
S2144012401B491368013B1360136803EB830351F893
S214401250233053B91368002BF3D1164B984700BF81
S214401260FDE70122144B1A607047104B1B68104A6A
S2144012709900C81802EB80004468646844601944CA
S21440128002460832944209D003EB8303084A02EB35
S21440129083035B68DA68094B1A6010BD6068044ACD
S2144012A002EB81025060EFE7B0AA4020BCAA402083
S2144012B044AA4020C1024000ECAA402038AA402060
S2144012C038B590B10C460E4D296818310D4B9847ED
S2144012D0286804300C4B9847B4F1FF3F09D00B4BBD
S2144012E0186820440A4B984738BD0A4B984700BFB9
S2144012F0FDE7296804310848084B984738BD00BFC9
S21440130038AA4020E50140002102400034AB40208E
S214401310C90A4000C10240000CAB4020C901400051
S21440132038B578B10D46094C21681831084B9847B6
S21440133020680430074B9847074B18682844074BEB
S214401340984738BD064B984700BFFDE738AA40206F
S214401350C90140002102400034AB4020C90A400089
S214401360C102400038B5C368DC681CB304F11805F8
S2144013702846154B9847154B1B68FBB9251D284634
S214401380114B9847E06A124B1B68984201D9104BA4
S214401390186000EB800029460E4B03EB80000E4B96
S2144013A098470E4B1B68E06ADB6A984234BF0020C1
S2144013B0012038BD0A4B984700BFFDE7294609483B
S2144013C0054B9847EDE700BF21024000B0AA4020F9
S2144013D0BCAA402044AA4020C901400038AA402068
S2144013E0C1024000F4AA402008B530B1054A126850
S2144013F00260054A1268426008BD044B984700BF29
S214401400FDE700BFF0AA402034AB4020C1024000B8
S21440141038B5E8B10D460446F1B1184B98472B68ED
S214401420B3F1FF3F26D0164A12682168914204D095
S214401430144A1268616891421ED9124A126861685D
S214401440521A93420CD801240F4B9847204638BD79
S2144014500E4B984700BFFDE70C4B984700BFFDE793
S214401460084A1268521A9B1A2B602046084B984727
S2144014700024E9E70024E7E70124E5E7D10240003D
S214401480F0AA402034AB4020F1024000C1024000A8
S214401490E91340000122014B1A607047ECAA402035
S2144014A0014B1868704700BF38AA4020054B1B68A0
S2144014B033B1054B1B68002B0CBF01200220704740
S2144014C00020704708AB4020B0AA4020002831D00A
S2144014D038B50546C36A18490968C96A8B4211D2AD
S2144014E015490968C96AC1F10501816103EB8303A7
S2144014F0124901EB83034169994204D00E4B1B68A5
S214401500DB6AC36238BD041D20460D4B98470A4B24
S2144015101B68D86AE8620B4B1B68984201D9094B96
S214401520186000EB80002146044B03EB8000064B1E
S214401530984738BD704700BF38AA402044AA40208C
S21440154021024000BCAA4020C9014000E8B138B59D
S2144015500446C16A826C914216D0051D28460B4B44
S2144015609847A06CE062C0F10503A361084B1B6876
S214401570984201D9064B186000EB80002946054B7F
S21440158003EB8000044B984738BD7047210240006B
S214401590BCAA402044AA4020C901400008B541608A
S2144015A0006191420CD8D21A83699A4201D3012035
S2144015B008BD011D094B1868094B9847002008BD17
S2144015C09A4203D2994201D3012008BD011D054B22
S2144015D01868034B9847002008BD00BF3CAB40202E
S2144015E0E501400038AB402070B50D4B98470D4B99
S2144015F01B6813B10C4B984770BD0C4D28460C4EDB
S214401600B0470C4C2046B0470B4B1D600B4B1C6044
S21440161000220C2105200A4B9847024B1860E9E748
S214401620D10240006CAB4020F102400040AB40206D
S214401630AD01400054AB402038AB40203CAB40208E
S214401640FD06400010B584B00B4B98470B4B1B680B
S21440165073B10023039302930193042200924FF444
S214401660827207490748084CA04708B104B010BD2D
S214401670064B984700BFFDE7E91540006CAB40209D
S214401680F8C4400095174000BD0B4000C102400022
S21440169030B585B00F4C2568D5B11C4601910292F5
S2144016A003903BB10023224601A928460A4CA04796
S2144016B005B030BD094B984701284FF000030CBFDA
S2144016C0089A1A4601A903480068054CA047EFE768
S2144016D00020EDE76CAB40207D084000AD14400094
S2144016E0510740002DE9F04782B08146214B98478C
S2144016F08046214B1B68984215D30023C9F800301A
S2144017001D4BC3F80080404602B0BDE8F08700217C
S21440171000910B4652462046184CA04728B9184B15
S214401720984700BFFDE7174E174F33681A68C2B197
S214401730DA68D2F800A0DB68DC68251D2846B84782
S214401740636A20469847E369012BEED1A369534468
S2144017509A45DCD263602461294630680B4B984733
S214401760E3E70B4A10680749086013600123C9F88D
S2144017700030C5E7290E400068AB40209116400077
S214401780C102400038AB402021024000E501400045
S2144017903CAB40202DE9F04186B0DFF86C814E4BE3
S2144017A01B681A68002A00F08A80DB681D684B4B6D
S2144017B0984703A84A4B98470646039B002B40F0A1
S2144017C08780A8422AD3474B9847434B1B68DB6821
S2144017D0DC68201DC047E369012B08D0636A2046B9
S2144017E0984702A83E4B984707463F4E33E0A169CC
S2144017F02B463246294420463C4EB0470128EDD180
S214401800002100910B462A462046394DA84700281D
S214401810E4D1384B984700BFFDE70025A91B324B63
S2144018201868354B98472F4B98470028D9D1334BEB
S2144018309847D6E70499A16131B13B463A463944C8
S21440184020462A4CA04706E02A4B984700BFFDE7B3
S21440185020462B4B98472B4D00231A4603A9306849
S214401860A84700289BD0059C1CB163690BB1201D7E
S214401870C047039B022BDDD0032BE9D0002BEBD1D6
S2144018800499A0690B463A4601442046174DA8479E
S2144018900128E0D1636A20469847E369012BDAD1F4
S2144018A0A269002100910B46049802442046104C41
S2144018B0A0470028CFD10F4B984700BFFDE7074B06
S2144018C0984703A8064B98470646039B002BA4D090
S2144018D0044B984785E700BF38AB4020190E4000C0
S2144018E0E51640006D0F40006CAB40209D15400053
S2144018F091164000C1024000750A4000B102400007
S21440190021054000090940002102400010B582B080
S214401910074B19600B0E0193C1F307430093C1F3C5
S2144019200723CAB201460348034CA04702B010BD85
S214401930ECB0402000C5400075594000424B93F93A
S2144019400030834200D0704770B582B014460529F7
S21440195003D0062942D002B070BD3C483C4B984765
S2144019603C4B1B78002BF6D03B4D4FF4AF6200212A
S21440197028463A4B98473A4A3A4928463A4B984777
S2144019800CB394F90130002B1DDB3848304B984798
S2144019902C462846364B98472B4D002382B221468C
S2144019A095F90000334EB0474FF4AF6632460021FB
S2144019B020462A4B984700233246214695F9000098
S2144019C02D4CA047C7E70022224B1A701E4C94F9B4
S2144019D000002A4B9847FF232370BCE7002A2BD0F1
S2144019E0B2F90420002A27DD20682549254B984770
S2144019F088B1817A312914BF0021012102AC44F814
S214401A00041D2148124B9847204B186800231A465D
S214401A1021461F4CA047104C4FF4AF652A46002184
S214401A2020460E4B984700232A462146064890F902
S214401A300000114CA0478EE71846104B9847FF22EF
S214401A40014B1A7087E700BF2600402030C5400093
S214401A5075594000E8B0402070AB4020D15A400055
S214401A60DCB240204CC540000D5D400074C54000CF
S214401A70815E40006D45400009464000A946400052
S214401A8090C540007162400098C54000D4B24020E6
S214401A907D08400010B582B02C2803D0322813D0E1
S214401AA002B010BD0B78012B08D0002BF8D10D48A2
S214401AB00D4B984700220D4B1A70F1E70C480A4B25
S214401AC098470C4B9847EBE78B784A780878C97864
S214401AD0009101460848044CA0470122034B1A7067
S214401AE0DEE700BFDCC6400075594000F0B040203D
S214401AF0BCC64000692F4000FCC64000F0B4013828
S214401B00002422462546264611E0A3F13007092F39
S214401B1014D802EB820207EB420207E00135032DA0
S214401B2024DCFF2A24D842EA042432464BB110F87B
S214401B30013F2E2BF2D0E8D8002BF2D00020F0BC8C
S214401B407047022D03DCC5F10303DB009C4089B1DE
S214401B50230E43EA0463220202F47F021A43230A56
S214401B6003F47F4313430B600120E8E70020E6E7D9
S214401B700020E4E70120E2E7F0B58DB020242246BD
S214401B8000214B484B4B98470022214601204A4BA8
S214401B9098474A4B18601B68E3B100220421012095
S214401BA0454B9847464B1860444B1B68B3B1454B72
S214401BB0984700230793089309930A930B93424B45
S214401BC0069306A8414B9847014658B14048414BBA
S214401BD09847FEE740483F4B9847DEE73E483D4B38
S214401BE09847E4E73D4B98473D493E483E4B98472B
S214401BF03E4D29463E48374CA047FF2300933D4B79
S214401C0002220A2128463C4DA8470223ADF8083058
S214401C104FF4A043ADF80A3003A93848384B9847EC
S214401C2003993848A047384D384C394E0FE039486C
S214401C30284B98470BE0384F97F90000374B9847AA
S214401C40FF233B703648234B9847FA20B047002086
S214401C50A8472378012BF8D1184B186800231A465A
S214401C601349304FB8470128EFD12B4B93F900303A
S214401C70002BEADA2C48174B984700220121022015
S214401C802A4B9847244B18700028D0DB0849284830
S214401C90104B9847102202A91F4B93F90000254B82
S214401CA098470028C7D10122234B1A70CDE700BFC2
S214401CB0DCB24020D15A4000FD064000D8B2402059
S214401CC0D4B24020B51D4000951A4000F52B400088
S214401CD0C8C5400075594000B0C54000A543400007
S214401CE00D1940003D194000E9434000F0C5400052
S214401CF0FCC5400024C640004D2F40001800402040
S214401D00FD1A400030C64000F12C4000F0B04020A4
S214401D106D10400060C6400026004020A9464000A6
S214401D20ACC640000909400048C64000FD4340009C
S214401D3094C64000DD444000E8B04020102808D15A
S214401D40B1F1805F05D108B5024B1B6803B19847D7
S214401D5008BD7047F4B0402050B170B5441E054EE3
S214401D60054D3046A847013CB4F1FF3FF9D170BD60
S214401D70704700BF35160300010040202DE9F041B2
S214401D80094F4FF40038C7F83480084D08266E6374
S214401D906420074CA047C7F830806420A0472E63D5
S214401DA06420A047BDE8F08100120E4000100E40AF
S214401DB0591D400010B50022144B1A600A20144CDE
S214401DC0A0470B20A0470C20A0471020A04711207A
S214401DD0A047104B08221A61C3F8A0201A630E4A87
S214401DE04FF400311161C2F8A010116304221A6149
S214401DF0C3F8A0201A63094B1B6813F0010F01D0EB
S214401E00064B1B68064B9847002010BDF4B0402098
S214401E10D54F400000100E4000120E4010E000E08B
S214401E207D1D400030B583B0144B18601020144B15
S214401E3098474FF020517C20124B9847124C012275
S214401E404FF080512046114B9847114B0093512339
S214401E504FF08052102120460E4DA8474FF080513B
S214401E6020460D4B98474FF480320C4B1A600022A8
S214401E70102120460A4B984703B030BDF4B04020AE
S214401E80D54F4000DD4B400000140E40A14A4000B4
S214401E903D1D40005D4D4000CD4B400000E100E060
S214401EA0314E400008B528B94FF080510448054BE4
S214401EB0984708BD4FF080510148034B984708BDEE
S214401EC000140E40D14B4000CD4B4000F8B5394C85
S214401ED04FF480112166C4F8901061656162C4F8C1
S214401EE08010236F0B432367636F23F4801363676D
S214401EF04FF400122266C4F8902062656262C4F80D
S214401F008020236F13432367636F23F400136367B4
S214401F104FF480032366C4F8903063656362C4F868
S214401F208030206F18432067606F20F48000606721
S214401F306160626063604FF000766660266026618E
S214401F4026631D4D28461D4B984702232B60802351
S214401F502B606B6843F001036B606B6843F01003C3
S214401F606B6001212846164B9847002201212846DF
S214401F70144B9847012211462846134B9847002297
S214401F8001212846114B984711491248124B984751
S214401F90C2B201212846114B984700231A46012118
S214401FA028460F4FB84701232B6026630D4B9847B2
S214401FB00020F8BD00140E4000800040295040002C
S214401FC055504000CF504000ED5040000B5140006F
S214401FD000A3E111006CDC021F5140003551400067
S214401FE05D5140007D1D40002DE9F04F83B0032831
S214401FF044D10E684D680C8900238DF80430ADF846
S214402000063086B1002D36D14FF00108994601AD15
S2144020104FF00072204B5A632CB3204FDFF894B039
S214402020DFF894A006E04FF000084FF0010901AE3B
S214402030EEE7C4B100231A4631783846D8470DF14A
S21440204005020DF106013846D047BDF806302B7024
S214402050013CA4B2B8F1000F00D10135B9F1000F30
S214402060E7D10136E5E74FF000720B4B1A630020CC
S21440207003B0BDE8F08F6FF00500F9E740F21F129D
S21440208007490848084CA0470848A0470848A047C2
S2144020904FF0FF30ECE700BF00140E4000800040D9
S2144020A020C7400030C740007559400044C7400034
S2144020B05CC740009B5040006B50400002220E4BD5
S2144020C01A6003F5592303F580634FF400125A61F2
S2144020D0C3F8A0204FF480125A61C3F8A0204FF4F2
S2144020E080025A61C3F8A0204FF000725A61C3F8CC
S2144020F0A0200020704700BF008000403AB1013960
S214402100821811F8013F00F8013B9042F9D1704720
S21440211022B1821800F8011B9042FBD17047037829
S21440212043B1002301339BB210F8012F002AF9D1A6
S214402130184670470023FBE7024A13780133DBB2A8
S21440214013707047FBB040207047000000B583B066
S21440215001200B4B984701A941F27000094B984764
S214402160034618B1184603B05DF804FB019941F0E8
S2144021700201019141F27000034B98470346F1E794
S214402180A51E4000393440004534400008B5124B87
S2144021901B784BB9114B1B78DBB2032B0CD00F4B83
S2144021A01B78DBB2042B07D00B4A13780133DBB223
S2144021B013700023184608BD094B9847034600286D
S2144021C0F8D145F2786141F27400064B98470346D1
S2144021D00028E9D0EEE700BFF9B04020F8B0402034
S2144021E0A92F4000453440001E4B1B7823B11D4AA2
S2144021F01378013BDBB213701A4B1B78002B2ED1A1
S214402200194B1B78DBB2032B06D0174B1B78DBB27F
S214402210042B01D0002323E000B583B000230193B4
S21440222044F2213141F27400104B9847034618B1EE
S214402230184603B05DF804FB01A901200C4B9847F3
S21440224003460028F4D1019911F0020FF0D021F096
S214402250020101910120054B98470346E8E7002319
S21440226018467047F9B04020F8B04020453440004A
S214402270393440002DE9F04F87B0074688469246ED
S2144022809946109CBDF84460BDF8485001F07F0365
S2144022908DF815308DF814000823ADF81630002C54
S2144022A000F09F80BDF8163016FA83F32B449BB29D
S2144022B0ADF816305C4B98478346002840F0A28025
S2144022C000230393ADF806300293029B1F43029708
S2144022D0029B43EA08230293BDF81620029B43EA7A
S2144022E002430293029941F28C00504B9847834632
S2144022F0002840F0918000230293029B43F00203A3
S2144023000293029941F27800484B9847834600284A
S21440231040F0828000230393ADF80630BDF80630C7
S2144023209BB2B3F57A7F16D241F27808404F02A9A5
S2144023304046B84778B9029B13F0020F59D0BDF813
S214402340063001339BB2ADF80630BDF806309BB27E
S214402350B3F57A7FEBD3039B002B61D0039B0493AA
S214402360BDF816309BB2ADF816300498082205A981
S214402370304B9847834600284ED1049B083304933D
S214402380BAF1000F0AD004984A465146294B98475E
S2144023908346002840D1049B4B4404937CB1049B65
S2144023A0A5EB09051D440495049832462146214B69
S2144023B09847834600282FD1049B1E440496039BCF
S2144023C09B000293029B43F002030293029941F260
S2144023D06C00164B98478346F0B9174B9847834690
S2144023E01AE0BDF8163019FA83F39BB2ADF81630F2
S2144023F060E703A911480E4B98470028ABD000234E
S2144024000393A8E740F29F120D490E480E4CA04792
S2144024100E48A0470E48A047584607B0BDE8F08F84
S2144024206FF0020BF8E700BF8D21400045344000B6
S21440243039344000AD344000E92140000004150026
S21440244060C7400030C7400075594000B4C94000DE
S2144024505CC740002DE9F04387B0DFF8F892A24F02
S214402460A24EDFF8F482D5E0042204A90598A04BDA
S2144024709847BDF812309BB2ADF81230044600289B
S21440248030D1BDF812309BB29D4205D0BDF8123017
S2144024909BB2EB1A042B33DC9DF81030DBB2012BD9
S2144024A047D09DF81030DBB2022B5FD09DF810303D
S2144024B0DBB2042B68D09DF81030DBB2062B71D00F
S2144024C09DF81030DBB2072B7AD040F2022241460C
S2144024D03046884CA0478848A0478848A0476FF0B9
S2144024E0050496E04FF4EB7241463046814DA847CE
S2144024F08348A8478148A8470120824B984788E0F0
S21440250040F2DF12414630467A4CA047BDF81220D2
S2144025109DF810309DF81110009192B229467A48E5
S214402520A0477648A0470120764B98476FF00504B1
S2144025306FE0764B1B6843B19DF81100BDF8121052
S2144025400839059A083289B29847714B1B78002B98
S2144025505CD140F2092241463046664CA0476D4861
S214402560A0476648A0476C4B98474FE06B4B1B68AC
S214402570002BEAD09DF81100BDF812100839059AD4
S214402580083289B29847E0E7654B1B68002BDCD0E1
S2144025909DF81100BDF812100839059A083289B224
S2144025A09847D2E75F4B1B68002BCED09DF81100B2
S2144025B0BDF812100839059A083289B29847C4E720
S2144025C0594B1B68002BC0D09DF81100BDF8121067
S2144025D00839059A083289B29847B6E740F2112280
S2144025E041463046434CA0475048A0474348A04742
S2144025F06FF001042FE04FF40672414630463D4CE2
S214402600A04703994A48A0473C48A047494B9847AB
S214402610044604BB99F80030002B00F09F8099F8E0
S2144026200030013BDBB289F800301FE040F21E224A
S214402630414630462F4DA8473F48A8472F48A84711
S21440264009E04FF40972414630462A4DA8473B48B8
S214402650A8472A48A84740F2432239493046254DE4
S214402660A84721463748A8472448A847B8470446BD
S2144026700028E6D103A941F27000334B9847044640
S2144026800028D3D1039B13F0010FB4D01D4B9847BD
S214402690039921F00101039141F270002B4B9847BA
S2144026A004460028D7D10022194B1A70039DC5F363
S2144026B08B05002D92D006A941F8042D41F28400E6
S2144026C0214B9847044600283FF4CEAE4FF4E772BD
S2144026D041463046074DA8471D48A8470748A847E3
S2144026E00120084B984794E78D21400030C74000B2
S2144026F0513440007559400020C840005CC7400037
S214402700C8C74000A51E4000E0C7400010B14020AA
S214402710FAB0402038C840004D21400004B1402067
S21440272008B14020FCB040200CB140205CC84000BE
S21440273070C84000E92140008CC84000B0C8400046
S21440274074C74000D0C8400039344000453440008B
S214402750A0C74000FBB040206CC74000002007B038
S214402760BDE8F0832DE9F04383B01C46002A18BF2D
S214402770002903D005460F461646B8B94CB101228B
S214402780324B1A70324B98470346184603B0BDE8A2
S214402790F08340F269222F492F48304CA0473048FA
S2144027A0A0473048A0476FF00B03EEE7694641F27A
S2144027B070002D4B984703460028E6D1DDF8008090
S2144027C001A941F28400284B984703460028DCD1F3
S2144027D0C8F38B0846451CD8019B9D4228D305EB81
S2144027E006094344994523D83246394628461F4B66
S2144027F0984703460028C8D1019A9044C84501D05E
S214402800002CC2D00122114B1A70114B9847034638
S214402810BBE740F27A220F490F48104CA047424689
S21440282031461348A0470F48A0476FF00B03ACE76C
S2144028304FF4207207490848084CA0470D48A04767
S2144028400848A0476FF00B039FE700BFFAB0402050
S2144028504D21400084C7400030C7400075594000B5
S21440286000C940005CC74000393440005134400045
S21440287020C9400064C9400038B5431E062B1DD809
S214402880DFE803F00804100C1C141800134B196002
S214402890002038BD124B1960002038BD114B19601E
S2144028A0002038BD104B1960002038BD0F4B196012
S2144028B0002038BD0E4B1960002038BD044640F25B
S2144028C0B9220C490C480D4DA84721460C48A8474C
S2144028D00C48A8476FF00B0038BD00BF04B140203D
S2144028E010B1402008B1402000B14020FCB040204C
S2144028F00CB1402090C7400030C74000755940009A
S214402900A8C940005CC7400010B50024094B1C60B5
S214402910094B1C60094B1C70094B1C70094B1C7002
S21440292009480A4B98470A4903200A4B98472046CD
S21440293010BD00BF10B1402004B14020F9B0402087
S214402940F8B04020FBB0402039214000251E400012
S214402950492140007928400030B59FB015462C28C4
S2144029602ED004461B283BD0062849D00E2825D01A
S214402970322855D02F2863D0342876D0112800F03E
S2144029809380132800F0A880042800F0B7806528BC
S21440299000F0C680092800F0D5802A2800F0E480A0
S2144029A0202800F0F3804FF4957286498648874D7C
S2144029B0A84721468648A8478648A8471FB030BD46
S2144029C00023042203A92846834CA0470028F5D1BB
S2144029D0824B1B68002BF1D003A92C209847EDE7CB
S2144029E00023082203A928467B4CA0470028E5D1AF
S2144029F07A4B1B68002BE1D003A91B209847DDE7E4
S214402A000123302203A92846734CA0470028D5D17D
S214402A10724B1B68002BD1D003A906209847CDE700
S214402A200023102203A928466B4CA0470028C5D196
S214402A306A4B1B68002BC1D003A932209847BDE7DC
S214402A406422002103A8664B98470023642203A90A
S214402A502846614CA0470028B0D1604B1B68002B2D
S214402A60ACD003A92F209847A8E70023042203A947
S214402A702846594CA0470028A0D15A48534CA04756
S214402A800399CBB20093C1F30723C1F30742090E63
S214402A905548A0474F48A047504B1B68002B8DD049
S214402AA000213420984789E70023504A13700422B7
S214402AB003A92846484CA04700287FF47FAF9DF8DE
S214402AC00C204B4B1A70454B1B68002B3FF476AFDF
S214402AD003A91120984771E700232C2203A9284612
S214402AE03D4CA04700287FF469AF3C4B1B68002B49
S214402AF03FF464AF03A9132098475FE700230422FE
S214402B001CA92846344CA04700287FF457AF334BC7
S214402B101B68002B3FF452AF1CA9042098474DE792
S214402B20002304221CA928462B4CA04700287FF4EB
S214402B3045AF2A4B1B68002B3FF440AF1CA96520CD
S214402B4098473BE70123642203A92846224CA04726
S214402B5000287FF433AF214B1B68002B3FF42EAF89
S214402B6003A90920984729E70123042203A92846F8
S214402B70194CA04700287FF421AF184B1B68002B48
S214402B803FF41CAF03A92A20984717E700230822E2
S214402B9003A92846104CA04700287FF40FAF012316
S214402BA0BDF81020039905F10800A04700287FF4DF
S214402BB005AF0A4B1B68002B3FF400AF03A920204B
S214402BC09847FBE6D4C9400030C7400075594000DE
S214402BD030CA40005CC740006527400014B1402022
S214402BE01121400004CA400010CA400019B14020DC
S214402BF018B14020F0B58BB001238DF8073000287F
S214402C0050D00268294B1A600022294B1A700DF1E9
S214402C100700284B9847044610B120460BB0F0BD3D
S214402C20254B98470446002838D124490120244B98
S214402C30984702A8234B98470446234F3846234DCF
S214402C40A8479DF80E309DF80D209DF80C102048A2
S214402C50A847204E3046A8473846A8479DF811302A
S214402C609DF810209DF80F101B48A8473046A847EF
S214402C703846A8470023032213211848A847304661
S214402C80A84714F10D0FC8D140F2D5121449154883
S214402C90A8471548A8473046A847BEE70020134B2C
S214402CA09847BAE76FF00B04B7E700BF14B140206F
S214402CB019B14020B9354000092940005929400043
S214402CC0792840000935400004CA40007559400044
S214402CD0F0CA40005CC740000CCB400028CB400008
S214402CE0E0C9400030C7400044CB40008536400035
S214402CF008B5014B984708BD552440002DE9F041E2
S214402D00A0B080460D4614461E46BDF89870012A6F
S214402D1003D0002B37D0022A42D06B1EDBB21F2BCB
S214402D2075D8FF2F01D00D2F7ED82A4641460DF18B
S214402D305A00774B984720AB1D44002305F8263CA5
S214402D40ADF858709DF89C30003318BF01238DF8BD
S214402D507B308DF85540032C73D0022C00F0AA80AF
S214402D60042C00F0C180012C40F0C4800023029364
S214402D70019300936C2305AA28210120654CA047A7
S214402D8020B0BDE8F08140F2032263496348644CBA
S214402D90A0476448A0476448A0476FF00B00EFE7A1
S214402DA01846624B98474028B7D13378A3F13A0289
S214402DB0D2B2062A1ED9A3F13002D2B2362A19D888
S214402DC0473BDBB2192B15D9314606F13F0011F8C7
S214402DD0013FA3F13A02D2B2062A0BD9A3F1300240
S214402DE0D2B2362A06D8473BDBB2192B02D98842E4
S214402DF0EDD192E740F20F2247494848484CA04759
S214402E004B48A0474848A0476FF00B00B8E740F251
S214402E10192241494148424CA0474648A0474248AB
S214402E20A0476FF00B00ABE740F222223A493B48FE
S214402E303B4CA0474048A0473B48A0476FF00B009C
S214402E409EE73378013BDBB28DF81430032B13D862
S214402E507278531E8DF8153002F0EF030B2B1AD103
S214402E60B11C0DF116002A4B9847737820AA1344DC
S214402E70002203F86A2C79E740F23922264927488F
S214402E80274CA0479DF814102C48A0472648A0473A
S214402E906FF00B0074E74FF410721F491F48204C28
S214402EA0A0479DF815102648A0471F48A0476FF03A
S214402EB00B0065E730461D4B9847431E9BB23F2BA1
S214402EC005D8421C314605A8114B98474EE740F2BC
S214402ED04F2211491148124CA0471A48A0471248A1
S214402EE0A0476FF00B004BE73E22314605A8084B43
S214402EF098473BE740F25F2207490848084CA047FE
S214402F001148A0470848A0476FF00B0038E700BFBD
S214402F10FD20400075224000F0C9400030C7400008
S214402F207559400044CA40005CC740001F2140001D
S214402F3058CA400068CA40007CCA400088CA400060
S214402F40A4CA4000C0CA4000DCCA400010B582B0E7
S214402F5000240194BDF810400094024CA04702B0F3
S214402F6010BD00BFFD2C400000207047F0B583B078
S214402F7004464FF4A5550A4E0A4F21462846B04708
S214402F8054B102A9002341F8043D2846B84700281A
S214402F90F3D1019B9C42F0D1002003B0F0BD00BFAE
S214402FA045344000393440002DE9F04F83B00120CD
S214402FB03C4B984701A901203B4B9847824638B97D
S214402FC000244FF00108DFF80891364D374F20E0D7
S214402FD0722237493748384CA0473848A0473848C7
S214402FE0A04709E0962232493248334CA04735483C
S214402FF0A0473348A047B246504603B0BDE8F08FDE
S214403000019941F002014046C847009B13F0040F67
S214403010F2D1019941F002014046C8474046A847D0
S2144030206946294B1868204B984708B9009BBBB99E
S214403030254E0E2333604046A847694630681A4BF3
S214403040984708B9009B5BB91F4E13233360404630
S214403050A84769463068144B984706460028C1D1B1
S214403060194E009B13F0040FC6D10134A7FB04236E
S2144030705B0803EB43039C42C2D10220A847694643
S2144030803068094B9847009B13F0040FE9D1AA22F9
S21440309007490848DFF820B0D8470C48D8470848C2
S2144030A0D847DEE7591D400039344000ABAAAAAAEB
S2144030B060CB400030C7400075594000D0CB400040
S2144030C05CC74000F0CB40002C00402010CC4000B5
S2144030D04534400000B583B001A941F20840154B85
S2144030E09847E8B9019941F48071019141F208404E
S2144030F0114B9847B8B901A94FF4D0500D4B98479B
S214403100A0B9019941F4803101914FF4D0500A4B57
S2144031109847002818BF6FF0050003B05DF804FB21
S2144031206FF00500F9E76FF00500F6E76FF0050071
S214403130F3E700BF393440004534400010B582B054
S214403140254B1C6824B1244B1C68204602B010BD99
S21440315019464FF48050214B984718B100221E4B19
S2144031601A60F2E701A941F2F4301C4B984718B1B7
S2144031700022194B1A60E8E7174B1B68184A93421F
S2144031800DD0184A934211D0174A934218D0124A8B
S214403190136823F4702343F4A0231360D3E7019B02
S2144031A0012BF4D001320C4B1A60F0E7019B032B45
S2144031B0EDD0042B0CBF01320C4A074B1A60E6E7F1
S2144031C005494FF46C10054B98470028DFD0002285
S2144031D0014B1A60B9E700BF1CB1402039344000AB
S2144031E0A0021000B0021000F0001000B202100062
S2144031F02DE9F041074641F21405284C284E284652
S214403200A047002802DB0120B047F8E72548234BBB
S214403210984710F0010F10D1DFF884801F4E224DE2
S2144032200120C0474FF00C10B04704462A460146DE
S2144032301E481F4B9847AC42F2D1022F19D0032F9D
S21440324022D0042F14BF002480241A4B9847C0F382
S2144032500B00B0F5687F0CBF44F002002046164BCA
S214403260984716494FF00C10154B98470020BDE87C
S214403270F08114491448124CA0474FF4801141F293
S2144032808C00A0470024E0E70E490F480C4CA047AE
S214403290002141F28C00A0470024D6E72D344000A0
S2144032A0591D4000BC0702009ED0AD1034CC4000F3
S2144032B0755940003D3140006D2F4000612F52EF60
S2144032C0453440007DD51C3CAC070200F0B583B0C9
S2144032D041F28C030193184B00930238C0B2012888
S2144032E011D94FF0FF3400200227144E144D009B96
S2144032F0984212D03846B0470198A847013CF6D1CC
S2144033006FF004000EE00F4B0193A3F12253A3F598
S2144033101113A3F2E9530093E3E7009A064B9A424F
S21440332002D0002003B0F0BD002141F28C00064BD5
S21440333098470020F6E700BF36265302591D400046
S2144033402D344000AC07020045344000F0B583B051
S21440335002A9002341F8043D4FF4A050244B98475F
S21440336020BB019921F4806101914FF4A050214B7C
S2144033709847054628BB0A241D4E1E4F01A94FF408
S214403380A050B047054638BB019911F4806F0AD06B
S21440339021F4806101914FF4A050B8470546631E62
S2144033A013F0FF04EAD1284603B0F0BD40F23122C4
S2144033B011491248124CA0471248A0471248A0474D
S2144033C0CFE740F237220C490C480D4CA0470F4837
S2144033D0A0470D48A047E6E740F23E220649074888
S2144033E0074CA0470A48A0470748A047DBE700BF6E
S2144033F0393440004534400070CB400030C7400070
S214403400755940007CCB40005CC7400098CB4000DC
S214403410B4CB400008B5014B984708BDCD1E4000D0
S21440342008B5014B984708BDBD20400008B5014B84
S214403430984708BD813C400008B5014B984708BDF9
S214403440993C400008B5014B984708BDB13C400048
S2144034502DE9F047074689461546124BB3F80080DB
S214403460A8F108081FFA88F8424519D944460026AC
S214403470DFF834A0424609EB06013846D0470346FB
S21440348058B92D1B26442744A542F3D8AAB209EBC7
S21440349006013846044B984703461846BDE8F08771
S2144034A00026F3E728004020DD3D40002DE9F047A8
S2144034B0074689461546124BB3F80080A8F108081F
S2144034C01FFA88F8424519D944460026DFF834A04A
S2144034D0424609EB06013846D047034658B92D1BED
S2144034E026442744A542F3D8AAB209EB060138463B
S2144034F0044B984703461846BDE8F0870026F3E796
S21440350028004020A53E400030B583B0044602A9BE
S214403510002341F8043D2448244B98470546019A29
S214403520234B9A4239D0019B1A0C91B2080AE0719B
S214403530C1F30311217202F00F0262729AB2110AAD
S2144035402171C2F30312627103F00F03A371194B8A
S214403550984720602279A37903F00F0343EA0223B9
S21440356062791201D2B21343E179627A02F00F0215
S21440357042EA0122217A0901C9B20A4341F23031B6
S2144035808A4288BF6FF00C0541F22F3293428CBFBF
S21440359028466FF00C0003B030BD01A941F2480048
S2144035A0024B98470546BEE7AC0702003934400058
S2144035B0C3C15DD73D31400038B5002837D00478C8
S2144035C0631EDBB2042B28BF012400201E4B984705
S2144035D0054600282DD11D481D4DA8471D4B984730
S2144035E001461D48A8471D48A8471D4B98472046FA
S2144035F01C4B98470546B0B920461B4B9847054696
S21440360088B9023CE4B2012C0FD9184B98470546BE
S21440361058B14FF4AE72164916480D4CA04716489E
S214403620A0470E48A047154B9847284638BD01246A
S214403630CBE74FF492720E490E48054CA04710480F
S214403640A0470648A047F0E71534400004CA4000AB
S214403650755940003D314000FCCC40005CC74000FE
S214403660C93C4000F1314000CD324000D5304000EA
S21440367044CC400030C74000C0CC4000213440001D
S214403680E0CC400038B5194B984758B90020184B45
S2144036909847044698B9174B98470446D0B9164BF6
S2144036A098470AE004464FF4BA7214491448154D38
S2144036B0A8471548A8471548A847204638BD40F2B1
S2144036C07B120E490E480F4DA8471148A8470F4891
S2144036D0A847F2E740F2811208490948094DA84731
S2144036E00C48A8470948A847E7E700BF4D334000C5
S2144036F02947400021344000753C400050CC4000F3
S21440370030C740007559400060CC40005CC7400060
S21440371080CC4000A4CC400000B585B00023019387
S2144037200290ADF80C1001A90320024B984705B053
S2144037305DF804FBE91F40002DE9F04182B00546E4
S21440374000F13B03DBB2012B27D9CF2825D00B2431
S2144037504FF00108234F41460DF10700B847064693
S21440376020BB9DF80730AB422CD0631E13F0FF04FD
S214403770F1D10B2401271B4D39460DF10700A84710
S21440378010BB9DF8073053B3631E13F0FF04F3D10C
S2144037900126304602B0BDE8F08101210DF1070058
S2144037A0104B98470028D2D00026F2E740F2271266
S2144037B00D490E480E4CA0470E48A0470E48A0475D
S2144037C00026E6E70B24D5E740F2351206490748BF
S2144037D0074CA0470748A0470748A047D9E7012617
S2144037E0D7E700BF1937400014CD400030C740002F
S2144037F07559400054D140005CC740002DE9F04F59
S21440380085B083468A4617464FF00009374D27E075
S21440381040F2571236493748374CA0473748A047FA
S2144038203748A04700230193019805B0BDE8F08FC4
S214403830002C2EDD41460BEB0900A8470446002825
S21440384034D11FB92F4B1B78002B3AD0C1440FFA06
S21440385089F9AAEB080A1FFA8AFABAF1000F41D092
S214403860D046BAF5005F28BF4FF400580A24012618
S21440387031460DF10B00A84701900028C8D19DF8AD
S2144038800B301B090F2BD3D0013C24B2B4F1FF3FC1
S214403890EED140F2631216491648174CA0479DF8E1
S2144038A00B101948A0471648A047BDE74FF4B6721C
S2144038B00F491048104CA0471448A0471048A0474E
S2144038C0B2E7022103A8A8470028BFD040F27712EB
S2144038D007490848084DA8470D48A8470848A8473C
S2144038E00194A1E7012301939EE700BF19374000EA
S2144038F020CD400030C740007559400088D1400078
S2144039005CC7400020B14020BCD14000ECD1400014
S21440391020D2400000B585B0019000230293ADF858
S2144039200C1001A90320024B984705B05DF804FB34
S214403930E91F400070B584B09DF820408DF8040023
S214403940C1380E2800F2A280DFE800F0454566192F
S2144039502A3354547F08A0A0A0A03C000B0C8DF83E
S21440396005300B0A8DF806308DF807100521554BAB
S2144039701B78002B00F08C800139C9B29AE0C1F365
S214403980072344B98DF805308DF8061000238DF8CE
S21440399007300521EBE763F07F038DF80530F3E74A
S2144039A000238DF805308DF806308DF80730052158
S2144039B0DDE700238DF805308DF806308DF80730AA
S2144039C00521D4E7FF238DF805308DF806308DF8B5
S2144039D007300521CBE70A0C8DF805200A0A8DF83A
S2144039E006208DF807101A0A8DF808208DF8093041
S2144039F00721BCE70A0C8DF805200A0A8DF8062038
S214403A008DF807101A0C8DF808201A0A8DF8092030
S214403A108DF80A300821AAE7C1F3072384B98DF848
S214403A2005308DF80610130E8DF80730130C8DF800
S214403A300830130A8DF809308DF80A20082196E7D9
S214403A4063F07F038DF80530EBE70B0C8DF80530FF
S214403A500B0A8DF806308DF80710130E8DF80830D7
S214403A60130C8DF80930130A8DF80A308DF80B20A8
S214403A7009217CE74FF4847213491448144CA0473C
S214403A801448A0471448A047002019E0002017E03B
S214403A904E1E01AB9D197F201A46104C12F8013B72
S214403AA083EA4003E05C9542F8D104AB1E444300F1
S214403AB006F80C3C01A80A4B98470028DAD10120AA
S214403AC004B070BD20B140200CCD400030C740004F
S214403AD07559400028D140005CC7400088CD400062
S214403AE01539400070B582B00446312835BF0123F1
S214403AF00023C325C925009304230A4601462846C9
S214403B00154EB04701280DD040F2EB121349144829
S214403B10144DA84721461448A8471448A8470020F3
S214403B2002B070BD2846124B98470128F8D040F2A4
S214403B30F1120A490A480B4DA84721460D48A847A6
S214403B400A48A84700240094234622462146CF2010
S214403B50014DA8472046E3E73539400040CD4000B8
S214403B6030C7400075594000D8D240005CC740007E
S214403B703937400004D340002DE9F04184B0044674
S214403B808846B0F5807F35BF01260026C425CA2565
S214403B90009604230022014628462C4FB8470128A9
S214403BA00ED040F245222A492A482B4DA8472146A6
S214403BB02A48A8472A48A847002004B0BDE8F08114
S214403BC02846284B9847012814D040F24B222049DB
S214403BD02048214DA84721462348A8472048A847C3
S214403BE000240094234622462146CF20174DA8475E
S214403BF02046E2E73246042103A81C4B984701289A
S214403C0010D19DF80D209DF80E301B0443EA022388
S214403C109DF80C2013439DF80F2043EA0263C8F832
S214403C200030CAE740F2532209490A480A4CA047E6
S214403C300F48A0470A48A04700240094234622463F
S214403C402146CF20014DA8472046B6E735394000EB
S214403C5060CD400030C740007559400058D2400003
S214403C605CC740003937400084D24000FD374000F2
S214403C70B8D240000020014B1870704720B1402059
S214403C8000B583B001A9034B9847019803B05DF88F
S214403C9004FB00BF793B400008B5044B9847012819
S214403CA00CBF00206FF0050008BD00BF793B400008
S214403CB008B5044B984701280CBF00206FF005005C
S214403CC008BD00BFE53A400030B583B0002302A9E6
S214403CD041F8083D344A13704EF62400334B98475B
S214403CE048B3314B1B787BB9009921F07C0141F0F9
S214403CF0500100914EF624002D4B9847044600286C
S214403D0039D00122284B1A7001A94FF48050274B16
S214403D10984700283AD04EF62400264B984720F085
S214403D20700141F050014EF62400234B9847002482
S214403D30204603B030BD01221B4B1A7040F2C5220C
S214403D401E491F481F4CA0471F48A0471F48A04772
S214403D5069464EF62400154B984704460028C0D1C5
S214403D604FF4327215491648164DA8471848A847CA
S214403D701648A847DCE740F2D22210491048114DB9
S214403D80A8471448A8471148A847D1E74FF43772C8
S214403D900A490B480B4CA0470F48A0470B48A04782
S214403DA06FF00504C4E700BF20B14020793B4000D7
S214403DB0E53A4000813C4000B13C40007CCD4000AC
S214403DC030C740007559400088CE40005CC7400070
S214403DD0D8CE400008CF40003CCF4000F0B583B07E
S214403DE004460F461546002200922B460146C82040
S214403DF0224EB04701280ED04FF41D72204921486C
S214403E00214DA84721462148A8472148A8476FF09A
S214403E10050003B0F0BDC8201E4B9847012812D0BD
S214403E2040F27A2216491748174DA84721461A48A5
S214403E30A8471748A847002100910B460A46CF20BE
S214403E400E4CA047E3E7002229463846134B9847D6
S214403E50012811D04FF4217209490A480A4CA0475C
S214403E600F48A0470A48A047002100910B460A4643
S214403E70CF20024CA047CAE70020CAE735394000A9
S214403E8070CD400030C740007559400064CF4000B8
S214403E905CC740003937400094CF4000FD374000B3
S214403EA0CCCF40002DE9F04385B004468846154601
S214403EB0002200922B460146C7204D4EB0470128AF
S214403EC00FD040F20F224B494B484C4DA847214655
S214403ED04B48A8474B48A8476FF0050005B0BDE8DB
S214403EE0F083C720484B9847012812D040F215224D
S214403EF040494148414DA84721464448A847414883
S214403F00A847002100910B460A46CF20384CA047D0
S214403F10E2E70024ADF80C403D4FDFF80C911DE081
S214403F20B5F5005F94BF0323022363F00F038DF8BB
S214403F300B3001210DF10B00B847E8B9314608EBCC
S214403F400400B847002835D199F80030002B3CD003
S214403F50344424B2AD1BADB2002D46D02E46B5F546
S214403F60005F28BF4FF40056002CD9D1B5F5005F4E
S214403F7094BF03230123D8E74FF4D47225491E4843
S214403F801E4CA0472448A0471E48A04740F2262281
S214403F9018491948194CA0472048A0471948A04737
S214403FA000240094234622462146CF20104DA847A1
S214403FB0204693E740F2B11216490F480F4CA047EF
S214403FC01748A0470F48A047E0E7022103A8B84794
S214403FD00028BDD040F2BB120E490748074CA04708
S214403FE01048A0470748A047D0E7002076E700BF24
S214403FF03539400050CD400030C74000755940002C
S214404000F4CF40005CC740003937400024D0400021
S2144040101539400030CD40005CD0400000D1400013
S21440402094D04000C8D0400020B140202DE9F84F41
S214404030BDF8284094B181460E4692469846030104
S2144040402249CB5853B101EB00139B889BB22BB14E
S21440405001EB00139B7ADBB2012B01D0BDE8F88F51
S214404060F48001EB0017DFF87CB006E0254601231C
S2144040700BE0641BA4B2A844ECB1BB88E31A1BB2A5
S214404080002BF3DDBD88ADB2002339682A46404692
S214404090D84790B93B683360B580F3885B1BF380A4
S2144040A00B4B1B68002BE4D0094B1B68324651462D
S2144040B048469847DDE7BDE8F88F0648064DA847CE
S2144040C021460648A8470648A847C7E700B3402009
S2144040D0B0B3402004CA4000755940003CD340006D
S2144040E05CC7400065274000F0B599B014464128AB
S2144040F049D00D4642285FD0432875D0442800F06A
S214404100B0804B2800F0AD804A2800F0CC80A0F16B
S2144041104603DBB2072B00F2F480852222FA03F333
S21440412013F0010F00F0ED80482814BF062709273A
S2144041300023102203A92046934EB047002840F0A3
S214404140B0809DF91800BDF81A10904A02EB001294
S21440415000231373BDF914E0BDF81630BDF80E60A9
S214404160ADF82660049E0A96D28892B2914200F03C
S214404170AC80102D40F29580012300221146104657
S214404180814CA0478DE00023042207A920467E4CA0
S214404190A047002840F085809DF81D308DF80C30F3
S2144041A07B4B1B68002B7CD0794B1B6803AA0121F4
S2144041B09DF91C00984774E00023042207A9204676
S2144041C0714CA04700286CD19DF81D308DF80C30FE
S2144041D06F4B1B68002B64D06D4B1B6803AA0221F3
S2144041E09DF91C0098475CE000230C220DEB020171
S2144041F02046654CA047002853D19DF91530002B2A
S21440420019DB624A02EB03120021D172012191723E
S21440421060490A88013292B20A800A8892B21AB974
S2144042200A88013292B20A805A4A118889B2574A9D
S21440423002EB0312D1808DF81C300223ADF82030FB
S214404240BDF80E30ADF82230049B0993504B1B68E6
S2144042503BB34F4B1B6807AA04219DF914009847AF
S2144042601FE00023042207A92046474CA047C0B9B8
S2144042709DF91C008DF80C009DF91D308DF80D3011
S2144042803BB9BDF81E30083B9BB2404A02EB0012D9
S21440429013813F4B1B6823B13D4B1B6803AA052186
S2144042A0984719B0F0BD0023442207A92046364C53
S2144042B0A0470028F5D1384B1B68002BF1D0364B71
S2144042C01B68179907A89847EBE7BEF1000F01DD7A
S2144042D0AE450DDBADF820E0002307932C4B1B6862
S2144042E0002BDED02A4B1B6807AA39469847D8E7EA
S2144042F01FFA8EF2009223443A4607A9274CA0475D
S214404300CFE700F0FD03452B19D04C2817D0522894
S214404310C7D10123142207A920461B4CA0470028DA
S214404320BFD11F4B089A1A601B68002BB9D01C4B94
S2144043301B689DF82C20099907989847B1E74728AD
S21440434014BF072508250023082207A920460E4C3F
S214404350A0470028A5D19DF91C00BDF82020BDF837
S2144043601E30ADF80C30094B03EB0013DB889BB2D4
S2144043709A4296D1064B1B68002B92D0044B1B6882
S21440438003AA294698478CE76527400000B340209B
S214404390B0B3402022B14020B8B340202D4040006A
S2144043A0B4B3402008B50A4B1B7803B108BDB02211
S2144043B000210848084B984708490220084B984770
S2144043C00122034B1A700022064B1A80EEE700BF0C
S2144043D021B1402000B3402011214000E940400078
S2144043E07928400022B14020024B1860024B1960E9
S2144043F0704700BFB0B34020B8B34020F0B587B098
S214404400022858D1012959D0022916D10B26072453
S21440441025462E4B03EB04139B7A002B51D0631C8E
S214404420DBB22A4FDCB2B44240D21D4607EB031142
S214404430897A581C21B10346F4E74FF0FF3437E041
S214404440224800EB0310164610220021204B9847C6
S2144044501E4B03EB051301229A721E4A1388013342
S2144044609BB2138013889BB21BB9138801339BB24F
S2144044701380184B1A8892B2144B03EB0513DA805C
S21440448064B216F0010F13D006AA02F8044D0F4B83
S21440449003EB05152123EB7200230293019300934F
S2144044A00423502102200C4DA84701E04FF0FF3472
S2144044B0204607B0F0BD4FF0FF34F9E7072600244A
S2144044C0A6E7024800EB0410BDE700BF00B340205B
S2144044D01121400022B140207522400030B589B0FD
S2144044E0041E36DB002934D01D4B03EB04139B7AA5
S2144044F0DBB2002A30D0012B2ED1194B03EB04132C
S214404500DB7A13F0010F22D0154B03EB0413DB7A52
S2144045108DF81D304B258DF81C40082205A8114B00
S21440452098470F4800EB0410C388ADF81E300023B0
S2144045300293019300930C2305AA294602200A4CB5
S214404540A047002818BF6FF0080009B030BD4425CA
S214404550E1E76FF00500F8E76FF00500F5E700BF0C
S21440456000B34020FD2040007522400030B589B0A1
S2144045700C46003118BF0121B2F5AF6F88BF00214D
S214404580002937D0002835DB1D4B03EB00139B7A00
S214404590DBB2012B31D18DF81000ADF81220184B4C
S2144045A003EB0013DB88ADF81C300728B4BF50255A
S2144045B04425134B03EB0013DB7A13F0010F17D09F
S2144045C00F4B03EB00100589ADB24C2102950192CA
S2144045D0009410230DEB030241F080010220094CA9
S2144045E0A04700280CBF00206FF00D0009B030BD7A
S2144045F04521EBE76FF00500F8E76FF00500F5E7BB
S21440460000B3402075224000002918BF002A44D03D
S21440461070B586B00E461546002836DB204A02EBBB
S2144046200012927AD2B2012A32D11D4C0101621890
S21440463066509580127B002A2DD104EB0012012192
S2144046401173D27A0A40002A0CBF46214D21D3B9B5
S2144046504FF0FF3304938DF81400114B03EB00101A
S214404660C388ADF8163000230293019300930823C5
S21440467004AA02200B4CA04700280CBF00206FF075
S2144046800D0006B070BD0493E5E76FF00500F8E74F
S2144046906FF00500F5E70020F3E76FF00500704780
S2144046A000B340207522400030B587B0041E2FDB93
S2144046B01A4B03EB04139B7ADBB2012B2BD18DF8FC
S2144046C01440164B03EB0413DA88ADF8162000228C
S2144046D09A72DA80DB7A03F00103934202920192E7
S2144046E000924FF0040305AA0CBF49214E21022038
S2144046F00B4DA847051E18BF6FF008051022002175
S214404700064800EB0410074B9847284607B030BDD4
S2144047106FF00505F9E76FF00505F6E700B34020B2
S214404720752240001121400070B582B005462B4BE3
S2144047309847C0F30B00B0F5687F03D200242046AC
S21440474002B070BD01A941F21040254B984704467F
S2144047500028F4D1234B019A134023491943019171
S21440476041F21040214B984705B3002120481F4D89
S214404770A847AB211F48A84701211F48A84700214A
S2144047801E48A84781211E48A8471E4E1E4D30464B
S214404790A8470128FBD11349019B194041F48031B9
S2144047A0019141F21040114B9847C8E7002110484C
S2144047B00E4DA847B9210F48A84701210E48A847E3
S2144047C000210E48A84781210D48A8470D4E0E4DA2
S2144047D03046A8470128FBD1DDE700BF3D31400009
S2144047E039344000FF8F88F80010110145344000EE
S2144047F0080201000C020100140201001C02010024
S21440480004020100180201002D34400010B5104883
S214404810104B98473E2100200F4B98470F4CA0471F
S2144048200028FCD00E4B98470E4A0F4B9A620F4C0E
S214404830A0470028FCD002200D4B984700200D4B87
S21440484098470D4B98470248024B984710BD00BF0B
S21440485000A3E11189544000514F4000A54F40004D
S214404860B54F4000013F182000060E40C54F40009F
S214404870B54E4000ED4E40007D5340002DE9F041DE
S21440488080B90C469046002A0FDD8F18084E094D19
S214404890306821462B6898470134BC42F8D14046E0
S2144048A0BDE8F0814FF0FF38F9E78046F7E700BFF4
S2144048B0C4B34020BCB340200138022815D82DE9A7
S2144048C0F0410E4614469AB10D46DFF838800C4F3C
S2144048D0D8F8000015F8011B3B68984700280ADB0B
S2144048E0A81B013CF4D1BDE8F0814FF0FF30704783
S2144048F01046BDE8F0814FF0FF30BDE8F08100BFC4
S214404900C0B34020C4B34020F8B54FF400425C4BDF
S2144049105A60BFF34F8FBFF36F8F5A4B0022C3F8D6
S21440492050225A6942F400325A61BFF34F8FBFF3A8
S2144049306F8FD3F88070C7F34E3607F00700043009
S214404940C7F3C907B7FA87FE0EF01F0EBFF34F8FA7
S2144049504FF0FF3404FA00FC06FA00F004FA0EF4B6
S21440496007FA0EFE1D463A46734640EA0301C5F86E
S2144049706012013A2344B2F1FF3FF6D1013E604453
S214404980B6F1FF3FEFD1BFF34F8F3E4B5A6942F42B
S21440499080325A61BFF34F8FBFF36F8F3A4A3B491D
S2144049A05160A1F580715160BFF34F8FBFF36F8F99
S2144049B0D3F8902222F00102C3F89022D3F8942232
S2144049C022F00102C3F89422BFF34F8FBFF36F8FDC
S2144049D00A202F4CA0470B20A0470C20A0471020B1
S2144049E0A0471120A0472B4B4FF480721A61C3F8A2
S2144049F0A0201A63A3F580634FF400625A61C3F89F
S214404A00A0205A66C3F890205A651A62C3F88420DC
S214404A10196F21F400611967596F21F400615967D5
S214404A20C3F8C020C3F8D420C3F8B0204FF4001217
S214404A301A66C3F890205A655A62C3F88020196FE8
S214404A4021F400111967596F21F4001159675A6013
S214404A50114AD2F8143143F01003C2F814310F4B08
S214404A6010221A66C3F890205A655A62C3F880200E
S214404A70196F11431967596F114359675A60F8BD4A
S214404A8050180E4000ED00E0000C0E400C08005A96
S214404A90D54F400000120E400080084000100E40E7
S214404AA00AB901667047416670474264B1F1C05F1B
S214404AB03AD013D8B1F1006F25D0B1F1805F0AD15A
S214404AC0036F13430367436F416F0B4023EA0203B0
S214404AD04367426070470029FBD17047B1F1205FC1
S214404AE021D009D8B1F1005FF3D1036F13430367B8
S214404AF0436F13434367ECE7B1F1405F13D0B1F126
S214404B00605F10D0E5E710B4016F046FD3432140D7
S214404B101C4619400167436F416F0B402340436773
S214404B2042605DF8044B7047036F016F0B4023EA09
S214404B3002030367436F13434367CAE7416412F0B7
S214404B40010F0DD1016612F00A0F0BD0016212F070
S214404B50020F09D112F0080F08D0C0F8841005E003
S214404B604166F0E74162F2E7C0F8801041610160BB
S214404B70704710B4019C41644CB901664BB1016565
S214404B804AB94163016101605DF8044B7047416674
S214404B90F4E74165F4E70163F4E712F0100F12D032
S214404BA0C0F8B01012F0200F07D0C0F8D41012F0A2
S214404BB0400F05D0C0F8C0107047C0F8D010F6E7D8
S214404BC0C0F8C4107047C0F8B4107047016470470E
S214404BD041647047C06C7047806C704770B582B057
S214404BE00D46464C04EB5014640201F0F043B3F11A
S214404BF0005F59D00AD8B3F1805F2FD0B3F1C05FC1
S214404C003FD0B3F1006F16D0002012E0B3F1405F02
S214404C105DD0B3F1605F5AD0B3F1205FF4D100F0BD
S214404C201F0101262A4606FA01F12046344B9847D2
S214404C30304602B070BD00F01F0001268640324666
S214404C404FF0006120462F4B984715F0010F02D1D8
S214404C5026660120EDE766660120EAE700F01F00C1
S214404C600126864032464FF080512046254B9847D5
S214404C7015F0010F02D126660120DAE766660120AC
S214404C80D7E700F01F000126864032464FF0C0515D
S214404C9020461C4B984715F0010F02D1266601208E
S214404CA0C7E766660120C4E700F01F00012686407D
S214404CB032464FF000512046124B984715F0010FF0
S214404CC002D126660120B4E766660120B1E705F00A
S214404CD0605200F01F01012605EA06030093C5F363
S214404CE08003B2F1605F14BF0022012206FA01F190
S214404CF02046054CA04730469BE700BF07072000EC
S214404D003D4B4000AB4A4000734B40002DE9F0411C
S214404D10044688460E4B9847054620460D4B984716
S214404D20054013D00C4C04F1600603E0B4420DD0AD
S214404D3010345DB120684045F8D161682942F5D00D
S214404D40E3689847636825EA0305EFE7BDE8F08126
S214404D50D54B4000D94B400024B14020F8B5184C04
S214404D602668062E2AD84FF0000C6446154F04E0FD
S214404D700134E4B2A446A64209D3A64625017D598D
S214404D808D42F5D107EB04156D689542F0D10D4D77
S214404D904FEA0E1E05EB0E0445F80E106260A36047
S214404DA00699E1600136664505D011461A46064B1F
S214404DB098470020F8BD02490E60F6E70120F8BD8E
S214404DC094B1402024B140209B4B400008B50A21B6
S214404DD00148024B984708BD000E0E400D4D40005E
S214404DE008B50B210148024B984708BD00100E40FD
S214404DF00D4D400008B50C210148024B984708BDB0
S214404E0000120E400D4D400008B510210148024BDF
S214404E10984708BD00140E400D4D400008B51121BE
S214404E200148024B984708BD00160E400D4D400005
S214404E30F8B506460D461446174B984707464FF0BA
S214404E40FF313046154B98473046154B98475FFA2A
S214404E5085FE0EF01F03012202FA03F3680911498A
S214404E6001EB8002C2F88030C2F88031002D0ADBA8
S214404E706401E4B20C4A545541F820303946304675
S214404E800A4B9847F8BD0EF00F0E6401E4B2084A8C
S214404E9002F80E40F0E700BFD94B4000D14B40002F
S214404EA0D54B400000E100E000E400E0CD4B400080
S214404EB014ED00E0032811D0042812D002280CBFBD
S214404EC04FF480710021084A136B23F440730B4360
S214404ED01363936E13F0080FFBD070474FF4407186
S214404EE0F1E74FF40071EEE700060E40174A136BE9
S214404EF023F0700318431063936E13F0080F0AD123
S214404F004FF4805311498A6E12F0080F03D1013BCB
S214404F10F9D1012070470D4A136B23F0030343F089
S214404F2002031363936E13F0080F0AD14FF48053B5
S214404F3006498A6E12F0080F05D1013BF9D10120CF
S214404F407047002070470020704700BF00060E40A4
S214404F50A0B90E48036A090289B20D4A1A400D4BA1
S214404F601343194301620246936E13F0010FFBD0C0
S214404F70064A116A084B0B431362704703490B6A93
S214404F80064A1A40064B13430B62704700060E4013
S214404F90FCFFC8FF0100370000003701FCFFC8FED9
S214404FA002003701024B986E00F48030704700BF15
S214404FB000060E404FF00052014B9A62704700BF09
S214404FC000060E40024B986E00F00200704700BF8D
S214404FD000060E403F281ED81F280CD8114B9A6951
S214404FE001238340934318D0012303FA00F00D4B6E
S214404FF018610020704720380A4BD3F80821012357
S214405000834093430BD0012303FA00F0054BC3F8CB
S21440501000010020704701207047002070470020A4
S214405020704700BF00060E4008B5074B984203D0B5
S214405030064B984204D008BD1520054B984708BD3E
S2144050402A20034B9847F6E7008000400080054042
S214405050D54F4000436823F47023436043680904F7
S21440506001F4702119434160704710B443F6992308
S214405070046914F0010F03D1013BF9D1012009E086
S2144050808368406810F0020F02D0C3F303401070EC
S2144050900B8000205DF8044B704730B443F69924EB
S2144050A0056915F0020F03D1013CF9D101200CE04F
S2144050B0446814F0020F06D0120402F47022114322
S2144050C00BB141F08071C160002030BC704732B9EE
S2144050D000EB8100036B23F001030363704700EB92
S2144050E08100036B43F001030363704732B900EB62
S2144050F08100036B23F002030363704700EB8100DB
S214405100036B43F002030363704700EB81010B6BB4
S21440511023F0F0030B630B6B1A430A637047431E7E
S2144051201944B1FBF0F0431EFE2B94BF00B24FF083
S214405130FF3070477AB110B4144600EB81010B6B18
S21440514023F47F430B630A6B42EA04220A6300207F
S2144051505DF8044B70474FF0FF30704710B400EBDB
S2144051608101086B80B208630C6B44EA036343EA30
S21440517002430B635DF8044B7047436913F0020F1C
S21440518002D0C1610020704701207047436913F088
S214405190010F03D083690B700020704701207047D1
S2144051A010B40B01934214D9C9004B0803EBC2025A
S2144051B0B2FBF1F2D3085C1E4FF6FE718C4201D969
S2144051C0012017E0416841F4002141600CE00120D5
S2144051D010E0590801EBC202B2FBF3F2D3085C1EA2
S2144051E04FF6FE718C42F2D8120402F4E0221A43C3
S2144051F0026200205DF8044B70470000084BC0F880
S214405200E4300023436043628362882303602423A0
S21440521003604FF4807303604FF4002303607047CD
S2144052200041535570B505460C4616460F4B9847F9
S21440523000220F4B1A60A4B13246216828460D4B17
S2144052409847024678B96368A1680B4321690B43C7
S214405250E1680B4306490B6069680B436B60104678
S21440526070BD0122FBE70122F9E700BFFD51400077
S21440527098B14020A151400040230360704710235E
S21440528003607047436913F0020F04D0C1F308016E
S214405290C1610020704701207047436913F0010F39
S2144052A005D08369C3F308030B60002070470120D4
S2144052B07047FEE700B583B0254B264A9A4210D089
S2144052C0254B234A9A420CD2013B9B1A23F00303F8
S2144052D0043313441F4951F8040B42F8040B9A4216
S2144052E0F9D11E4B1E4A9A420AD2013B9B1A23F022
S2144052F0030304331344002142F8041B9342FBD1BA
S214405300184A194B23F07F039360EFF31083B3FAE8
S21440531083F35B09019372B6BFF35F8F0022134B92
S2144053201A700199124A136843F470031360BFF36E
S2144053304F8FBFF36F8F29B101220C4B1A70BFF30A
S2144053405F8F62B60B4B98470B4B9847FEE700BF04
S2144053500000402054D74000E8094020F0B34020E9
S214405360E809402000ED00E000004000300040200A
S21440537088ED00E025594000555840003B4B1B6BDC
S21440538003F00303012B1DD083B1022B36D0374BDD
S2144053901B6B03F07003702B5FD0344B1A6B344991
S2144053A0C2F302120B68D3400B607047314B5B6907
S2144053B013F0800F14BF4FF400424FF4FA422C4BC8
S2144053C01A60E4E7294B1B6A13F0807F03D02A4A11
S2144053D0274B1A60DBE7294A254B1A60234B1B6A8A
S2144053E003F07003102B05D0202BD0D1224A204B3F
S2144053F01A60CCE7224A1E4B1A60C8E71B4B1B6A52
S21440540013F0807F16D01C4A194B1A60174B1B6B43
S21440541003F00303022BBAD1144A916A926A1448E5
S214405420C1F30A41036801FB0333D2B2B3FBF2F384
S2144054300360ACE7114A0E4B1A600C4B1B6A03F034
S2144054407003102B05D0202BE0D10B4A084B1A6076
S214405450DCE70B4A064B1A60D8E7054A1368094949
S214405460A1FB03135B081360704700BF00060E40A5
S2144054703400402010180E40001BB70000093D00C5
S21440548000127A00ABAAAAAA124B984211D9124B24
S214405490984213D9114B984214D9114B984215D9BA
S2144054A0104B984294BF4FF004220F4A0F4B1A609D
S2144054B070474FF080620D4B1A6070470C4A0B4B9A
S2144054C01A6070470B4A094B1A6070470A4A074BE6
S2144054D01A607047FF2C3101FF596202FF86930322
S2144054E0FFB3C404FFE0F50500050004000C0E40C1
S2144054F00001000400020004000300040A4B1B687D
S21440550053B1094B1B681A180849914208DB1046EC
S214405510054A106018467047054A034B1A60F0E784
S2144055204FF0FF30704700BF9CB14020FCFF452045
S214405530F0D540204FF0FF3070474FF400534B609B
S214405540002070470120704700207047F0B583B0B8
S21440555005460C46002301932A4B984213D02A4B0B
S214405560984218D0294B98421DD0294B9D4222D0B4
S214405570284B9D4227D0284B9D422ED0274B9D42FC
S21440558035D003B0F0BD1F46254E21463846B047BD
S2144055900028FAD1E9E71F46214E21463846B04753
S2144055A00028FAD1E4E71F461D4E21463846B0474C
S2144055B00028FAD1DFE71F46194E21463846B04745
S2144055C00028FAD1DAE71E46164D01A93046A8470C
S2144055D00028FAD1019B2370D3E71E46114D01A93E
S2144055E03046A8470028FAD1019B2370C9E71E46DB
S2144055F00C4D01A93046A8470028FAD1019B2370DC
S214405600BFE700BF00080E40000A0E40001A0E40DA
S214405610001C0E40004002400080024000C0024095
S2144056208D5140009B52400070B50C462A4B984224
S21440563013D02A4B984219D0294B98421FD0294B59
S214405640984225D0284B98422BD0284B984231D0B0
S214405650274B984237D0002070BD1E46254D214628
S2144056603046A8470028FAD1012070BD1E46214D7D
S21440567021463046A8470028FAD1012070BD1E4674
S2144056801C4D21463046A8470028FAD1012070BD5F
S2144056901E46184D21463046A8470028FAD101201C
S2144056A070BD1E46144D21463046A8470028FAD104
S2144056B0012070BD1E46104D21463046A8470028A2
S2144056C0FAD1012070BD1E460B4D21463046A847F4
S2144056D00028FAD1012070BD00080E40000A0E4096
S2144056E0001A0E40001C0E4000400240008002405F
S2144056F000C002407B5140008552400008B5044E31
S214405700044D054C41F28830B0472846A047F9E79B
S2144057106D104000A0B140204111400070B586B0E9
S2144057200E20174EB047174D174B1D60174A184BA3
S2144057301A60184A184B1A604FF4E1330093C0239E
S21440574001934FF4006302930024039404940E20C4
S214405750B047124A69462846114B98472846114B8F
S21440576098472846104B9847104E3368214698680D
S2144057700F4DA847336821465868A84706B070BD05
S214405780D54F400000800240C4B340202956400018
S214405790C0B340204D554000BCB3402080D1F008F7
S2144057A025524000795240007F5240003800402049
S2144057B06D5B400070B582B0002502AC44F8045DD5
S2144057C02B463222014607480068074EB0472B4614
S2144057D04FF0FF32214605480068054CA047019827
S2144057E002B070BDD8B2402051074000D4B240202D
S2144057F00909400070B582B00B4B93E8030002AB3A
S21440580003E90300094E0A4C0A4D3046A047684655
S214405810A847012869460CBF07480848A04742F2F7
S2144058201070074B9847F0E778D440002CD44000DF
S21440583075594000B557400044D440005CD4400001
S2144058406D10400008B5024B984700BFFDE700BF0B
S214405850C102400010B584B0204B9847204B984773
S214405860204B98472048214B98472148214B984742
S214405870002303930293019300934FF400721E4952
S2144058801E481F4CA047012802D01E48174B984779
S214405890002303930293019300934FF480721A49B6
S2144058A01A48174CA047012802D019480F4B984772
S2144058B0002303930293019300934FF4007215491B
