:020000040040BA
:10000000B8CD4020252D4000232D4000232D400059
:10001000232D4000232D4000232D40000000000030
:1000200000000000000000000000000095024000F9
:10003000232D400000000000110340006103400038
:10004000232D4000232D4000232D4000232D400070
:10005000232D4000232D4000232D4000232D400060
:10006000232D4000000000000D2A4000212A4000FE
:10007000352A4000232D4000232D4000232D400031
:10008000492A40005D2A4000232D4000232D4000D6
:10009000232D4000232D4000232D4000232D400020
:1000A000232D4000232D4000232D4000232D400010
:1000B000232D4000232D4000232D4000232D400000
:1000C000232D4000232D4000232D4000232D4000F0
:1000D00000000000232D400000000000232D400000
:1000E000232D4000232D4000232D4000232D4000D0
:1000F000232D4000232D4000232D4000232D4000C0
:10010000232D4000232D4000232D4000232D4000AF
:10011000232D40000000000000000000000000004F
:10012000232D4000232D4000232D4000232D40008F
:10013000232D400000000000232D4000232D40000F
:1001400010B5054C237833B9044B13B10448AFF311
:1001500000800123237010BDD00940200000000062
:100160009CA040000C4B43B10C480D4910B5AFF3B7
:1001700000800C48036823B910BD0A48036833B9EE
:100180007047094B002BF7D0BDE810401847064BCD
:10019000002BF5D0184700BF000000009CA04000D5
:1001A000D40940209CA040000000000000F108039A
:1001B00043604FF0FF328260C3600361002303603D
:1001C000704700230361704743685A684A60426879
:1001D0008A605A6891605960416008610368013320
:1001E0000360704710B40C68B4F1FF3F16D000F103
:1001F0000803C2681268944204D35B685A681268A4
:100200009442FAD25A684A6091608B6059600861E2
:100210000368013303605DF8044B70470369F1E73D
:10022000436882689A60836842685A6003695A68C2
:10023000904206D0002202611A68013A1A601868DA
:10024000704782685A60F5E703480068006880F3E9
:10025000088862B600DF00BF08ED00E0DFF80C00A0
:10026000016841F4700101607047000088ED00E012
:100270004FF0807340F8043C40F8081C002340F81D
:100280000C3C40F8202C6FF0020340F8243C44382A
:1002900070470000054B19680868B0E8F04F80F31C
:1002A00009884FF0000080F31188704720AA402091
:1002B0004FF08052014B1A60704700BF04ED00E020
:1002C000EFF311804FF0A00181F3118870470020F7
:1002D00008B5034B9847034A13680133136008BD00
:1002E000C10240000C00402080F3118870470000DC
:1002F00008B5054A1368013B136003B108BD00202F
:10030000024B9847FAE700BF0C004020E90240008A
:10031000EFF30980114B1A681EF0100F08BF20ED93
:10032000108A20E9F04F10602DE908404FF0A0003E
:1003300080F3118800F074FF4FF0000080F3118803
:10034000BDE8084019680868B0E8F04F1EF0100FCB
:1003500008BFB0EC108A80F30988704720AA4020BB
:1003600008B54FF08052054B1A60054B9847054B76
:1003700098470020044B984708BD00BF04ED00E0FB
:10038000C1024000490E4000E9024000034A044B0C
:100390001A600722043B1A60704700BFDF93040015
:1003A00014E000E010B50C4B1A6842F470021A60B9
:1003B0001A6842F070421A60084B98470024084BB4
:1003C0001C60084B9847084A136843F04043136089
:1003D000064B9847204610BD20ED00E08D034000FD
:1003E0000C0040205D02400034EF00E04902400074
:1003F00010B4134A00E01A4613688342FBD35168D5
:100400005418A0420AD041684418A3420BD003609C
:10041000904218BF10605DF8044B7047406801447B
:1004200051601046EFE7074C2468A34206D05B6892
:100430001944416013681B680360E9E70360E7E75C
:10044000F0A94020EC09402038B504462C4B9847D1
:100450002C4B1B688BB1002C4BD004F1100212F016
:10046000070F02D022F007020832511E49F6FE7330
:1004700099423BD824490C6816E0234A234B136069
:100480000021516049F6F07298181E4D286049F617
:10049000F475595199505A6018601D4A1368103B01
:1004A0001360D8E721461C4663689A4202D9236844
:1004B000002BF7D1134B1B689C4217D00D681035E9
:1004C00023680B6063689B1A202B09D8104A1368B5
:1004D00061685B1A13600F4B984765B1284638BDB9
:1004E000A018436062600C4B9847EFE7094B9847B0
:1004F00001E0084B9847094B98470025EEE700BFFD
:10050000190E4000EC094020F0A94020F0094020DD
:10051000100040206D0F4000F10340008132400088
:1005200080B110B50446084B9847084A54F80C3C73
:1005300011680B441360A4F11000054B9847054B5C
:10054000984710BD704700BF190E400010004020B2
:10055000F10340006D0F400010B50446036C5BB919
:1005600003681BB1A36B0133A36310BD4068124B3A
:10057000984700236360F5E76AB91A4680680F4B15
:100580009847A368226C1344A36062689342E9D33E
:100590002368A360E6E71A46C068084B9847226CB8
:1005A0005242E3681344E36021688B42DAD2636805
:1005B0001A44E260D6E700BF4D15400065344000A4
:1005C00038B50346006858B11A6CDC681444DC6026
:1005D0005D68AC4228BFD8600846D968014B98478F
:1005E00038BD00BF65344000F8B504461F4B98473E
:1005F000A36C002B14DD636A93B104F124061C4D37
:100600001C4F07E0A36C013BA364A36C002B07DD28
:10061000636A2BB13046A8470028F3D0B847F1E70A
:100620004FF0FF33A364144B9847104B9847636C0B
:10063000002B14DD236993B104F110060C4D0D4F0E
:1006400007E0636C013B6364636C002B07DD236987
:100650002BB13046A8470028F3D0B847F1E74FF058
:10066000FF336364044B9847F8BD00BFD1024000DC
:100670006513400095144000F102400038B508B3FE
:100680000D460446174B98472268216CE36B03FB29
:1006900001F3D01860600020A063A2605B1A1344CD
:1006A000E3604FF0FF336364A36495B923692BB112
:1006B00004F110000C4B9847012807D00B4B9847CA
:1006C000012038BD0A4B984700BFFDE7094B98470A
:1006D000F4E704F11000084DA84704F12400A847EE
:1006E000ECE700BFD102400065134000F10240007A
:1006F000C1024000B1024000AD014000F8B5D8B1E0
:100700000D461746064650200D4B9847044698B1B3
:1007100005FB06F001300A4B9847206048B1E663BC
:10072000256401212046074B984784F84D702046E8
:10073000F8BD2046044B9847044B984700BFFDE79F
:10074000490440007D06400021054000C1024000F0
:100750002DE9F04F85B0019248B18846994604468C
:1007600049B10027394EDFF810A1394D34E0394B3B
:10077000984700BFFDE7036C1BB1364B984700BF9D
:10078000FDE70027EEE74A4641462046324B9847B0
:10079000636A2BB92E4B9847012005B0BDE8F08F56
:1007A00004F124002D4B98470128F3D12C4B984796
:1007B000F0E7274B98470020EFE702A8D04715E065
:1007C000002363641AE00023A3641BE02046254B4A
:1007D0009847254B98470127B047A26BE36B9A4295
:1007E000D1D3019B002BE4D0002FE6D0A8471F4BAC
:1007F0009847B047636CB3F1FF3FE1D0A36CB3F10E
:10080000FF3FE0D0A84701A902A8194B9847A8B913
:10081000B047D4F838B0E76BA847BB45D6D10199AB
:1008200004F11000134B984720460E4B98470E4B8F
:1008300098470028CFD10A4B9847CCE72046094B70
:100840009847094B98470020A7E700BFD102400016
:10085000F1024000C102400059054000651340000C
:10086000B1024000E90540006D0F4000190E400044
:1008700011144000C1124000E91340002DE9F0417D
:1008800090B10E4615469846044689B11A4B9847D2
:100890000746A26BE36B9A4211D300243846174BEC
:1008A00098472046BDE8F081134B984700BFFDE70D
:1008B000036C002BEAD0104B984700BFFDE742467F
:1008C000314620460E4B9847A36CB3F1FF3F0AD147
:1008D000636A6BB104F124000A4B984755B148B1E3
:1008E00001242C60DAE7A36C0133A3640124D5E76B
:1008F0000124D3E70124D1E7C1024000E90240000E
:1009000059054000651340002DE9F04784B001927D
:1009100048B188469946044649B10027474EDFF85A
:1009200050A1474D51E0474B984700BFFDE7036C8E
:100930001BB1444B984700BFFDE70027EEE7E56891
:1009400041462046404B9847B9F1000F17D1A36BA1
:10095000013BA363236813B93C4B9847606023694C
:100960003BB104F110003A4B9847012801D1394BB3
:100970009847334B9847012004B0BDE8F087E56005
:10098000636A002BF5D004F12400314B984700280E
:10099000EFD0304B9847ECE7294B98470020EBE726
:1009A00002A8D0471AE0002363641FE00023A36479
:1009B00020E0B0476068284B9847A84728E02046C9
:1009C000264B9847264B98470127B047A36B002B2F
:1009D000B5D1019B002BDFD0002FE1D0A847214BE0
:1009E0009847B047636CB3F1FF3FDCD0A36CB3F121
:1009F000FF3FDBD0A84701A902A81B4B9847B0B91D
:100A0000B047A76BA847002FD9D12368002BD0D0BF
:100A1000019904F12400154B984720460F4B984745
:100A20000F4B98470028CFD10A4B9847CCE7204678
:100A30000A4B98470A4B984700209DE7D102400097
:100A4000F1024000C1024000C1054000A114400075
:100A500065134000B1024000CD144000E90540009C
:100A60006D0F4000190E400011144000C1124000EB
:100A7000E913400038B504460D460F4B9847636CA8
:100A8000B3F1FF3F0BD0A36CB3F1FF3F0AD00B4B88
:100A90009847A36B4BB12046094B984738BD0023BC
:100AA0006364F0E70023A364F1E7294604F124001E
:100AB000044B9847EFE700BFD1024000F10240002D
:100AC000E90540002113400010B50F4B1B6858602A
:100AD0000E4B1B6898420ED304460D4B18680A4B08
:100AE000196804310B4B98470B4B1B689C4201D291
:100AF000094B1C6010BD094B1868034B1968043181
:100B0000044B984710BD00BF20AA40201CAB4020DA
:100B100024AA4020E50140001400402028AA4020DB
:100B20002DE9F04F87B005900D4693464B685B6802
:100B30004B6001F10807BB4208D06B68D3F80CA0EA
:100B4000DFF87090194EDFF8708021E0CB684B60C1
:100B5000F3E76B68DC68226B1378A52B20D10023A8
:100B600001339BB212F8011FA529F9D0E26A216C6A
:100B700002919B08019300925B4604F134024946BE
:100B80003046C04731460598094B9847A24509D0E1
:100B90006B685B686B609F42DBD1EB686B60D8E78A
:100BA0000023E3E707B0BDE8F08F00BFF8A94020BD
:100BB000B9384000149A40006D3840002DE9F84FD4
:100BC0000A9E0B9F0C9D48B1884693469A468146E3
:100BD000042E07D95C4B984700BFFDE75A4B984756
:100BE00000BFFDE74C20594B98470446002851D0E0
:100BF000002D44D005634FEA8B02A5212846544BB3
:100C000098476FF040455D44236B03EB850323F069
:100C100007050A22414604F134004E4B9847002351
:100C200084F83D30E662A66404F104084046DFF82B
:100C300078B1D84704F11800D8472461C6F10503FC
:100C4000A3616462524649462846434B9847206058
:100C500007B13C60414B9847414A13680133136028
:100C6000404B1B68D3B1404B1B68002B3DD13D4B23
:100C70001B68DB6A9E4238D33A4B1C6035E04FEA72
:100C80008B00324B9847054620630028B3D120469D
:100C9000364B98474FF0FF30BDE8F88F314B1C6062
:100CA0001368012B21D1324F3846324DA84707F146
:100CB0001400A84707F12800A84707F13C00A847FF
:100CC00007F15000A847DFF8E4904846A8472A4FAC
:100CD0003846A8472948A8472948A8472948A84787
:100CE000294BC3F80090294B1F60E06A284B1B6812
:100CF000984201D9264B1860264A136823640133B1
:100D00001360254B1B68984201D9234B186000EBF8
:100D100080004146164B03EB8000204B9847204B48
:100D20009847114B1B684BB10E4B1B68DB6A9E4208
:100D300007D91C4B98470120BDE8F88F0120BDE87A
:100D4000F88F0120BDE8F88FC1024000490440003F
:100D5000993540009D3A400071024000D1024000A8
:100D600090AA402020AA4020F0AA4020210540005F
:100D70002CAA4020AD014000C0AA4020DCAA40209F
:100D800008AB4020F4AA402024AA402028AA4020F2
:100D9000A8AA40209CAA4020A4AA4020C901400043
:100DA000F1024000B1024000C3014000ACAA402063
:100DB00010B584B000230393029301930093822221
:100DC0000D490E480E4CA047012802D080B104B056
:100DD00010BD0C4B98470128F8D10B4B98470122C6
:100DE0000A4B1A6000220A4B1A600A4B9847EEE73A
:100DF000054B984700BFFDE72C9A4000B910400012
:100E0000BD0B400045164000C1024000F0AA402042
:100E10001CAB4020A5034000024A13680133136055
:100E2000704700BF98AA402010B5044B9847044B68
:100E30001C68044B9847204610BD00BFD1024000FB
:100E40001CAB4020F10240003C4B1B68002B6ED1D4
:100E50002DE9F0413A4B1A6801321A601B68ABB9B0
:100E6000384B1B681B68002B28D1364B1968364A53
:100E700010681860116035490A6801320A601B6801
:100E80001B68FBB94FF0FF32314B1A602C4B1A68CC
:100E90002F4B1B689A424FD32A4B1B681B68CBB160
:100EA000284B1B68DB68DC686368254A126893423C
:100EB00016D8284E284FDFF8B0802AE0274B9847F5
:100EC00000BFFDE71F4B1B68DB68DB685A68204BDF
:100ED0001A60DBE74FF0FF321D4B1A60BDE8F0816E
:100EE0001B4A1360BDE8F08100EB8000294608EB47
:100EF00080001B4B9847134B1B681B68002BE9D0E5
:100F0000104B1B68DB68DC6863680D4A126893420B
:100F1000E6D8251D2846B047A36A13B104F118008E
:100F2000B047E06A3B689842DED93860DCE70D4A9A
:100F30001368013313607047BDE8F08198AA402020
:100F40001CAB402024AA402028AA4020D8AA402038
:100F50001400402021024000A4AA4020C102400009
:100F6000C901400094AA40202CAA40202DE9F84352
:100F70002F4B1B681BB92F4B984700BFFDE72E4B2B
:100F800098472B4B1A68013A1A601B68002B4DD109
:100F90002A4B1B682BB10024DFF8CC80284F294E48
:100FA00014E00024284B98472046BDE8F88300EB66
:100FB00080004946254B03EB8000254B9847254B85
:100FC0001B68EA6ADB6A9A4228BF0124D8F800301D
:100FD0007BB1D8F80C30DD6805F11800B84705F191
:100FE00004094846B847E86A33689842DFD9306058
:100FF000DDE7194B1B6893B1174B1B6843B1174DC5
:10100000154CA8472368013B23602368002BF8D1C7
:101010000022134B1A60134B98470124C2E7012C9E
:10102000F6D00F4B1B68012BBCD1F1E70024B9E7C8
:1010300098AA4020C1024000D102400090AA40205E
:1010400021024000A4AA4020F10240002CAA402026
:10105000C901400020AA402094AA4020490E400027
:10106000D4AA4020B1024000DCAA402010B510B93B
:101070000A4B984710BD0446094B9847094B1B681B
:101080001C44094B18680430084B98472046084B0D
:101090009847084B98470028ECD1E9E7B102400097
:1010A000190E40001CAB402020AA40202102400025
:1010B000C90A40006D0F400080B5164DDFF87880FA
:1010C000154E24E0154B1B68012B1ED82B68002BF6
:1010D000F8D0C0473468B847002CF7D0104B984779
:1010E000F368DC68201D0F4B98470F4A1368013BDB
:1010F00013602B68013B2B600C4B9847206BDFF88B
:101100003C90C8472046C847E0E7094B9847094F3D
:10111000DCE700BFA0AA402008AB40202CAA40205A
:10112000D10240002102400090AA4020F10240007C
:10113000B10240006D0F4000190E40002105400033
:101140002DE9F84306462B4B984700233370304671
:10115000294B98473218294B19889B783152937044
:10116000274B1C68013404EB8403264D05EB8305F3
:10117000143D244F4FF05209DFF8A08001E0143DE8
:101180005CB1013C04EB840357F82330002BF6D00C
:101190004A4629463046C047F1E71B4B1B681B688F
:1011A0006BB91A4B1B681B6883B9194B1B68A3B931
:1011B000184B1B68BBB9184B9847BDE8F883124B16
:1011C000196842223046154B9847EAE70F4B1968D9
:1011D00042223046114B9847E7E744220C493046FB
:1011E0000E4B9847E4E753220A4930460B4B984789
:1011F000E1E700BF190E4000C1394000289A4000C5
:10120000A8AA40202CAA402024AA402028AA402096
:1012100008AB4020F4AA40206D0F4000210B400095
:10122000214B1B68EBB910B5204B1B6803EB830304
:101230009B001F4AD358C3B91C4B1B686BB11B4A98
:101240001B491368013B1360136803EB830351F8D8
:10125000233053B91368002BF3D1164B984700BFC6
:10126000FDE70122144B1A607047104B1B68104AAF
:101270009900C81802EB800044686468446019440F
:1012800002460832944209D003EB8303084A02EB7A
:1012900083035B68DA68094B1A6010BD6068044A12
:1012A00002EB81025060EFE798AA4020A4AA4020F8
:1012B0002CAA4020C1024000D4AA402020AA4020ED
:1012C00038B590B10C460E4D296818310D4B984732
:1012D000286804300C4B9847B4F1FF3F09D00B4B02
:1012E000186820440A4B984738BD0A4B984700BFFE
:1012F000FDE7296804310848084B984738BD00BF0E
:1013000020AA4020E5014000210240001CAB402003
:10131000C90A4000C1024000F4AA4020C9014000AF
:1013200038B578B10D46094C21681831084B9847FB
:1013300020680430074B9847074B18682844074B30
:10134000984738BD064B984700BFFDE720AA4020CC
:10135000C9014000210240001CAB4020C90A4000E6
:10136000C102400038B5C368DC681CB304F118053D
:101370002846154B9847154B1B68FBB9251D284679
:10138000114B9847E06A124B1B68984201D9104BE9
:10139000186000EB800029460E4B03EB80000E4BDB
:1013A00098470E4B1B68E06ADB6A984234BF002006
:1013B000012038BD0A4B984700BFFDE72946094880
:1013C000054B9847EDE700BF2102400098AA402056
:1013D000A4AA40202CAA4020C901400020AA4020F5
:1013E000C1024000DCAA402008B530B1054A1268AD
:1013F0000260054A1268426008BD044B984700BF6E
:10140000FDE700BFD8AA40201CAB4020C10240002D
:1014100038B5E8B10D460446F1B1184B98472B6832
:10142000B3F1FF3F26D0164A12682168914204D0DA
:10143000144A1268616891421ED9124A12686168A2
:10144000521A93420CD801240F4B9847204638BDBE
:101450000E4B984700BFFDE70C4B984700BFFDE7D8
:10146000084A1268521A9B1A2B602046084B98476C
:101470000024E9E70024E7E70124E5E7D102400082
:10148000D8AA40201CAB4020F1024000C10240001D
:10149000E91340000122014B1A607047D4AA402092
:1014A000014B1868704700BF20AA4020054B1B68FD
:1014B00033B1054B1B68002B0CBF01200220704785
:1014C00000207047F0AA402098AA4020002831D080
:1014D00038B50546C36A18490968C96A8B4211D2F2
:1014E00015490968C96AC1F10501816103EB8303EC
:1014F000124901EB83034169994204D00E4B1B68EA
:10150000DB6AC36238BD041D20460D4B98470A4B69
:101510001B68D86AE8620B4B1B68984201D9094BDB
:10152000186000EB80002146044B03EB8000064B63
:10153000984738BD704700BF20AA40202CAA402001
:1015400021024000A4AA4020C9014000E8B138B5FA
:101550000446C16A826C914216D0051D28460B4B89
:101560009847A06CE062C0F10503A361084B1B68BB
:10157000984201D9064B186000EB80002946054BC4
:1015800003EB8000044B984738BD704721024000B0
:10159000A4AA40202CAA4020C901400008B54160FF
:1015A000006191420CD8D21A83699A4201D301207A
:1015B00008BD011D094B1868094B9847002008BD5C
:1015C0009A4203D2994201D3012008BD011D054B67
:1015D0001868034B9847002008BD00BF24AB40208B
:1015E000E501400020AB402070B50D4B98470D4BF6
:1015F0001B6813B10C4B984770BD0C4D28460C4E20
:10160000B0470C4C2046B0470B4B1D600B4B1C6089
:1016100000220C2105200A4B9847024B1860E9E78D
:10162000D102400054AB4020F102400028AB4020E2
:10163000AD0140003CAB402020AB402024AB40201B
:10164000FD06400010B584B00B4B98470B4B1B6850
:1016500073B10023039302930193042200924FF489
:10166000827207490748084CA04708B104B010BD72
:10167000064B984700BFFDE7E915400054AB4020FA
:10168000349A400095174000BD0B4000C102400055
:1016900030B585B00F4C2568D5B11C46019102923A
:1016A00003903BB10023224601A928460A4CA047DB
:1016B00005B030BD094B984701284FF000030CBF1F
:1016C000089A1A4601A903480068054CA047EFE7AD
:1016D0000020EDE754AB40207D084000AD144000F1
:1016E000510740002DE9F04782B08146214B9847D1
:1016F0008046214B1B68984215D30023C9F800305F
:101700001D4BC3F80080404602B0BDE8F0870021C1
:1017100000910B4652462046184CA04728B9184B5A
:10172000984700BFFDE7174E174F33681A68C2B1DC
:10173000DA68D2F800A0DB68DC68251D2846B847C7
:10174000636A20469847E369012BEED1A3695344AD
:101750009A45DCD263602461294630680B4B984778
:10176000E3E70B4A10680749086013600123C9F8D2
:101770000030C5E7290E400050AB402091164000D4
:10178000C102400020AB402021024000E5014000A2
:1017900024AB40202DE9F04186B0DFF86C814E4B40
:1017A0001B681A68002A00F08A80DB681D684B4BB2
:1017B000984703A84A4B98470646039B002B40F0E6
:1017C0008780A8422AD3474B9847434B1B68DB6866
:1017D000DC68201DC047E369012B08D0636A2046FE
:1017E000984702A83E4B984707463F4E33E0A16911
:1017F0002B463246294420463C4EB0470128EDD1C5
:10180000002100910B462A462046394DA847002862
:10181000E4D1384B984700BFFDE70025A91B324BA8
:101820001868354B98472F4B98470028D9D1334B30
:101830009847D6E70499A16131B13B463A4639440D
:1018400020462A4CA04706E02A4B984700BFFDE7F8
:1018500020462B4B98472B4D00231A4603A930688E
:10186000A84700289BD0059C1CB163690BB1201DC3
:10187000C047039B022BDDD0032BE9D0002BEBD11B
:101880000499A0690B463A4601442046174DA847E3
:101890000128E0D1636A20469847E369012BDAD139
:1018A000A269002100910B46049802442046104C86
:1018B000A0470028CFD10F4B984700BFFDE7074B4B
:1018C000984703A8064B98470646039B002BA4D0D5
:1018D000044B984785E700BF20AB4020190E40001D
:1018E000E51640006D0F400054AB40209D154000B0
:1018F00091164000C1024000750A4000B10240004C
:101900002105400009094000210240003C22054B0E
:101910001A70054A054B1A600023054A1370054AE0
:101920001370704716AD402040AD402030AD4020D0
:1019300018AD40200CAD402008B5014B984708BDBC
:10194000091C4000F8B50122274B1A700023274AD2
:101950001370274A13702748274B9847274E284C67
:10196000284D31782068A847012836DD2268137891
:101970009B0003F00C03527803EB9213042B0BD063
:10198000002B2DD11A4602211F48204FB8470028AE
:10199000E7D16FF00100F8BD1D48174B9847184874
:1019A00002681C4913789B080B70537803F03F03BF
:1019B000194C23709B000133137002680B78803B35
:1019C000537000231A4602210068104CA0470028DB
:1019D0000CBF6FF001000120F8BD4FF0FF30F8BDE3
:1019E0006FF00200F8BD00BF1AAD402018AD4020D6
:1019F0000CAD40203C9A4000E51C400016AD402054
:101A000030AD4020351C400058AB4020291C400020
:101A1000549A400017AD402080AD4020F0B583B00F
:101A200004460D4616461F46354B1B78002B4ED1FB
:101A3000344B1A78EB1C9A4259DB6B1E5BB2002BBD
:101A400008DB3148E15C02681A44D170013B5BB2AB
:101A5000002BF7DA2C4802682C4B1B789B000333D1
:101A6000137003682A4A12785A700268294B197851
:101A7000294B1B7803EB01139370E91C3B4632465C
:101A8000C9B20068254CA0470346002830D0214A3F
:101A90001378013313701B4E1B4C214D3178206895
:101AA000A847012827DD226813789B0003F00C0368
:101AB000527803EB92130D2B11D0F3B91A46022181
:101AC0001848164FB84703460028E7D110E0032115
:101AD00001A8134B98470228AAD0002308E000234E
:101AE0001A4602210F480D4CA047034600E0002390
:101AF000184603B0F0BD0023FAE70023F8E700BF63
:101B00001AAD402016AD402030AD402080AD4020C1
:101B100017AD402018AD40200CAD4020291C4000DE
:101B2000351C400058AB40202DE9F04104460E46DC
:101B30002E4DDFF8D0802E4F31462046A84783B285
:101B4000012B46D9217862788B0003F00C0303EB5C
:101B500092130C2B0BD0002B3FD11A46022140468A
:101B6000B8470028E8D16FF00100BDE8F081C5B2A8
:101B7000EE1EF6B21F4F8908397002F03F021E4B6D
:101B80001A701E480368920003321A7002683B788C
:101B9000403353700268A3781B090133937000230C
:101BA0001A4603210068124FB847D0B156B1631EE0
:101BB000A21C281F54FA80F412F8011F03F8011F19
:101BC000A342F9D10E4A13780133137030B2BDE845
:101BD000F0814FF0FF30BDE8F0816FF00200BDE80A
:101BE000F0816FF00100BDE8F08100BF351C4000BE
:101BF000291C400017AD402080AD402030AD402072
:101C00000CAD402058AB402010B50446034B98471C
:101C1000034B98472046034B984710BDD11E400008
:101C20004D234000E521400010B5014CA04710BDF8
:101C3000B122400008B5014B984708BD4922400039
:101C400070B5A0B041F28830114B9847114B9847BE
:101C5000114B9847114B9847114B98473C22114B19
:101C60001A70114A114B1A60114E124C124D304627
:101C7000A04744F6206280216846A8470028CCBFD0
:101C80000E480F48A04740F2DC50014B9847EEE762
:101C90006D104000591E4000D11E4000F11E400052
:101CA0000D19400016AD402040AD402030AD402021
:101CB000949A4000DD334000A5234000B09A4000D4
:101CC000BC9A400038B505460C460846034B984779
:101CD000024621462846024B984738BDC13940008C
:101CE0003925400070B50646054D06492846064C84
:101CF000A04731462846A04704492846A04770BD62
:101D000000800240F89A4000C51C4000289A40001C
:101D100010B584B00346054A10216846044CA0471C
:101D20006846044B984704B010BD00BF049B4000B8
:101D3000D5374000E51C400038B505462020034C4F
:101D4000A04729460248A04738BD00BFDD33400008
:101D5000089B40002DE9F04F85B0002933DD8B460C
:101D6000174600F1FF394FF00008DFF87CA01A4C4D
:101D70001A4D07E009F8010F194B984708F10108BF
:101D8000C34522D0D0470190164E0023039320462E
:101D9000A8470028FBD003A92046B0470398002895
:101DA000E8DA002FF1D0D047019BC01AB842ECD33B
:101DB00003980028DEDAB8F1000F09D04FFA88F056
:101DC00005B0BDE8F08F4FF000084FFA88F0F7E754
:101DD0006FF00100F4E700BF00400240ED2C40002E
:101DE000111D40000B2D4000BD24400000B585B002
:101DF000124B93E803000290ADF80C101048114B01
:101E000098470A22062168460F4B9847002809DDAB
:101E1000062202A968460D4B984748B9002005B034
:101E20005DF804FB0A48074B98476FF00100F6E79E
:101E30000848044B98474FF0FF30F0E7C49A400041
:101E4000209B4000E51C4000551D4000053440002B
:101E5000289B4000349B400070B586B04FF4E133BE
:101E60000093C02301934FF4006302930024039472
:101E700004940D200E4B98470E4D0F4A6946284694
:101E80000E4B984728460E4B984728460D4B9847CF
:101E90000D4E234601224FF0C05130460B4DA8474E
:101EA000234602224FF0C0513046A84706B070BD0D
:101EB000912B40000040024080D1F0088D2C400062
:101EC000E12C4000E72C400000100E402529400086
:101ED00010B5044C2046044B98472046034B9847C6
:101EE00010BD00BF00400240E12C4000E72C400044
:101EF00070B582B0164C55212046164DA847552185
:101F00002046A84700212046A84700212046A84790
:101F100000212046A84720460F4B984718B90C4C83
:101F20000D4D0E4E0EE00E480E4B98470E480F4BCF
:101F30009847F4E70DF107012046B0479DF80700E8
:101F40000B4B98472046A8470028F3D102B070BD3C
:101F500000400240F52C4000ED2C40000B2D4000CD
:101F6000BC9B4000E51C4000D49B4000DD3340009A
:101F7000111D40002DE9F04F83B0814688469346FD
:101F80001E463948394B984718B9374C374D384FAA
:101F900009E03848384B9847F7E701A92046B84789
:101FA0000198364B98472046A8470028F5D199F864
:101FB0000020334B1A702C4C00212046314DA8478D
:101FC00000212046A847FF212046A84706F1010A24
:101FD000C2445FFA8AFA51462046A847CAF1000176
:101FE0002046A847D4212046A8472748224B984797
:101FF000424649462046254B9847B8F1000F30D05D
:1020000009F1FF3508F1FF3859FA88F8D424DFF8D0
:102010006C9015F8010F0444E4B2C8474545F8D167
:10202000324659461048194B984766B10BF1FF35B7
:10203000013E5BFA86F7114E15F8010F0444E4B235
:10204000B047BD42F8D16142074DC9B228460D4C98
:10205000A04700212846A0470D4B984703B0BDE894
:10206000F08FD424DCE700BF00400240ED2C40009C
:102070000B2D4000BC9B4000E51C4000111D4000A2
:1020800019AD4020F52C4000E49B4000392540006C
:10209000ED1D4000F0B583B006460C461546494894
:1020A000494B98472A46032101A8484B98470028E6
:1020B00076DD9DF80430002B5AD19DF80530002BB9
:1020C00056D19DF80630FF2B52D12A460221684690
:1020D0003E4B9847002866DD9DF800309DF80120B2
:1020E0001A4412F0FF0F49D1023BDBB28DF80030E9
:1020F000A3425BD8364B1C78631CDFB22A46022110
:1021000001A8324B9847002853DD9DF80430D52BA9
:102110003AD19DF80530BB4236D12A469DF80010D1
:1021200030462A4B98479DF80010884244D12A3CFB
:10213000E4B249B1721E481E56FA80F012F8013F0F
:102140002344DCB28242F9D12A46022101A81F4B66
:102150009847002833DD9DF80430234413F0FF0F27
:1021600018D19DF80530ABB99DF8000003B0F0BD63
:102170001848154B98476FF00200F7E71648124BC6
:1021800098476FF00200F1E714480F4B98476FF043
:102190000200EBE712480C4B98476FF00200E5E7AE
:1021A0006FF00100E2E76FF00100DFE76FF003007E
:1021B000DCE76FF00100D9E76FF00100D6E76FF0C0
:1021C0000100D3E7409B4000E51C4000551D400046
:1021D00019AD40204C9B40005C9B40006C9B400034
:1021E0007C9B400070B58CB0064601AC124D0FCD03
:1021F0000FC40FCD0FC495E8070084E80700002343
:102200001A462C2101A80D4CA047002811DB3246AC
:1022100040210B480B4B984740B2002802DD0120BB
:102220000CB070BD10F1020F0CBF00206FF0010068
:10223000F6E74FF0FF30F3E7CC9A4000751F4000FF
:1022400040AD40209520400070B504460E468623E0
:10225000037000231A460121114DA847E0B940F64A
:10226000B832314620460F4B9847002816DD01381A
:1022700080B2237853B938B1E2185278E25401336E
:10228000DBB29AB29042F7D800B270BD0648074B55
:1022900098476FF0040070BD4FF0FF3070BD00BF75
:1022A000751F4000952040008C9B4000E51C4000BD
:1022B000F8B53F291AD9003218BF01221E4CA0429E
:1022C00014BF144642F0010454B91B4D8E232B70E9
:1022D0000B46024601212846184DA847D0B103E01D
:1022E0001748184B984700242046F8BD4C1E64B28E
:1022F000002C07DB104F065D3D196E70013C64B287
:10230000002CF8DA0C488E2404700131C9B20B4C51
:10231000A04768B940F6B832402107480A4B9847B1
:10232000002807DB044B1C78B4FA84F46409DBE76B
:102330000024D9E70024D7E740AD4020751F4000B6
:10234000A09B4000E51C40009520400010B590B0D7
:1023500014228DF8002001238DF801308DF8022021
:102360008DF803300B480C4B984700231A46042184
:1023700068460A4CA04710B1002010B010BD4FF4C1
:102380007A7240216846064B98470028D4BF002047
:102390000120F2E70C9B4000DD334000751F400038
:1023A00095204000F8B504460E4615461046364BBB
:1023B000984700283FDD2846344B9847002840DDE9
:1023C00031462046324B984780B2052858D92378A9
:1023D000102B3CD16378022B3FD1A378E5782D04F4
:1023E00005EB0365237905EB032563791D442E4630
:1023F000871FBD4237D84DB100221346A1188979F5
:10240000A1540133DBB21A469E42F7D8214B1A6819
:10241000102111701A6881215170196800228A7088
:102420001968CA70186802714271134606211A4C65
:10243000A04728B2F8BD1948194B98474FF0FF3014
:10244000F8BD1848164B98476FF00100F8BD1648C4
:10245000134B98476FF00300F8BD1448104B984792
:102460006FF00300F8BD12480D4CA0472846114DEF
:10247000A8473846A8471048A0476FF00300F8BDAA
:102480006FF00200F8BD00BF391940004519400047
:10249000291B400030AD40201D1A4000F09B400039
:1024A000E51C4000189C4000389C4000709C400097
:1024B000889C4000391D4000249A4000014B186858
:1024C000704700BF5CAB402010B51048104B9847D8
:1024D0003E2100200F4B98470F4CA0470028FCD00E
:1024E0000E4B98470E4A0F4B9A620F4CA04700289C
:1024F000FCD002200D4B984700200D4B98470D4B08
:1025000098470248024B984710BD00BF00A3E11155
:10251000F92E40000D2B4000612B4000712B400034
:10252000013F182000060E40812B4000712A400018
:10253000A92A4000ED2D4000002A54D02DE9F84F83
:10254000924606460F468A44DFF8B880274DDFF8EA
:10255000B89006E021464046A8470028FAD1BA457F
:102560003ED017F8014B4645F4D04E4516D0204BCF
:102570009E4219D01F4B9E421CD01F4B9E421FD023
:102580001E4B9E4224D01E4B9E42E8D1DFF87CB009
:1025900021461B48D8470028FAD1E0E721464846A3
:1025A000A8470028FAD1DAE721461148A8470028B1
:1025B000FAD1D4E721460F48A8470028FAD1CEE740
:1025C000DFF848B021460C48D8470028FAD1C6E7C2
:1025D000DFF838B021460948D8470028FAD1BEE7CD
:1025E0000020BDE8F88F0020704700BFE52B4000B9
:1025F000001A0E40001C0E400040024000800240C5
:1026000000C0024000080E40000A0E40F52C4000B9
:102610002DE9F04180B90C469046002A0FDD8F1855
:10262000084E094D306821462B6898470134BC425A
:10263000F8D14046BDE8F0814FF0FF38F9E7804619
:10264000F7E700BF8CAD402084AD40200138022860
:1026500015D82DE9F0410E4614469AB10D46DFF823
:1026600038800C4FD8F8000015F8011B3B689847DC
:1026700000280ADBA81B013CF4D1BDE8F0814FF033
:10268000FF3070471046BDE8F0814FF0FF30BDE8E5
:10269000F08100BF88AD40208CAD4020F8B54FF4EC
:1026A00000425C4B5A60BFF34F8FBFF36F8F5A4BA2
:1026B0000022C3F850225A6942F400325A61BFF333
:1026C0004F8FBFF36F8FD3F88070C7F34E3607F08C
:1026D00007000430C7F3C907B7FA87FE0EF01F0ED4
:1026E000BFF34F8F4FF0FF3404FA00FC06FA00F0FE
:1026F00004FA0EF407FA0EFE1D463A46734640EA07
:102700000301C5F86012013A2344B2F1FF3FF6D14C
:10271000013E6044B6F1FF3FEFD1BFF34F8F3E4B18
:102720005A6942F480325A61BFF34F8FBFF36F8F03
:102730003A4A3B495160A1F580715160BFF34F8F18
:10274000BFF36F8FD3F8902222F00102C3F89022DA
:10275000D3F8942222F00102C3F89422BFF34F8FE2
:10276000BFF36F8F0A202F4CA0470B20A0470C20EF
:10277000A0471020A0471120A0472B4B4FF4807298
:102780001A61C3F8A0201A63A3F580634FF40062B6
:102790005A61C3F8A0205A66C3F890205A651A629D
:1027A000C3F88420196F21F400611967596F21F46F
:1027B00000615967C3F8C020C3F8D420C3F8B02023
:1027C0004FF400121A66C3F890205A655A62C3F893
:1027D0008020196F21F400111967596F21F400113D
:1027E00059675A60114AD2F8143143F01003C2F805
:1027F00014310F4B10221A66C3F890205A655A62A2
:10280000C3F88020196F11431967596F1143596735
:102810005A60F8BD50180E4000ED00E0000C0E406C
:102820000C08005A912B400000120E400080084016
:1028300000100E404264B1F1C05F3AD013D8B1F13C
:10284000006F25D0B1F1805F0AD1036F1343036796
:10285000436F416F0B4023EA0203436742607047B6
:102860000029FBD17047B1F1205F21D009D8B1F127
:10287000005FF3D1036F13430367436F1343436751
:10288000ECE7B1F1405F13D0B1F1605F10D0E5E744
:1028900010B4016F046FD34321401C4619400167F7
:1028A000436F416F0B402340436742605DF8044B28
:1028B0007047036F016F0B4023EA02030367436F06
:1028C00013434367CAE7416412F0010F0DD101665B
:1028D00012F00A0F0BD0016212F0020F09D112F0B0
:1028E000080F08D0C0F8841005E04166F0E74162A7
:1028F000F2E7C0F8801041610160704710B4019C9C
:1029000041644CB901664BB101654AB9416301614B
:1029100001605DF8044B70474166F4E74165F4E7F8
:102920000163F4E770B582B0054616461C46B1F166
:10293000005F14D00AD9B1F1405F24D0B1F1605FDB
:1029400021D0B1F1205F17D000201AE0B1F1805FF3
:1029500005D0B1F1C05F02D0B1F1006FF4D13246C1
:102960002846114B984714F0010F02D12E66012022
:1029700007E06E66012004E01A4631460B4B98478B
:10298000012002B070BD04F001030093C4F3800382
:10299000B1F1605F14BF0022012231462846044C89
:1029A000A0470120EDE700BF35284000C7284000C0
:1029B000FD284000C06C7047806C70472DE9F041E5
:1029C000044688460E4B9847054620460D4B9847CF
:1029D000054013D00C4C04F1600603E0B4420DD066
:1029E00010345DB120684045F8D161682942F5D0C6
:1029F000E3689847636825EA0305EFE7BDE8F081DF
:102A0000B5294000B929400060AB402008B50A2133
:102A10000148024B984708BD000E0E40BD294000FA
:102A200008B50B210148024B984708BD00100E4025
:102A3000BD29400008B50C210148024B984708BD4C
:102A400000120E40BD29400008B510210148024B7C
:102A5000984708BD00140E40BD29400008B511215B
:102A60000148024B984708BD00160E40BD294000A2
:102A7000032811D0042812D002280CBF4FF4807113
:102A80000021084A136B23F440730B431363936EC6
:102A900013F0080FFBD070474FF44071F1E74FF48B
:102AA0000071EEE700060E40174A136B23F0700327
:102AB00018431063936E13F0080F0AD14FF480533C
:102AC00011498A6E12F0080F03D1013BF9D10120A0
:102AD00070470D4A136B23F0030343F002031363A3
:102AE000936E13F0080F0AD14FF4805306498A6E93
:102AF00012F0080F05D1013BF9D1012070470020E9
:102B000070470020704700BF00060E40A0B90E4875
:102B1000036A090289B20D4A1A400D4B1343194347
:102B200001620246936E13F0010FFBD0064A116A50
:102B3000084B0B431362704703490B6A064A1A405D
:102B4000064B13430B62704700060E40FCFFC8FFA4
:102B50000100370000003701FCFFC8FE020037010A
:102B6000024B986E00F48030704700BF00060E40A4
:102B70004FF00052014B9A62704700BF00060E40B2
:102B8000024B986E00F00200704700BF00060E4036
:102B90003F281ED81F280CD8114B9A690123834067
:102BA000934318D0012303FA00F00D4B1861002065
:102BB000704720380A4BD3F8082101238340934300
:102BC0000BD0012303FA00F0054BC3F800010020ED
:102BD000704701207047002070470020704700BFF9
:102BE00000060E40436913F0020F02D0C1610020BD
:102BF000704701207047436913F0010F03D08369C8
:102C00000B70002070470120704710B40B019342F5
:102C100014D9C9004B0803EBC202B2FBF1F2D3088E
:102C20005C1E4FF6FE718C4201D9012017E041680D
:102C300041F4002141600CE0012010E0590801EB53
:102C4000C202B2FBF3F2D3085C1E4FF6FE718C4257
:102C5000F2D8120402F4E0221A43026200205DF866
:102C6000044B7047084BC0F8E430002343604362D4
:102C7000836288230360242303604FF4807303601E
:102C80004FF40023036070470041535570B505466B
:102C90000C4616460F4B984700220F4B1A60A4B102
:102CA0003246216828460D4B9847024678B963683A
:102CB000A1680B4321690B43E1680B4306490B6094
:102CC00069680B436B60104670BD0122FBE701226F
:102CD000F9E700BF652C4000D0AB40200B2C400032
:102CE000402303607047102303607047406900F081
:102CF00001007047436913F0020F04D0C1F30801CB
:102D0000C1610020704701207047436913F0010F33
:102D100005D08369C3F308030B60002070470120CE
:102D20007047FEE700B583B0254B264A9A4210D083
:102D3000254B234A9A420CD2013B9B1A23F00303F2
:102D4000043313441F4951F8040B42F8040B9A4210
:102D5000F9D11E4B1E4A9A420AD2013B9B1A23F01C
:102D6000030304331344002142F8041B9342FBD1B4
:102D7000184A194B23F07F039360EFF31083B3FAE3
:102D800083F35B09019372B6BFF35F8F0022134B8D
:102D90001A700199124A136843F470031360BFF369
:102DA0004F8FBFF36F8F29B101220C4B1A70BFF305
:102DB0005F8F62B60B4B98470B4B9847FEE700BFFF
:102DC000000040209CA04000D0094020B8AD402029
:102DD000D009402000ED00E0000040001800402035
:102DE00088ED00E08D334000913240003B4B1B6B7F
:102DF00003F00303012B1DD083B1022B36D0374BD8
:102E00001B6B03F07003702B5FD0344B1A6B34498B
:102E1000C2F302120B68D3400B607047314B5B6901
:102E200013F0800F14BF4FF400424FF4FA422C4BC2
:102E30001A60E4E7294B1B6A13F0807F03D02A4A0B
:102E4000274B1A60DBE7294A254B1A60234B1B6A84
:102E500003F07003102B05D0202BD0D1224A204B39
:102E60001A60CCE7224A1E4B1A60C8E71B4B1B6A4C
:102E700013F0807F16D01C4A194B1A60174B1B6B3E
:102E800003F00303022BBAD1144A916A926A1448E0
:102E9000C1F30A41036801FB0333D2B2B3FBF2F37F
:102EA0000360ACE7114A0E4B1A600C4B1B6A03F02F
:102EB0007003102B05D0202BE0D10B4A084B1A6071
:102EC000DCE70B4A064B1A60D8E7054A1368094944
:102ED000A1FB03135B081360704700BF00060E40A0
:102EE0001C00402010180E40001BB70000093D00D8
:102EF00000127A00ABAAAAAA124B984211D9124B1F
:102F0000984213D9114B984214D9114B984215D9B4
:102F1000104B984294BF4FF004220F4A0F4B1A6097
:102F200070474FF080620D4B1A6070470C4A0B4B94
:102F30001A6070470B4A094B1A6070470A4A074BE0
:102F40001A607047FF2C3101FF596202FF8693031C
:102F5000FFB3C404FFE0F50500050004000C0E40BB
:102F60000001000400020004000300040A4B1B6877
:102F700053B1094B1B681A180849914208DB1046E7
:102F8000054A106018467047054A034B1A60F0E77F
:102F90004FF0FF30704700BFD4AB4020FCFF45200E
:102FA000B8CF40204FF0FF3070474FF400534B60D4
:102FB000002070470120704700207047F0B583B0B3
:102FC00005460C46002301932A4B984213D02A4B06
:102FD000984218D0294B98421DD0294B9D4222D0AF
:102FE000284B9D4227D0284B9D422ED0274B9D42F7
:102FF00035D003B0F0BD1F46254E21463846B047B8
:103000000028FAD1E9E71F46214E21463846B0474D
:103010000028FAD1E4E71F461D4E21463846B04746
:103020000028FAD1DFE71F46194E21463846B0473F
:103030000028FAD1DAE71E46164D01A93046A84706
:103040000028FAD1019B2370D3E71E46114D01A938
:103050003046A8470028FAD1019B2370C9E71E46D5
:103060000C4D01A93046A8470028FAD1019B2370D6
:10307000BFE700BF00080E40000A0E40001A0E40D5
:10308000001C0E40004002400080024000C0024090
:10309000F72B40000B2D400070B50C462A4B984290
:1030A00013D02A4B984219D0294B98421FD0294B54
:1030B000984225D0284B98422BD0284B984231D0AB
:1030C000274B984237D0002070BD1E46254D214623
:1030D0003046A8470028FAD1012070BD1E46214D78
:1030E00021463046A8470028FAD1012070BD1E466F
:1030F0001C4D21463046A8470028FAD1012070BD5A
:103100001E46184D21463046A8470028FAD1012016
:1031100070BD1E46144D21463046A8470028FAD1FE
:10312000012070BD1E46104D21463046A84700289C
:10313000FAD1012070BD1E460B4D21463046A847EE
:103140000028FAD1012070BD00080E40000A0E4090
:10315000001A0E40001C0E40004002400080024059
:1031600000C00240E52B4000F52C400008B50A4C99
:103170000A4E0B4D08E04FF4807323633046A84796
:1031800041F28830074B9847E36B13F4807FF2D00D
:103190004FF480736363F1E700120E409C9D400082
:1031A000DD3340006D10400070B5044E044D054CF9
:1031B0003046A84742F21070A047F9E7B09D4000A2
:1031C000DD3340006D10400008B5044E044D054C41
:1031D00041F28830B0472846A047F9E76D1040001B
:1031E000D8AB40204111400070B586B00E20174E7C
:1031F000B047174D174B1D60174A184B1A60184AF5
:10320000184B1A604FF4E1330093C02301934FF43D
:10321000006302930024039404940E20B047124AE2
:1032200069462846114B98472846114B984728462F
:10323000104B9847104E3368214698680F4DA847A9
:10324000336821465868A84706B070BD912B4000EE
:10325000008002408CAD40209930400088AD402075
:10326000BD2F400084AD402080D1F0088D2C40005F
:10327000E12C4000E72C4000200040203536400083
:1032800008B5024B984700BFFDE700BFC1024000F0
:1032900010B584B0284B9847284B9847284B98473F
:1032A0002848294B98472948294B984700230393DE
:1032B0000293019300934FF4007226492648274C4D
:1032C000A047012802D026481F4B984700230393AC
:1032D0000293019300934FF40072224922481F4C3D
:1032E000A047012802D02148174B98470023039399
:1032F0000293019300934FF400721D491D48174C2F
:10330000A047012802D01C480F4B98470023039385
:103310000293019300934FF40072184918480F4C20
:10332000A047012802D01748074B9847164B9847EB
:10333000002004B010BD00BFC92440009D264000FD
:10334000E9314000A89C4000DD334000156D120FAC
:10335000010040200C9D4000C9314000BD0B4000E1
:10336000149D4000349D4000A93140003C9D400028
:103370005C9D4000411C4000609D40007C9D4000E1
:103380006D314000809D4000B10D400070B50F4E82
:103390000F4D761BB61018BF002405D0013455F828
:1033A000043B9847A642F9D10A4E0B4D761B06F016
:1033B0005FFEB61018BF002406D0013455F8043B58
:1033C0009847A642F9D170BD70BD00BF7CA04000F7
:1033D0007CA0400084A040007CA040000FB400B559
:1033E000074983B004AB086853F8042B8168019344
:1033F00001F0F4FD03B05DF804EB04B0704700BFCA
:1034000020004020032A70B422D940EA01039B0720
:1034100011D003780C78A3421DD10A44013105E094
:1034200010F8013F11F8014BA34214D19142F7D19A
:10343000002070BC70470D680668AE420C4603461B
:1034400001F1040100F1040008D1043A032AF2D882
:10345000002ADED1ECE7181B70BC704721461846E5
:10346000D7E700BF844641EA000313F003036DD1A0
:10347000403A41D351F8043B40F8043B51F8043B37
:1034800040F8043B51F8043B40F8043B51F8043B3E
:1034900040F8043B51F8043B40F8043B51F8043B2E
:1034A00040F8043B51F8043B40F8043B51F8043B1E
:1034B00040F8043B51F8043B40F8043B51F8043B0E
:1034C00040F8043B51F8043B40F8043B51F8043BFE
:1034D00040F8043B51F8043B40F8043B51F8043BEE
:1034E00040F8043B51F8043B40F8043B51F8043BDE
:1034F00040F8043B403ABDD2303211D351F8043B7E
:1035000040F8043B51F8043B40F8043B51F8043BBD
:1035100040F8043B51F8043B40F8043B103AEDD22C
:103520000C3205D351F8043B40F8043B043AF9D27D
:10353000043208D0D2071CBF11F8013B00F8013B50
:1035400001D30B8803806046704700BF082A13D35D
:103550008B078DD010F003038AD0C3F10403D21A75
:10356000DB071CBF11F8013B00F8013B80D331F8A9
:10357000023B20F8023B7BE7043AD9D3013A11F829
:10358000013B00F8013BF9D20B7803704B78437094
:103590008B7883706046704770B4860746D0541E9F
:1035A000002A41D0CAB2034602E014F1FF343BD3F3
:1035B00003F8012B9D07F8D1032C2ED9CDB245EA93
:1035C00005250F2C45EA054519D903F110022646B9
:1035D000103E0F2E42F8105C42F80C5C42F8085C7A
:1035E00042F8045C02F11002F2D8A4F1100222F0B9
:1035F0000F0204F00F041032032C13440DD91E46A1
:103600002246043A032A46F8045BFAD8221F22F025
:1036100003020432134404F003042CB1C9B21C4465
:1036200003F8011B9C42FBD170BC70471446034653
:10363000C2E700BF00290CBF022200224FF48063C2
:1036400000F000B82DE9F043614C256883B00446D2
:103650000F4690461E4615B1AB6B002B64D0B8F1F7
:10366000020F06D0B8F1010F00F29F80002EC0F2C9
:103670009C80636ED80734D52146284603F00AFCA7
:10368000216B41B104F14003994202D0284603F076
:103690007FFD00232363B4F90C300022A261626035
:1036A0001A063AD423F44A6323F00303B8F1020F55
:1036B000A3811DD001AB6A462146284604F014F8C8
:1036C000A3891843A081002E32D1009E304604F019
:1036D00083F8074600286BD0A38943F08003A381B9
:1036E00028E0A3899905C7D4A06D03F0F9FFC3E7CB
:1036F0000025616E002604F1430243F0020301201D
:10370000A660CE07A38122602261606101D4980582
:103710003ED5284603B0BDE8F0832169284603F072
:1037200037FDB4F90C30BDE7284603F00BFC96E7F3
:10373000002FCBD0AB6B002B33D0009BB4F90C2007
:1037400027609E421CBF42F40062A281B8F1010FC3
:1037500004BF42F00102A28192B212F00803276175
:1037600066610ED0D1071AD5656E7642002315F03A
:103770000105A661A36009D00025284603B0BDE875
:10378000F083A360656E15F00105F5D19305C0D4F3
:10379000A06D03F0A7FF284603B0BDE8F083A66044
:1037A000F0E7284603F0CEFBC7E74FF0FF35B0E760
:1037B000DDF80090B14504D0484604F00DF8074606
:1037C00020B9B4F90C304FF0FF3592E74E4683E74D
:1037D000200040200CB4F0B5234B0C1E9DB01D689A
:1037E0003DDB4FF4027302900690ADF8143023AE27
:1037F00017D0013C229A049433464FF6FF7702A972
:10380000284607940196ADF8167000F079F9421C2D
:103810001BDB029B00221A701DB0BDE8F04002B015
:10382000704733464FF6FF77229A049402A9284640
:1038300007940196ADF8167000F062F9431C07DB9F
:103840001DB0BDE8F04002B070478B232B60E0E76D
:103850008B232B601DB0BDE8F04002B070478B2376
:103860002B604FF0FF30EBE7200040200EB4F0B5A6
:103870009CB021AB0F4953F8042B019305466FF020
:103880000044086802954FF402774FF6FF7602A9CC
:103890000695ADF8147004940794ADF8166000F026
:1038A0002FF9029B00221A701CB0BDE8F04003B053
:1038B000704700BF20004020830710B5044610D198
:1038C0000268A2F1013323EA020313F0803F08D11A
:1038D00050F8042FA2F1013323EA020313F0803FD2
:1038E000F6D003781BB110F8013F002BFBD100F09C
:1038F00003F8204610BD00BF80EA0102844612F0A2
:10390000030F4FD111F0030F32D14DF8044D11F0D8
:10391000040F51F8043B0BD0A3F101329A4312F08B
:10392000803F04BF4CF8043B51F8043B16D100BF64
:1039300051F8044BA3F101329A4312F0803FA4F1F5
:1039400001320BD14CF8043BA24312F0803F04BF7C
:1039500051F8043B4CF8044BEAD023460CF8013BE9
:1039600013F0FF0F4FEA3323F8D15DF8044B704793
:1039700011F0010F06D011F8012B0CF8012B002AD1
:1039800008BF704711F0020FBFD031F8022B12F0C0
:10399000FF0F16BF2CF8022B8CF8002012F47F4F7B
:1039A000B3D1704711F8012B0CF8012B002AF9D183
:1039B000704700BF00000000000000000000000091
:1039C00090F800F06DE9024520F007016FF0000C5F
:1039D00010F0070491F820F040F049804FF0000407
:1039E0006FF00700D1E9002391F840F000F10800E2
:1039F00082FA4CF2A4FA8CF283FA4CF3A2FA8CF31A
:103A00004BBBD1E9022382FA4CF200F10800A4FA80
:103A10008CF283FA4CF3A2FA8CF3E3B9D1E90423D4
:103A200082FA4CF200F10800A4FA8CF283FA4CF30B
:103A3000A2FA8CF37BB9D1E9062301F1200182FAC5
:103A40004CF200F10800A4FA8CF283FA4CF3A2FACB
:103A50008CF3002BC6D0002A04BF04301A4612BAD9
:103A6000B2FA82F2FDE8024500EBD2007047D1E9DC
:103A7000002304F00305C4F100004FEAC50514F06B
:103A8000040F91F840F00CFA05F562EA05021CBF3C
:103A900063EA050362464FF00004A9E740EA010328
:103AA00013F0030F70B4034624D0A2B10C781C703D
:103AB000013A013301313CB16AB111F8014B03F80D
:103AC000014B013A002CF7D12AB11A44002103F826
:103AD000011B9A42FBD170BC70470E4651F8045B43
:103AE000A5F1013424EA050414F0803F05D143F820
:103AF000045B043A032AF0D8D7E73146D6E700BF83
:103B00002DE9F04FC3B00C460B9192460F930C90E9
:103B100003F0D4FD03681A931846FFF751FFA389F9
:103B20001990190603D52369002B01F003800023A7
:103B30000DF1C809139315931493279326931893A3
:103B40001B930993CDF89490C846169317939AF84F
:103B500000305446E3B1252B02D119E0252B03D0C8
:103B600014F8013F002BF9D1A4EB0A0585B1269B7F
:103B7000279AC8F800A001332A44072BC8F804503C
:103B8000279226937FDC08F10808099B2B440993B0
:103B90002378002B7FD000231A468DF87730194602
:103BA0000D939B464FF0FF3063780A9004F1010AB1
:103BB0000AF1010AA3F12000582800F2C183DFE8CE
:103BC00010F03802BF03BF034002BF03BF03BF03AF
:103BD000BF03BF03BF0345020302BF035D006B02C7
:103BE000BF0386029D039D039D039D039D039D03CB
:103BF0009D039D039D03BF03BF03BF03BF03BF031B
:103C0000BF03BF03BF03BF03BF0337035703BF0394
:103C10005703BF03BF03BF03BF039803BF03BF0323
:103C2000AD03BF03BF03BF03BF03BF035902BF03FD
:103C3000BF031E03BF03BF03BF03BF03BF03BF0315
:103C4000BF03BF03BF03BF03C602DB025703570313
:103C500057038B02DB02BF03BF039002BF039D0229
:103C6000CC01B4020802BF03E101BF037E00BF0321
:103C7000BF030D020D980F9340420D904BF0040BC3
:103C80009AF8003094E725AA0B990C9804F02EFEC0
:103C900040B9C84679E7279B23B10C980B9925AA10
:103CA00004F024FE0B9B9B8913F0400F099B18BF67
:103CB0004FF0FF330993099843B0BDE8F08F1BF034
:103CC000200F119340F0DD810F9A1BF0100F134667
:103CD00040F06E851BF0400F00F06A8514880432B6
:103CE000002501230F9200278DF877700A994A1C4E
:103CF00000F065822BF08002079254EA050240F042
:103D00006482002940F03C84002B40F0D7841BF0F3
:103D100001030E9300F0048642AE302306F8413DC5
:103D20000A9B0E9A9342B8BF13460893002312933E
:103D300017B1089B01330893079B13F002031093FC
:103D400002D0089B02330893079B13F0840540F0D0
:103D50000E830D9B089AA3EB020BBBF1000F40F3FF
:103D60000683BBF1100F279C269A29DD4346214686
:103D7000A84610270C9C0B9D06E0ABF1100BBBF185
:103D8000100F03F1080318DD0132B74826921031F5
:103D9000072A279183E88100EFDD25AA29462046DE
:103DA00004F0A4FD00287FF47DAFABF1100BBBF154
:103DB000100F2799269A4B46E6DC45460C46984656
:103DC0000132A94B26925C44072A279488E8080808
:103DD00000F398849DF8777008F1080877B1269B66
:103DE000013301340DF177010122072B279426932B
:103DF00088E8060000F3DB8308F10808109B6BB12C
:103E0000269B013302341EA90222072B27942693F6
:103E100088E8060000F3D68308F10808802D00F03A
:103E200015830A9B0E9A9F1A002F36DD102F269BB2
:103E30008E4D27DD42462146B0464FF0100B2E46F0
:103E40000C9C0B9D04E0103F102F02F1080215DDC1
:103E500001331031072B2791269382E84008F2DDC9
:103E600025AA2946204604F041FD00287FF41AAF18
:103E7000103F102F2799269B4A46E9DC35460C4611
:103E80004646904601333C44072B2794269388E806
:103E9000A00000F3818308F10808079BDF0500F10B
:103EA0006882269B0E99C8F8006001330C44072BEA
:103EB0002794C8F80410269300F34D8308F10808EE
:103EC000079B5B073AD50D9B089A9D1A002D35DD9F
:103ED000102D269B20DD10260C9FDDF82CB004E071
:103EE000103D102D08F1080816DD01335E4A2693B7
:103EF0001034072B279488E84400F1DD25AA5946A1
:103F0000384604F0F3FC00287FF4CCAE103D102DB1
:103F1000279C269BC846E8DC0133534A26932C4451
:103F2000072B279488E8240008DD25AA0B990C9814
:103F300004F0DCFC00287FF4B5AE279C099B0D9AA9
:103F400008998A42ACBF9B185B180993002C40F07B
:103F50000D8300232693C846F9E511931BF0200337
:103F600040F0E3811BF0100240F02E841BF0400370
:103F700000F02A840F9913460A4604320C880F92E7
:103F80000025B0E60F9A1193166800248DF877404B
:103F9000151D002E00F0A7860A9A531C00F0098612
:103FA0002146304603F0ECFE002800F0E186831B3A
:103FB0000E930A940F95CDF81CB023EAE37308938F
:103FC00012949DF87770B3E69AF8003001222B2105
:103FD000EEE54BF0200B9AF80030E9E51193002A4A
:103FE00040F09587224B18931BF0200F40F0118171
:103FF0000F9A1BF0100F134640F0E1831BF0400FA7
:1040000000F0DD83043314880F9300251BF0010FAB
:1040100000F00C8154EA050300F0088130239DF87C
:1040200044208DF878308DF879204BF0020B022374
:1040300059E69AF8003000297FF4BAAD0122202118
:10404000B6E54BF0010B9AF80030B1E50F9C236800
:104050000D9318460028234603F10403FFF60AAE29
:104060000F939AF80030A3E5109E4000209E400078
:10407000F09D40004BF0100B1BF0200F11933FF40C
:1040800023AE0F9D073525F0070303F10802D3E99E
:1040900000450F92012326E69AF800302A2B0AF1F8
:1040A000010400F02787A3F130000928A24600F29E
:1040B000AD8600231C461AF8013B04EB840400EB98
:1040C0004404A3F130000928F5D90A9472E54BF0B5
:1040D000800B9AF800306BE54BF0400B9AF80030FB
:1040E00066E59AF800306C2B03BF9AF801304BF06C
:1040F000200B0AF1010A4BF0100B59E5002A40F0A1
:1041000011871BF0200F40F0F9841BF0100F40F0D6
:10411000AC841BF0400F00F0A8840F9A136804329F
:104120000F92BDF824201A8011E50F99B34B0C684B
:1041300018933022782304318DF8793011934BF0A5
:10414000020B0F9100258DF878200223CBE50F9903
:1041500011930A688DF8A02000230A461F468DF8A7
:104160007730043201230893CDF81CB00A971297D8
:104170000F920E9328AEDFE51193002A40F0EA86F5
:104180001BF0200F5DD11BF0100F40F008831BF0D7
:10419000400F00F004830F99B1F900400431E51796
:1041A00022462B460F91002A73F1000358DB0A992F
:1041B0009DF877704A1C4FF001037FF49BAD54EAE1
:1041C000050200F0DF81CDF81CB0012B00F07B82EE
:1041D000022B40F0068218984E46230904F00F0186
:1041E00043EA05732A091C461546435C06F8013D5F
:1041F00054EA0503F1D1A9EB06030E9390E5119360
:10420000002A40F0A3867E4B18931BF0200F3FF44A
:10421000EFAE0F9D073525F0070303F108021BF0F1
:10422000010F0F92D3E900457FF4F4AE02235AE563
:104230001193002A40F086864BF0100B1BF0200FE4
:10424000A1D00F9D073525F00705D5E90023002AE9
:1042500005F108011D4673F100030F911446A6DA1B
:104260002D27644265EB45058DF8777001233DE508
:104270001193002A40F062860F9D073525F0070351
:1042800003F108020F921A6815925B681493149B4D
:10429000159D23F00044284621464FF0FF32594B2C
:1042A00005F0F2F9002840F04A83284621464FF0F5
:1042B000FF32544B05F0CAF9002840F0408315A89E
:1042C0000DC8149905F0B8F9002840F030859DF824
:1042D00077704D4E4D4B2BF08000079011980322C4
:1042E000002108920A914728D8BF1E460E921291CB
:1042F0001EE54BF0080B9AF8003059E4A3F13000AA
:1043000000231C461AF8013B04EB840400EB440430
:10431000A3F130000928F5D90D944BE44BF0100BB4
:1043200011931BF020033FF41DAE0F9D073525F0C0
:10433000070303F10802D3E900450F920023D2E4FA
:104340001193002A40F0E785119A002A3FF4A3ACAC
:10435000002301211F4608918DF8A020CDF81CB044
:104360008DF877300A9312930E9128AEE4E4279CDF
:1043700034E5119B652B40F3A78015A80DC814994F
:1043800005F050F9002800F05081269B204AC8F81B
:104390000020013301340122072B27942693C8F80B
:1043A000042000F36A8308F108081F9B139A279CD6
:1043B000934203DB079BDD077FF582AD269B1999AE
:1043C0001A9AC8F8002001330C44072BC8F80410CF
:1043D0002794269300F39E8308F10808139B5E1E22
:1043E000002E7FF76DAD102E269B0A4D40F3F58110
:1043F00022461027DDF830B00B9C13E0F09D400002
:10440000DC9D4000FFFFEF7FD09D4000CC9D400031
:104410000C9E4000209E400008F10808103E102E1F
:1044200040F3DA8101331032072B2792269388E874
:10443000A000F1DD25AA2146584604F057FA0028CD
:104440007FF430AC279A269BC846E7E70D9B089A75
:104450009F1A002F7FF7E5AC102F269BB64D27DD66
:1044600042462146B0464FF0100B2E460C9C0B9D49
:1044700004E0103F102F02F1080215DD0133103166
:10448000072B2791269382E84008F2DD25AA2946CA
:10449000204604F02BFA00287FF404AC103F102FC4
:1044A0002799269B4A46E9DC35460C464646904607
:1044B00001333C44072B2794269388E8A00000F39F
:1044C000328208F10808ACE4139B269F012B40F3CD
:1044D000FE81013701340123072F27942697C8F85E
:1044E0000060C8F8043000F3038208F10808199A44
:1044F0001A9BC8F8003001371444072F27942697D9
:10450000C8F8042000F3008208F1080815A80DC8B7
:10451000149905F087F8139B002840F00181013BB6
:10452000013701361C44072F26972794C8F80060EE
:10453000C8F8043000F3278108F108081B9AC8F86E
:1045400004200137144421AB072F27942697C8F87D
:1045500000307FF7B3AC25AA0B990C9804F0C6F98C
:1045600000287FF49FAB279CC846A9E425AA0B9995
:104570000C9804F0BBF900283FF4EBACFFF792BBBA
:10458000DDF81CB0012B00F03481022B25D1CDF8D1
:104590001CB0002400251EE625AA0B990C9804F0F7
:1045A000A5F900287FF47EAB279CC84675E425AAB0
:1045B0000B990C9804F09AF900287FF473AB279CB0
:1045C000C8461BE425AA0B990C9804F08FF9002823
:1045D0007FF468AB279CC84620E4CDF81CB00024CB
:1045E0000025494600E03146E20842EA4572E80803
:1045F00004F0070305461446303354EA050201F877
:10460000013C01F1FF36EED1079AD2077FF5F3ADF9
:10461000302B3FF4F0AD0239302306F8013CA9EB12
:1046200001030E930E46FFF77BBB1F99002940F351
:104630002E82129B139A9342A8BF1346002B1F464B
:104640000DDD269BC8F8006001333C44072B2794FE
:10465000C8F80470269300F31F8308F10808129B22
:10466000002FA8BFDB1B002B1F4640F3D680102F66
:10467000269B314D40F3ED8142462146B0464FF036
:10468000100B2E460C9C0B9D04E00832103F102F9F
:1046900040F3DB8101331031072B2791269382E809
:1046A0004008F2DD25AA2946204604F01FF900281B
:1046B0007FF4F8AA2799269B4A46E7E70A9B0E93C0
:1046C0004E46FFF72DBB002D08BF0A2CC0F08F808F
:1046D0004E46204629460A22002305F013F83032C0
:1046E00006F8012D2046294600230A2205F00AF883
:1046F00004460D4654EA0503EBD1A9EB06030E93DD
:10470000FFF70EBB25AA0B990C9804F0EFF80028D0
:104710007FF4C8AA9DF87770279CC846FFF75EBB58
:104720005E1E002E7FF70AAF102E034D22DD2246BB
:104730004FF0100B0C9C06E0209E4000103E102E07
:1047400008F1080815DD01371032072F2792269748
:1047500088E82008F2DD25AA0B99204604F0C6F867
:1047600000287FF49FAA103E102E279A269FC84645
:10477000E9DC144601373444072F2794269788E84C
:1047800060007FF7D9AE25AA0B990C9804F0AEF81B
:1047900000287FF487AA279C269FC846CEE60F9A5A
:1047A000146813460433E5170F9322462B46FAE4A8
:1047B00004321C680F9201230025FFF794BA1C688D
:1047C00004330F93002521E40F990A4604320C6844
:1047D0000F920025FFF787BA144601333444072BA4
:1047E0002794269388E860007FF768ABB3E6DDF88E
:1047F0001CB0CDF81CB042AE3034012306F8414D58
:104800000E93FFF78DBA25AA0B990C9804F06EF859
:1048100000287FF447AA279CC8461F9A139B9A42F8
:1048200044DB079BD90741D4139B12989A1A1D1A8F
:104830009542A8BF1546002D0EDD2699C8F80450F4
:10484000013106442C440729C8F8006027942691BA
:1048500000F33B8208F10808002DACBF561B16463A
:10486000002E7FF72DAB102E269BB04DB5DD2246D6
:104870001027DDF830B00B9C04E008F10808103E6A
:10488000102EA9DD01331032072B2792269388E8DA
:10489000A000F2DD25AA2146584604F027F800289A
:1048A0007FF400AA279A269BC846E8E7269B19981A
:1048B0001A99C8F8001001330444072B2794C8F84C
:1048C0000400269300F3F58108F10808ACE7079B84
:1048D000DA073FF5FEAD013701340123072F279496
:1048E0002697C8F80060C8F804307FF725AE4AE77D
:1048F00025AA0B990C9803F0F9FF00287FF4D2A9A0
:10490000279C269FC846F2E525AA0B990C9803F030
:10491000EDFF00287FF4C6A9279C269FC846F5E531
:104920004E46FFF7FDB925AA0B990C9803F0DEFF60
:1049300000287FF4B7A9279CC846FFF772BA159CD8
:1049400022462046149C2346214604F09DFE002862
:1049500040F086820A9B0133119B23F020030E93C3
:1049600000F0E281472B00F01E814BF48073079327
:10497000149B1F1E159B0893BBBF3B4603F10047CA
:1049800000232D231093119B662B00F0BB81462B37
:1049900000F0DF800E9B089A452B0CBF0A9B0A9DF6
:1049A00023A820A908BF5D1C049003911FA8022121
:1049B0003B460290019500910C9801F0A1FA119BE1
:1049C000672B064640F0E0811BF0010F00F04682A5
:1049D0007419169A0898179B394604F023FE00288C
:1049E00040F06581239BA34206D230215A1C2392BA
:1049F0001970239B9C42F9D89B1B13930E9B472B4A
:104A000000F0E980119B652B40F3CD81119B662B53
:104A10001F9B129300F09E81139B129A194691429C
:104A200000F38A811BF0010F40F0138222EAE27347
:104A3000089367230E921193109B002B40F0C480C3
:104A40000A939DF87770FFF773B935460C464646D2
:104A5000904601333C44072B2794269388E8A00016
:104A60003FF7D1AE08F10808D7E60F9A1368043271
:104A70000F92099A1A60FFF76AB825AA0B990C9849
:104A800003F034FF00287FF40DA9C8468DE4269B6F
:104A9000274AC8F80020013301340122072B27944C
:104AA0002693C8F8042072DC08F1080829B9139B82
:104AB0001BB9079BD8077FF503AA269B19981A9A5A
:104AC000C8F80020013302462244072B2792C8F879
:104AD0000400269300F38D8108F108080029C0F234
:104AE00065811399C8F8006001338C18072B27944F
:104AF0002693C8F804107FF7E1A92CE50F9A0999CD
:104B00001368CD170846043229460F92C3E9000105
:104B1000FFF71DB825AA0B990C9803F0E7FE0028B3
:104B20007FF4C0A8279CC84658E400BF209E4000E0
:104B30000C9E400040210C9802F056FE0B9A10602B
:104B40001061002800F0F2810B9A40235361FEF7B8
:104B5000EEBF23A820A90A9C049003911FA803215B
:104B60000290089A01943B4600910C9801F0C8F914
:104B700025460646119B462B06EB05047FF429AF1C
:104B80003378302B00F078811F9D2C4421E725AA33
:104B90000B990C9803F0AAFE00287FF483A81F99B4
:104BA000279CC84682E70A9B002B08BF01230A9373
:104BB000DBE630460A94FEF703FF0F950E90CDF822
:104BC0001CB00346FFF7F9B92D2700238DF8777045
:104BD0000A93FFF7AEB81F9B12931A46033304DB08
:104BE0000A9B19469142BFF617AF119B023B1193E6
:104BF0009DF844308DF88430129B013B002B1F93AD
:104C0000BDBF129BC3F101032D222B22092B8DF86E
:104C1000852040F316810DF193042046AB4D00E052
:104C2000104685FB0312D917C1EBA20101EB8102EB
:104C3000A3EB42023032092900F8012C0B4600F1A7
:104C4000FF32EDDC30330238D9B2844202F8011C65
:104C500040F265810DF18600134601E013F8011B57
:104C600000F8011BA342F9D101339B1A0DF1860212
:104C7000134421AA9B1A139A1B93012A13440E93DF
:104C800040F319810E9B199A13440E9323EAE373A0
:104C9000089300231293CFE625AA0B990C9803F0F2
:104CA00025FE00287EF4FEAF279CC846D7E42346A5
:104CB000A2E625AA0B990C9803F018FE00287EF4B2
:104CC000F1AF1F9A279CC846AEE525AA0B990C9810
:104CD00003F00CFE00287EF4E5AF1F9A139B279C7F
:104CE0009A1AC846B8E50A9B1296062B28BF0623D7
:104CF0000A96374608930F95CDF81CB00E93744E64
:104D0000FFF716B823A820A90A9D049003911FA8B5
:104D100003210290089A01953B4600910C9801F0FE
:104D2000EFF8064644192BE706230A931DE62D27C4
:104D30008DF87770FFF7CDBA199A139B1344129A26
:104D40000E93002A40F3B08023EAE37308936723AD
:104D5000119371E6002B40F3C3800A9A002A40F0B9
:104D600099801BF0010F40F0958008930E9363E645
:104D70000A9B08930E930A900F95CDF81CB01290E1
:104D80009DF87770FEF7D4BF119B472B7FF420AEC0
:104D90001BF0010F7FF4EEAE239B9B1B13930E9B26
:104DA000472B3FF418AF1F9B129321E74F4210315E
:104DB000484D2FDA1024DDF830B004E008F108087F
:104DC000103F102F26DD01331032072B2792269338
:104DD000C8F80050C8F80440F0DD25AA0B995846E1
:104DE00003F084FD00287EF45DAF279A269BC84619
:104DF000E6E725AA0B990C9803F078FD00287EF4CD
:104E000051AF1F99279A269BC84667E600200A9053
:104E1000FEF7D0BE01333A44072B88E8A000279262
:104E2000269308F108087FF75CAE25AA0B990C9829
:104E300003F05CFD00287EF435AF279A269BC84618
:104E40004FE6303330228DF887308DF8862022AB44
:104E50000FE7129B199A13440E9375E7239BCBE53A
:104E6000149B1D4E002BB6BF2D279DF877708DF833
:104E700077701A4BFFF72FBA169A0898179B394686
:104E800004F0D0FB00287FF47FAEC5F101051F952B
:104E90002C449EE5129B199A13440A9A1A4422EA5A
:104EA000E2730E920893C7E5129B0E9AC3F10103B9
:104EB0001A441346D0E71BF0010312937FF4E2AECD
:104EC0000E9B23EAE3730893B6E500BF6766666648
:104ED000049E4000209E4000D89D4000D49D40008C
:104EE0000A9B13B91BF0010F02D0199B0133D4E7C1
:104EF00001233AE70F9D9AF80130286840EAE070F4
:104F00000A9028460430A2460F90FEF751BE8DF855
:104F10007710FFF767B88DF87710FFF715BA0DF126
:104F20008603A6E68DF87710FFF7EBB80C9A0C23F2
:104F300013604FF0FF330993FEF7BDBE8DF8771075
:104F4000FFF79AB98DF87710FFF776B98DF87710DB
:104F5000FFF759B98DF87710FFF712B92DE9F84F1F
:104F60004B6E9C0493462FD59368126853B30E463C
:104F7000074602F1080919E920045FEA9A0817D0E8
:104F8000043D002401E0A04510D0324655F8041F2E
:104F9000384602F079F8431C04F10104F3D10023F0
:104FA000CBF80830CBF80430BDE8F88FDBF80830D8
:104FB0002AF0030AA3EB0A03CBF8083009F1080929
:104FC000002BD8D10020EAE702F0C8F90023CBF883
:104FD0000830CBF80430BDE8F88F00BF2DE9F04F62
:104FE000ADB01D468B4690460793069018B1836B73
:104FF000002B00F0F380DBF86430BBF90C00DF0716
:1050000081B202D48E0540F1FC808C040AD4DBF816
:10501000643040F4005123F40053ABF80C10CBF88B
:10502000643089B2080740F1B380DBF81030002B00
:1050300000F0AE8001F01A030A2B00F0B5800023C7
:105040000DF170090B93119310930393CDF83C90DD
:10505000CA46CDF810B098F800304446FBB1252B75
:1050600002D11CE0252B03D014F8013F002BF9D10D
:10507000A4EB08059DB1109B119ACAF8008001337A
:105080002A44072BCAF80450119210937ADD002AA3
:1050900040F0B084039B10922B44CA4603932378BC
:1050A000002B00F0E08300204FF000038DF8373034
:1050B00004F1010862780546064603464FF0FF34C6
:1050C00008F10108A2F12001582900F2DE82DFE890
:1050D00011F02102DC02DC022902DC02DC02DC022B
:1050E000DC02DC02DC0289029502DC02A200BD02C5
:1050F000DC029F01A401A401A401A401A401A40154
:10510000A401A401A401DC02DC02DC02DC02DC025A
:10511000DC02DC02DC02DC02DC02B201DC02DC02CA
:10512000DC02DC02DC02DC02DC02DC02DC02DC028F
:105130009701DC02DC02DC02DC02DC029B01DC0207
:10514000DC025302DC02DC02DC02DC02DC02DC02F8
:10515000DC02DC02DC02DC025A021B02DC02DC02A2
:10516000DC026E021B02DC02DC027302DC02F501CF
:1051700082010902D702DC029A02DC02A700DC02EB
:10518000DC022E020AF1080A039B2B44039386E7F4
:105190005946069800F0ACFD18BBBBF80C1001F0A6
:1051A0001A030A2B7FF44BAFBBF90E30002BFFF62E
:1051B00046AFDBF86430DB0705D48F0503D4DBF89A
:1051C000580002F08FFA2B4642465946069800F0E6
:1051D0004DFD039003982DB0BDE8F08F01F0B2FEB5
:1051E00009E7DBF86430D90704D4BBF80C309A0522
:1051F00040F1AA844FF0FF33039303982DB0BDE82C
:10520000F08FDBF8580002F06BFABBF90C0081B2AA
:10521000FBE67642079243F0040398F800204FE73C
:1052200008969E0600F150840799DD060A4600F1B3
:10523000EF83580640F1EC830E88043100270122E9
:1052400007914FF000018DF837100025611C00F028
:10525000168123F08001029156EA070140F0148183
:10526000002C40F05C83002A40F0B78313F0010368
:10527000059300F057840DF1B00B30230BF8413D3E
:10528000059BA342B8BF234601930DB1013301939F
:10529000029B13F00203099302D0019B0233019396
:1052A000029B13F084030A9340F01782089B019A33
:1052B0009D1A002D40F31182102D40F39084109B15
:1052C000119AC44ED6461027A2461946069C07E0FE
:1052D00001F1020C0EF1080E0146103D102D11DDFA
:1052E000481C1032072811928EE8C0001090EFDDA4
:1052F000002A40F0E481103D102D11464FF0010CC2
:10530000CE46EDDC54466146F2462A440729119206
:10531000CAF80060CAF80450109100F3EC829DF8BE
:1053200037500AF1080A481C002D40F0DE81099B25
:10533000002B00F0F88102320EA9022307281192F7
:1053400010908AE80A0040F3EA81002A40F08C833A
:105350000A9B802B4FF001001146CA4640F0E781BE
:10536000089B019D5E1B002E40F3E181102E9A4D9B
:1053700040F35084D4461027A246069C07E001F172
:10538000020E0CF1080C0146103E102E11DD481CD7
:105390001032072811928CE8A0001090EFDD002A4F
:1053A00040F09D82103E102E4FF0010E1146CC466B
:1053B000EDDC5446E2463244BEF1070F11928AE812
:1053C0006000CDF840E000F369830AF1080A0EF1AD
:1053D00001007146ABE1089613F0200240F08C8387
:1053E00013F0100140F01A8313F0400200F016830E
:1053F00007980A460146043106880791002720E7EE
:10540000089643F01003E7E7089643F0100308E717
:1054100043F0800398F8002052E6A2F13001002604
:1054200018F8012B06EB860601EB4606A2F13001C7
:105430000929F5D946E60896002840F0088443F08B
:1054400010039E0600F14C83DD0600F1F38258063E
:1054500040F1F082079DB5F900602A46F717043243
:10546000304639460792002871F10002C0F25D8390
:10547000611C9DF837504FF001027FF4EAAE56EA06
:10548000070100F04D820293012A00F08C82022A6B
:1054900040F05C820B98CB46330906F00F0143EADB
:1054A00007733A091E461746435C0BF8013D56EA5E
:1054B0000703F1D1A9EB0B030593E1E6002840F0C7
:1054C000C083990600F16783DA0600F1F1805B067C
:1054D00040F1EE80079A136804320792BDF80C2061
:1054E0001A80B8E507983D4A08960B92066878221C
:1054F000302104308DF8392043F002030790002753
:105500008DF8381002229CE60896002899D08DF874
:10551000375096E798F80020002D7FF4D1AD012098
:105520002025CDE543F0010398F80020C8E5089652
:10553000002840F0938329490B919F0600F1E882EF
:105540000798DE06014600F170825D0640F16D822B
:105550000431068807910027D80740F1228256EAD5
:10556000070100F01E8230218DF8392043F002033C
:105570008DF83810022264E60896002840F06B830C
:1055800017490B91D9E7079908960A688DF84820C2
:105590004FF000000A468DF83700043201200190D8
:1055A000079205900DF1480B0293002470E643F03A
:1055B000400398F8002083E598F800206C2A03BF88
:1055C00098F8012043F0200308F1010843F010038C
:1055D00076E500BF309E4000409E4000F09D4000B8
:1055E000DC9D400007990E680A46002E02F1040275
:1055F000FFF60FAE079298F8002061E598F80020BA
:1056000001202B255CE507990896D1F800B04FF0F2
:1056100000028DF837200E1DBBF1000F00F0E5826F
:10562000671C00F0C482224600215846019302F014
:10563000A7FB019B002800F0E582A0EB0B0205927E
:10564000079602939DF83750002419E698F8002039
:105650002A2A08F1010700F0E982A2F130010929A4
:10566000B8464FF000043FF62DAD18F8012B04EBBF
:10567000840401EB4404A2F130010929F5D921E5A4
:1056800043F0200398F800201AE50896002840F01F
:10569000DB82002A00F0E78001218DF848204FF0DE
:1056A000000201918DF8372005910DF1480B7BE741
:1056B000079A136804320792039A1A60CBE40FAA80
:1056C00004992046FFF74AFC002840F039811099E0
:1056D000119A01F1010CCE46FFE51099119A481C70
:1056E0009DF83750002D3FF422AE01320DF1370501
:1056F0000121072811921090CAF80050CAF804102E
:1057000040F30881002A40F0BC81099B002B3FF444
:105710001FAE0EAB022208461C931D92CA460146DC
:105720000AF1080A01300A9B802B3FF419AE059B51
:10573000E41A002C2EDD102CB34D1EDDD6461026AB
:10574000069FDDF810A006E0881C0EF1080E194631
:10575000103C102C10DD4B1C1032072B11928EE8E0
:1057600060001093F0DD002A65D1103C102C4FF042
:1057700001001146CE46EEDCF24622440728119283
:10578000CAF80050CAF80440109000F385800AF16E
:10579000080A01300599CAF800B00A440728119296
:1057A000CAF80410109040F38280002A40F018815B
:1057B000029B1092580735D5089B01995C1A002C62
:1057C00040F3E780CA46102C40F3188210998F4EA0
:1057D000069FDDF810B0102506E0881C0AF1080AC3
:1057E0001946103C102C11DD4B1C1032072B119266
:1057F000CAF80060CAF804501093EEDD42BB103CBA
:10580000102C4FF001001146CA46EDDC2244072857
:105810001192CAF80060CAF80440109051DD002AC5
:1058200040F09B81039B089A01998A42ACBF9B1868
:105830005B1803934EE00FAA51463846FFF78EFBE4
:10584000002840F03F811099119A481CCE467FE70E
:105850000FAA59463846FFF781FB60B91099119A93
:10586000481CCA46BDE7119BDDF810B0002B40F084
:10587000D48100231093DBF8643013F0010FBBF8E0
:105880000C3002D19A0540F1DE805B063FF5B2ACE8
:1058900003982DB0BDE8F08F002A40F00681059AEC
:1058A0001D9201231192CDF870B01093CA460AF1EF
:1058B000080A029B590704D5089B01995C1A002C21
:1058C00081DC039B089901988142ACBF5B181B18CF
:1058D000039372BB00231093CA46FFF7BCBB0FAA09
:1058E00004992046FFF73AFB50BB1099119A01F139
:1058F000010ECC4648E5002A40F040819DF8371063
:10590000002900F01B8101220DF1370110461D9284
:105910001C91CA4601460AF1080A013007E5029BBC
:10592000012A00F09880022A0DD102930026002758
:10593000B0E50FAA04990698FFF710FB0028C9D01C
:10594000DDF810B097E7029300260027494600E0F3
:105950005946F20842EA4772F80806F0070307467C
:105960001646303356EA070201F8013C01F1FF3BCD
:10597000EED1029AD6077FF59DAD302B3FF49AAD5C
:10598000023930230BF8013CA9EB010305938B4648
:1059900076E4039B089A8A42ACBF9B185B1803937A
:1059A00098E702224DE4002F08BF0A2E52D3CB46BF
:1059B000304639460A22002303F0A4FE30320BF8A9
:1059C000012D3046394600230A2203F09BFE06468D
:1059D0000F4656EA0703EBD16CE50594CB464FE43E
:1059E0000FAA04990698FFF7B9FA0028A8D1119ACE
:1059F000CA465EE70FAA04990698FFF7AFFA002897
:105A00009ED1CA46FFF7C0BB409E4000309E40007A
:105A10000431166807910122002712E40798014615
:105A200004310668079100270BE40E6804310791E2
:105A3000002791E507990E680A46F7170432079286
:105A4000304639460FE5DBF8580001F04BFEBBF855
:105A50000C301AE7029B02930DF1B00B3036012394
:105A60000BF8416D05930BE40FAA04990698FFF714
:105A700075FA00287FF464AF1099119A481CCA4641
:105A800051E60FAA04990698FFF768FA00287FF4F8
:105A900057AF1099119A481CCA4648E4002A40F0B2
:105AA000918001201146CA4641E60FAA0499069842
:105AB000FFF754FA00287FF443AF1098119A013091
:105AC000CA4667E6D346D6E6079E073626F00702A3
:105AD00002F10801D2E9006707910122FFF7B1BB8B
